:100000000C9436000C945E000C945E000C945E0020
:100010000C945E000C945E000C945E000C945E00E8
:100020000C945E000C945E000C945E000C945E00D8
:100030000C945E000C945E000C945E000C945E00C8
:100040000C9414030C945E000C9484030C945E03D3
:100050000C945E000C945E000C945E000C945E00A8
:100060000C945E000C945E00B603A20511241FBE22
:10007000CFEFD8E0DEBFCDBF11E0A0E0B1E0E6EA0F
:10008000F0E102C005900D92AC34B107D9F722E03F
:10009000ACE4B1E001C01D92A635B207E1F710E073
:1000A000C5E3D0E004C02197FE010E944406C4339A
:1000B000D107C9F70E942A040C9446080C9400004A
:1000C0003FB7F8948091510190915201A091530152
:1000D000B091540126B5A89B05C02F3F19F0019699
:1000E000A11DB11D3FBFBA2FA92F982F8827820FBE
:1000F000911DA11DB11DBC01CD0142E0660F771F0E
:10010000881F991F4A95D1F708958F929F92AF92B9
:10011000BF92CF92DF92EF92FF926B017C010E941F
:1001200060004B015C01C114D104E104F104F1F061
:100130000E946000DC01CB0188199909AA09BB095A
:10014000883E9340A105B10570F321E0C21AD108A1
:10015000E108F10888EE880E83E0981EA11CB11C0E
:10016000C114D104E104F10419F7DDCFFF90EF9041
:10017000DF90CF90BF90AF909F908F90089508959B
:10018000CF92DF92EF92FF920F931F93CF93DF9363
:100190006C017A018B01C0E0D0E0CE15DF0581F063
:1001A000D8016D918D01D601ED91FC910190F08106
:1001B000E02DC6010995892B11F02196EECF7E0125
:1001C000C701DF91CF911F910F91FF90EF90DF90CA
:1001D000CF90089580E090E00895FC01538D448D08
:1001E000252F30E0842F90E0821B930B541710F0E2
:1001F000CF96089501970895FC01918D828D9817EF
:1002000061F0828DDF01A80FB11D5D968C91928DFA
:100210009F5F9F73928F90E008958FEF9FEF0895F7
:10022000FC01918D828D981731F0828DE80FF11DC0
:10023000858D90E008958FEF9FEF0895FC01918DDB
:10024000228D892F90E0805C9F4F821B91098F73D4
:100250009927089585E591E00E941E0121E0892BF0
:1002600009F420E0822F0895FC01848DDF01A80F9E
:10027000B11DA35ABF4F2C91848D90E001968F73CE
:100280009927848FA689B7892C93A089B1898C91ED
:10029000837080648C93938D848D981306C002883C
:1002A000F389E02D80818F7D80830895EF92FF9206
:1002B0000F931F93CF93DF93EC0181E0888F9B8D89
:1002C0008C8D981305C0E889F989808185FD26C049
:1002D000F62E0B8D10E00F5F1F4F0F731127E02ECE
:1002E0008C8DE8120CC00FB607FCFACFE889F989AB
:1002F000808185FFF5CFCE010E943401F1CF8B8D37
:10030000FE01E80FF11DE35AFF4FF0829FB7F8940A
:100310000B8FEA89FB89808180620AC09FB7F894BD
:10032000EE89FF896083E889F98980818370806420
:1003300080839FBF81E090E0DF91CF911F910F916B
:10034000FF90EF900895CF93DF93EC01888D882381
:10035000C9F0EA89FB89808185FD05C0A889B98932
:100360008C9186FD0FC00FB607FCF5CF808185FF0D
:10037000F2CFA889B9898C9185FFEDCFCE010E947B
:100380003401E7CFDF91CF91089580E090E0892B91
:1003900029F00E942A0181110C9400000895009711
:1003A00069F0FC0101900020E9F73197AF01481B8B
:1003B000590BBC0185E591E00C94C00080E090E011
:1003C00008958F929F92AF92BF920F931F93CF93F6
:1003D000DF93CDB7DEB7A1970FB6F894DEBF0FBE9F
:1003E000CDBF19A2423008F44AE08E010F5D1F4FC5
:1003F000842E912CA12CB12CA50194010E941306EE
:10040000E62FB901CA0101501109EA3014F4E05D88
:1004100001C0E95CD801EC93232B242B252B61F739
:10042000C8010E94CF01A1960FB6F894DEBF0FBE9F
:10043000CDBFDF91CF911F910F91BF90AF909F9053
:100440008F900895CF92DF92EF92FF92CF93DF9338
:100450006B017C016DE285E591E00E945601EC01A3
:1004600066277727CB016C197D098E099F094AE021
:100470000E94E1018C0F9D1FDF91CF91FF90EF90C3
:10048000DF90CF9008950E943108EF92FF920F9372
:100490001F93CF93DF93EC017B018A0188819981BF
:1004A000009729F02A813B8124173507F8F4B80119
:1004B0006F5F7F4F0E946B07009759F09983888385
:1004C0001B830A832C813D81232B81F4FC01108244
:1004D0000DC088819981009711F00E94E20619826F
:1004E00018821D821C821B821A8207C01D830C8306
:1004F000B701888199810E943F08CE01DF91CF9199
:100500001F910F91FF90EF9008958F929F92AF925D
:10051000BF92CF92DF92EF92FF920F931F93CF93F0
:10052000DF93CDB7DEB728970FB6F894DEBF0FBEC6
:10053000CDBF8C014B01B42E79016C0184E0C80E53
:10054000D11CF8011582148217821682118610863A
:1005500040E050E062E271E0C6010E944502F8010D
:1005600091828082138212821A8219821C821B82DB
:100570001E821D82BF821886BE01695F7F4FFB010C
:1005800001900020E9F73197AF01461B570BCE01D0
:1005900001965C010E944502AC14BD04D9F0F8013B
:1005A00084819581009739F069817A81611571059F
:1005B00059F50E94E20689819A81F8019583848326
:1005C0008B819C81978386838D819E819187808793
:1005D0001A82198289819A810E94E206F801F386C3
:1005E000E28628960FB6F894DEBF0FBECDBFDF912E
:1005F000CF911F910F91FF90EF90DF90CF90BF9020
:10060000AF909F908F900895F801468157812D817A
:100610003E814217530768F20E943F088D819E81F8
:10062000F80191878087D6CF1F920F920FB60F9255
:1006300011242F933F938F939F93AF93BF938091F8
:100640004D0190914E01A0914F01B0915001309118
:100650004C0123E0230F2D3720F40196A11DB11D7D
:1006600005C026E8230F0296A11DB11D20934C0161
:1006700080934D0190934E01A0934F01B093500190
:100680008091510190915201A0915301B091540178
:100690000196A11DB11D8093510190935201A09329
:1006A0005301B0935401BF91AF919F918F913F91AE
:1006B0002F910F900FBE0F901F9018951F920F92C1
:1006C0000FB60F9211242F933F934F935F936F9325
:1006D0007F938F939F93AF93BF93EF93FF9385E5A2
:1006E00091E00E943401FF91EF91BF91AF919F91F2
:1006F0008F917F916F915F914F913F912F910F90CB
:100700000FBE0F901F9018951F920F920FB60F9269
:1007100011242F938F939F93EF93FF93E0916501A3
:10072000F09166018081E0916B01F0916C0182FD96
:1007300012C0908180916E018F5F8F7320916F0145
:10074000821751F0E0916E01F0E0EB5AFE4F958F69
:1007500080936E0101C08081FF91EF919F918F91F5
:100760002F910F900FBE0F901F901895E5E5F1E0C7
:100770001382128288EE93E0A0E0B0E08483958338
:10078000A683B7838AE091E09183808385EC90E033
:100790009587848784EC90E09787868780EC90E04B
:1007A000918B808B81EC90E0938B828B82EC90E03C
:1007B000958B848B86EC90E0978B868B118E128EB6
:1007C000138E148E24E630E041E36EE070E082EF99
:1007D00091E00E94850222E330E042E36FE070E0A6
:1007E0008EEF91E00E94850222E330E043E360E176
:1007F00070E08AE092E00E94850222E330E044E368
:1008000061E170E086E192E00E94850222E330E03F
:1008100045E362E170E082E292E00E94850222E319
:1008200030E046E363E170E08EE292E00E948502F0
:1008300022E330E047E364E170E08AE392E00E9463
:10084000850222E330E048E365E170E086E492E06F
:100850000C948502CF93DF93CDB7DEB762970FB6C6
:10086000F894DEBF0FBECDBF789484B5826084BD9E
:1008700084B5816084BD85B5826085BD85B58160A4
:1008800085BD80916E00816080936E001092810022
:1008900080918100826080938100809181008160DD
:1008A000809381008091800081608093800080919E
:1008B000B10084608093B1008091B000816080932A
:1008C000B00080917A00846080937A0080917A00F1
:1008D000826080937A0080917A00816080937A00B0
:1008E00080917A00806880937A001092C100E09134
:1008F0006501F091660182E08083E0916101F091F1
:1009000062011082E0916301F09164018FEC8083B9
:1009100010926D01E0916901F0916A0186E0808397
:10092000E0916701F0916801808180618083E091AE
:100930006701F0916801808188608083E0916701A0
:10094000F0916801808180688083E0916701F09177
:10095000680180818F7D808382E5C82E82E0D82E59
:1009600092ED892E9DEF992EAA24AA94BA2C02EF1B
:1009700011E0F801808191819A838983828193813A
:100980009C838B831E821D8218861F821A8619867D
:10099000648175816115710531F040855185CE0105
:1009A00005960E944502F801828593859C878B8776
:1009B0001E861D86188A1F861A8A198A6D817E8175
:1009C0006115710531F049855A85CE010D960E9459
:1009D000450288E191E00E94CF0168EE73E080E07B
:1009E00090E00E94850049895A896D857E8585E55C
:1009F00091E00E94C00080E291E00E94CF0168EE89
:100A000073E080E090E00E9485008D859E850E94C5
:100A1000E20689818E3008F08E5087708064809362
:100A20007C0080917A00806480937A0080917A00C3
:100A300086FDFCCF209178008091790030E0382B42
:100A4000C901330FAA0BBB0B9C01AD012F5F3340D3
:100A500041095109A4E6B0E00E94D105A501940125
:100A60000E94B2053C832B838B859C852817390710
:100A700024F483E291E00E94CF01EB80FC808CE2C1
:100A800091E00E94CF0168EE73E080E090E00E9468
:100A90008500B701FF0C880B990B97FF03C00E94DC
:100AA000220203C04AE00E94E10164E670E080E0B7
:100AB00090E00E9485008FE391E00E94CF0180E2E8
:100AC00091E00E94CF0168EE73E080E090E00E9428
:100AD0008500EB84FC8468EE73E080E090E00E9487
:100AE000850081E491E00E94CF0168EE73E080E030
:100AF00090E00E948500B701FF0C880B990B97FFCF
:100B000003C00E94220203C04AE00E94E1018FE379
:100B100091E00E94CF0180E291E00E94CF018D819F
:100B20009E810E94E206045F1F4FC016D10609F0A5
:100B300020CF68EE73E080E090E00E9485000E9484
:100B4000C50115CFCF93DF93C2E5D2E02C978C81FE
:100B50009D810E94E20681E0C23FD807B9F7DF918C
:100B6000CF910895052E97FB1EF400940E94C905AD
:100B700057FD07D00E94130607FC03D04EF40C94D7
:100B8000C90550954095309521953F4F4F4F5F4F88
:100B9000089590958095709561957F4F8F4F9F4FE9
:100BA00008950E943506A59F900DB49F900DA49FB7
:100BB000800D911D112408952F923F924F925F92C4
:100BC0006F927F928F929F92AF92BF92CF92DF925D
:100BD000EF92FF920F931F93CF93DF93CDB7DEB7C2
:100BE000CA1BDB0B0FB6F894DEBF0FBECDBF099456
:100BF0002A88398848885F846E847D848C849B84AD
:100C0000AA84B984C884DF80EE80FD800C811B81BA
:100C1000AA81B981CE0FD11D0FB6F894DEBF0FBEE9
:100C2000CDBFED010895A1E21A2EAA1BBB1BFD0149
:100C30000DC0AA1FBB1FEE1FFF1FA217B307E407BB
:100C4000F50720F0A21BB30BE40BF50B661F771F13
:100C5000881F991F1A9469F76095709580959095F3
:100C60009B01AC01BD01CF010895A29FB001B39FCC
:100C7000C001A39F700D811D1124911DB29F700DA5
:100C8000811D1124911D0895EE0FFF1F0590F49111
:100C9000E02D09940F931F93CF93DF93823091053A
:100CA00010F482E090E0E0915402F091550220E0CF
:100CB00030E0A0E0B0E0309719F14081518102812D
:100CC000138148175907C8F08417950769F41097DE
:100CD00031F012960C93129713961C9327C0009331
:100CE00054021093550222C02115310519F0421704
:100CF000530718F49A01BD01EF01DF01F801DBCFC2
:100D000021153105F9F0281B390B2430310580F409
:100D10008A819B816115710521F0FB019383828398
:100D200004C09093550280935402FE01329644C051
:100D3000FE01E20FF31F8193919322503109398311
:100D400028833AC02091520230915302232B41F460
:100D500020910201309103013093530220935202FB
:100D600020910001309101012115310541F42DB789
:100D70003EB74091040150910501241B350BE091D1
:100D80005202F0915302E217F307A0F42E1B3F0B1F
:100D90002817390778F0AC014E5F5F4F24173507ED
:100DA00048F04E0F5F1F50935302409352028193BD
:100DB000919302C0E0E0F0E0CF01DF91CF911F916D
:100DC0000F910895CF93DF93009709F481C0FC0140
:100DD000329713821282A0915402B091550210975B
:100DE00081F420813181820F931F20915202309132
:100DF00053022817390751F5F0935302E09352023A
:100E000067C0ED0120E030E0CE17DF0740F44A81F3
:100E10005B819E0141155105F1F0EA01F5CFD383C5
:100E2000C28340815181840F951FC817D90759F497
:100E300088819981840F951F0296918380838A818E
:100E40009B81938382832115310529F4F093550208
:100E5000E09354023DC0E901FB83EA834991599133
:100E6000C40FD51FEC17FD0761F480819181840FB9
:100E7000951F0296E90199838883828193819B83E0
:100E80008A83E0E0F0E012968D919C911397009791
:100E900019F0FD01DC01F7CF8D919C9111979D0117
:100EA0002E5F3F4F820F931F2091520230915302C9
:100EB0002817390769F4309729F4109255021092D7
:100EC000540202C013821282B0935302A0935202C2
:100ED000DF91CF910895A0E0B0E0E1E7F7E00C9456
:100EE000E005EC01009721F4CB010E944A06B4C052
:100EF000FC01E60FF71F9C0122503109E217F307AE
:100F000008F4A8C0D9010D911C9111970617170775
:100F1000B0F00530110508F49BC0C801049786178E
:100F2000970708F495C002501109061B170B01938F
:100F300011936D937C93CF010E94E20689C05B01FF
:100F4000A01AB10A4C01800E911EA0915402B091DA
:100F50005502612C712CE12CF12C109709F446C03C
:100F60008D919C911197A815B905B1F56C0142E0DE
:100F7000C40ED11CCA14DB0478F14C018A189B08FA
:100F8000640142E0C40ED11C1296BC9012971396D5
:100F9000AC91B5E0CB16D10440F0B282A38391822C
:100FA0008082D9016D937C9309C00E5F1F4F800F23
:100FB000911FF90191838083EB2DFA2FE114F10445
:100FC00031F0D7011396FC93EE93129741C0F09342
:100FD0005502E09354023CC06816790608F43C01BF
:100FE0007D0112960D90BC91A02DB7CF8091520239
:100FF0009091530288169906E1F466167706C8F4B4
:101000008091000190910101009741F48DB79EB746
:101010004091040150910501841B950BE817F907D5
:10102000C8F4F0935302E0935202F9017183608394
:101030000FC0CB010E944A067C01009759F0A8011D
:10104000BE010E943608CE010E94E206C70104C01C
:10105000CE0102C080E090E0CDB7DEB7EEE00C94A8
:10106000FC0581E090E0F8940C944608FB01DC015B
:1010700002C001900D9241505040D8F70895FB01F5
:10108000DC0101900D920020E1F7089510E0C5E326
:10109000D0E004C0FE010E9444062196C633D10769
:0610A000C9F7F894FFCF30
:1010A600000056028000000000005601C000ED005E
:1010B600A3011E01FC0010010A506C616E74200031
:1010C6000D0A005761746572696E67004D6F69732A
:1010D600747572652050657263656E743A200025DA
:0C10E6000053657474696E673A200000C6
:107800000C94343C0C94513C0C94513C0C94513CE1
:107810000C94513C0C94513C0C94513C0C94513CB4
:107820000C94513C0C94513C0C94513C0C94513CA4
:107830000C94513C0C94513C0C94513C0C94513C94
:107840000C94513C0C94513C0C94513C0C94513C84
:107850000C94513C0C94513C0C94513C0C94513C74
:107860000C94513C0C94513C11241FBECFEFD8E036
:10787000DEBFCDBF11E0A0E0B1E0ECE9FFE702C060
:1078800005900D92A230B107D9F712E0A2E0B1E065
:1078900001C01D92AD30B107E1F70E942D3D0C945F
:1078A000CC3F0C94003C982F959595959595959582
:1078B000905D8F708A307CF0282F295A8091C0000B
:1078C00085FFFCCF9093C6008091C00085FFFCCF60
:1078D0002093C6000895282F205DF0CF982F809127
:1078E000C00085FFFCCF9093C6000895EF92FF92F1
:1078F0000F931F93EE24FF2487018091C00087FD22
:1079000017C00894E11CF11C011D111D81E4E8164B
:1079100082E4F8068FE0080780E0180770F3E09132
:107920000401F091050109958091C00087FFE9CF1E
:107930008091C6001F910F91FF90EF9008950E94D3
:10794000763C982F8091C00085FFFCCF9093C600B5
:1079500091362CF490330CF09053892F089597555D
:10796000892F08951F930E949F3C182F0E949F3CCF
:107970001295107F810F1F9108951F93182F882350
:1079800021F00E94763C1150E1F71F9108951F935A
:10799000182F0E94763C803249F0809103018F5F5E
:1079A000809303018530C1F01F9108958091C0003C
:1079B00085FFFCCF84E18093C6008091C00085FFE5
:1079C000FCCF1093C6008091C00085FFFCCF80E102
:1079D0008093C6001F910895E0910401F091050184
:1079E00009951F9108950E94763C803241F0809164
:1079F00003018F5F80930301853081F008958091AA
:107A0000C00085FFFCCF84E18093C6008091C00058
:107A100085FFFCCF80E18093C6000895E0910401CA
:107A2000F09105010995089540E951E08823A1F0FE
:107A30002D9A28EE33E0FA013197F1F721503040CA
:107A4000D1F72D9828EE33E0FA013197F1F7215064
:107A50003040D1F7815061F708953F924F925F9285
:107A60006F927F928F929F92AF92BF92CF92DF924E
:107A7000EF92FF920F931F93CF93DF93000080E16B
:107A80008093C4001092C50088E18093C10086E015
:107A90008093C2005098589A259A81E00E94143D24
:107AA00024E1F22E9EE1E92E85E9D82E0FE0C02ECA
:107AB00010E1B12EAA24A394B1E49B2EA6E58A2E50
:107AC000F2E57F2EE0E26E2E79E4572E63E5462E36
:107AD00050E5352E0E94763C8033B1F18133B9F107
:107AE000803409F46FC0813409F476C0823409F41B
:107AF00085C0853409F488C0803531F1823521F1A3
:107B0000813511F1853509F485C0863509F48DC0BC
:107B1000843609F496C0843709F403C1853709F423
:107B200072C1863709F466C0809103018F5F80932C
:107B30000301853079F6E0910401F0910501099582
:107B40000E94763C803351F60E94F33CC3CF0E94E2
:107B5000763C803249F78091C00085FFFCCFF092DF
:107B6000C6008091C00085FFFCCF9092C600809136
:107B7000C00085FFFCCF8092C6008091C00085FFC9
:107B8000FCCF7092C6008091C00085FFFCCF609250
:107B9000C6008091C00085FFFCCF5092C600809146
:107BA000C00085FFFCCF4092C6008091C00085FFD9
:107BB000FCCF3092C6008091C00085FFFCCFB09210
:107BC000C60088CF0E94763C863808F4BDCF0E945C
:107BD000763C0E94F33C7ECF0E94763C803809F4CC
:107BE0009CC0813809F40BC1823809F43CC1883942
:107BF00009F48FC080E00E94C73C6CCF84E10E94F2
:107C0000BD3C0E94F33C66CF85E00E94BD3C0E94D3
:107C1000F33C60CF0E94763C809306010E94763C44
:107C2000809307010E94F33C55CF0E94763C80333D
:107C300009F41DC183E00E94BD3C80E00E94C73C66
:107C400049CF0E94763C809309020E94763C809343
:107C5000080280910C028E7F80930C020E94763C79
:107C6000853409F415C18091080290910902892B8D
:107C700089F000E010E00E94763CF801E85FFE4FDA
:107C800080830F5F1F4F80910802909109020817AF
:107C9000190788F30E94763C803209F045CF809125
:107CA0000C0280FF01C16091060170910701660F0F
:107CB000771F7093070160930601A0910802B091AD
:107CC00009021097C9F0E8E0F1E09B01AD014E0F09
:107CD0005F1FF999FECF32BD21BD819180BDFA9A17
:107CE000F99A2F5F3F4FE417F50799F76A0F7B1F4B
:107CF00070930701609306018091C00085FFFCCF5F
:107D0000F092C6008091C00085FFFCCFB092C60003
:107D1000E1CE83E00E94C73CDDCE82E00E94C73CFA
:107D2000D9CE0E94763C809309020E94763C8093D3
:107D300008028091060190910701880F991F909386
:107D40000701809306010E94763C853409F4A6C0A1
:107D500080910C028E7F80930C020E94763C8032D0
:107D600009F0B8CE8091C00085FFFCCFF092C6002C
:107D7000609108027091090261157105B9F140E046
:107D800050E080910C02A82FA170B82FB27011C0E2
:107D9000BB2309F45CC0E0910601F0910701319624
:107DA000F0930701E09306014F5F5F4F46175707B7
:107DB000E8F4AA2369F3F999FECF209106013091E6
:107DC000070132BD21BDF89A90B58091C00085FFB2
:107DD000FCCF9093C6002F5F3F4F30930701209355
:107DE00006014F5F5F4F4617570718F38091C00099
:107DF00085FDE5CE8091C00085FFF8CFE0CE81E023
:107E00000E94C73C67CE0E94763C803209F08CCE3F
:107E10008091C00085FFFCCFF092C6008091C00029
:107E200085FFFCCFE092C6008091C00085FFFCCFAB
:107E3000D092C6008091C00085FFFCCFC092C600E2
:107E40008091C00085FFFCCFB092C60043CEE09188
:107E50000601F091070194918091C00085FFFCCF4D
:107E60009093C6009CCF80E10E94C73C33CE0E9415
:107E7000763C0E94763C182F0E94763C112309F430
:107E800083C0113009F484C08FE00E94C73C22CE29
:107E900080910C02816080930C02E5CE80910C02EF
:107EA000816080930C0259CF809107018823880F4D
:107EB000880B8A2180930B02809106019091070123
:107EC000880F991F90930701809306018091080203
:107ED00080FF09C080910802909109020196909359
:107EE000090280930802F894F999FECF1127E091D6
:107EF0000601F0910701C8E0D1E08091080290915D
:107F00000902103091F40091570001700130D9F34B
:107F100003E000935700E89500915700017001308D
:107F2000D9F301E100935700E89509901990009169
:107F3000570001700130D9F301E000935700E89534
:107F40001395103498F011270091570001700130FB
:107F5000D9F305E000935700E895009157000170B0
:107F60000130D9F301E100935700E895329602976A
:107F700009F0C7CF103011F00296E5CF112480919F
:107F8000C00085FFB9CEBCCE8EE10E94C73CA2CD19
:0C7F900085E90E94C73C9ECDF894FFCF0D
:027F9C00800063
:040000030000780081
:00000001FF
