:100000000C945E000C9486000C9486000C94860080
:100010000C9486000C9486000C9486000C94860048
:100020000C9486000C9486000C9486000C94860038
:100030000C9486000C9486000C9486000C94860028
:100040000C94CB030C9486000C943B040C94150484
:100050000C9486000C9486000C9486000C94860008
:100060000C9486000C948600000000080002010039
:100070000003040700000000000000000000000072
:10008000250028002B0000000000240027002A0083
:10009000040404040404040402020202020203032E
:1000A0000303030301020408102040800102040836
:1000B00010200102040810206D04710611241FBED7
:1000C000CFEFD8E0DEBFCDBF11E0A0E0B1E0E4E4C7
:1000D000F2E102C005900D92AE39B107D9F722E0E6
:1000E000AEE9B1E001C01D92A23AB207E1F710E01B
:1000F000CDE5D0E004C02197FE010E941307CC3566
:10010000D107C9F70E94DB040C9415090C94000078
:1001100090E0FC01EC55FF4F2491FC01E057FF4FAC
:100120008491882399F090E0880F991FFC01EA5789
:10013000FF4FA591B491FC01E458FF4F8591949134
:100140008FB7F894EC91E22BEC938FBF089590E079
:10015000FC01E859FF4F2491FC01EC55FF4F34910D
:10016000FC01E057FF4FE491EE2309F43CC0222349
:1001700039F1233091F038F42130A9F0223001F523
:1001800084B58F7D12C0273091F02830A1F0243043
:10019000B9F4809180008F7D03C0809180008F77BB
:1001A000809380000DC084B58F7784BD09C0809195
:1001B000B0008F7703C08091B0008F7D8093B00036
:1001C000F0E0EE0FFF1FE458FF4FA591B4919FB7E9
:1001D000F894611104C08C913095382302C0EC91E1
:1001E0003E2B3C939FBF08953FB7F8948091A301A5
:1001F0009091A401A091A501B091A60126B5A89B5C
:1002000005C02F3F19F00196A11DB11D3FBFBA2FA8
:10021000A92F982F8827820F911DA11DB11DBC0108
:10022000CD0142E0660F771F881F991F4A95D1F7CD
:1002300008958F929F92AF92BF92CF92DF92EF92EA
:10024000FF926B017C010E94F4004B015C01C11420
:10025000D104E104F104F1F00E94F400DC01CB01CF
:1002600088199909AA09BB09883E9340A105B105DF
:1002700070F321E0C21AD108E108F10888EE880E77
:1002800083E0981EA11CB11CC114D104E104F10447
:1002900019F7DDCFFF90EF90DF90CF90BF90AF9038
:1002A0009F908F9008950895CF92DF92EF92FF92E2
:1002B0000F931F93CF93DF936C017A018B01C0E002
:1002C000D0E0CE15DF0581F0D8016D918D01D6010A
:1002D000ED91FC910190F081E02DC6010995892BEB
:1002E00011F02196EECF7E01C701DF91CF911F91D2
:1002F0000F91FF90EF90DF90CF90089580E090E015
:100300000895FC01538D448D252F30E0842F90E01B
:10031000821B930B541710F0CF9608950197089500
:10032000FC01918D828D981761F0828DDF01A80FFD
:10033000B11D5D968C91928D9F5F9F73928F90E01F
:1003400008958FEF9FEF0895FC01918D828D98178E
:1003500031F0828DE80FF11D858D90E008958FEFCB
:100360009FEF0895FC01918D228D892F90E0805C94
:100370009F4F821B91098F739927089587EA91E017
:100380000E94B20121E0892B09F420E0822F089518
:10039000FC01848DDF01A80FB11DA35ABF4F2C9122
:1003A000848D90E001968F739927848FA689B789F1
:1003B0002C93A089B1898C91837080648C93938DE8
:1003C000848D981306C00288F389E02D80818F7D8B
:1003D00080830895EF92FF920F931F93CF93DF9343
:1003E000EC0181E0888F9B8D8C8D981305C0E88986
:1003F000F989808185FD26C0F62E0B8D10E00F5FF8
:100400001F4F0F731127E02E8C8DE8120CC00FB612
:1004100007FCFACFE889F989808185FFF5CFCE0105
:100420000E94C801F1CF8B8DFE01E80FF11DE35A48
:10043000FF4FF0829FB7F8940B8FEA89FB89808188
:1004400080620AC09FB7F894EE89FF896083E889CB
:10045000F98980818370806480839FBF81E090E010
:10046000DF91CF911F910F91FF90EF900895CF935F
:10047000DF93EC01888D8823C9F0EA89FB898081AC
:1004800085FD05C0A889B9898C9186FD0FC00FB67E
:1004900007FCF5CF808185FFF2CFA889B9898C91BF
:1004A00085FFEDCFCE010E94C801E7CFDF91CF914C
:1004B000089580E090E0892B29F00E94BE0181110F
:1004C0000C9400000895009769F0FC010190002051
:1004D000E9F73197AF01481B590BBC0187EA91E05E
:1004E0000C94540180E090E008950C9463028F9284
:1004F0009F92AF92BF92CF92DF92EF92FF920F93B3
:100500001F93CF93DF93CDB7DEB7A1970FB6F894C3
:10051000DEBF0FBECDBF6C01990FEE08FF08F7FEDE
:100520002BC06DE287EA91E00E94EA018C0122274C
:100530003327A9012C193D094E095F0919A2CE01E3
:1005400081967C019AE0892E912CA12CB12CCA01B4
:10055000B901A50194010E94E206605DF701629372
:100560007F01211531054105510589F7CF010E9411
:100570006302800F911F1DC0A701960119A28E0171
:100580000F5D1F4F8AE0C82ED12CE12CF12CCA013F
:10059000B901A70196010E94E206605DF80162932D
:1005A0008F01211531054105510589F7CF010E94C1
:1005B0006302A1960FB6F894DEBF0FBECDBFDF91E8
:1005C000CF911F910F91FF90EF90DF90CF90BF9050
:1005D000AF909F908F9008950E940009EF92FF9234
:1005E0000F931F93CF93DF93EC017B018A018881E6
:1005F0009981009729F02A813B8124173507F8F467
:10060000B8016F5F7F4F0E943A08009759F09983B5
:1006100088831B830A832C813D81232B81F4FC0179
:1006200010820DC088819981009711F00E94B10756
:10063000198218821D821C821B821A8207C01D83A8
:100640000C83B701888199810E940E09CE01DF9148
:10065000CF911F910F91FF90EF9008954F925F926D
:100660007F928F929F92AF92BF92CF92DF92EF9242
:10067000FF920F931F93CF93DF93CDB7DEB72897E9
:100680000FB6F894DEBF0FBECDBF6C014B01742EC8
:1006900029015C0184E0A80EB11CF60115821482C8
:1006A000178216821186108640E050E06CE371E0FC
:1006B000C5010E94EE02F6019182808213821282AD
:1006C0001A8219821C821B821E821D827F821886DA
:1006D000BE01695F7F4FFB0101900020E9F7319770
:1006E000AF01461B570BCE0101964C010E94EE0252
:1006F0008A149B04D9F0F60184819581009739F022
:1007000069817A8161157105B1F50E94B10789810E
:100710009A81F601958384838B819C81978386835C
:100720008D819E81918780871A82198289819A8121
:100730000E94B10782E390E0F60193878287558695
:10074000448617870687F18AE08A28960FB6F894C0
:10075000DEBF0FBECDBFDF91CF911F910F91FF90F4
:10076000EF90DF90CF90BF90AF909F908F907F9051
:100770005F904F900895F601468157812D813E810B
:100780004217530710F20E940E098D819E81F601D7
:1007900091878087CBCF1F920F920FB60F921124B3
:1007A0002F933F938F939F93AF93BF9380919F011C
:1007B0009091A001A091A101B091A20130919E0160
:1007C00023E0230F2D3720F40196A11DB11D05C094
:1007D00026E8230F0296A11DB11D20939E01809350
:1007E0009F019093A001A093A101B093A2018091D9
:1007F000A3019091A401A091A501B091A601019639
:10080000A11DB11D8093A3019093A401A093A50104
:10081000B093A601BF91AF919F918F913F912F917E
:100820000F900FBE0F901F9018951F920F920FB64A
:100830000F9211242F933F934F935F936F937F9366
:100840008F939F93AF93BF93EF93FF9387EA91E0CA
:100850000E94C801FF91EF91BF91AF919F918F913D
:100860007F916F915F914F913F912F910F900FBEAC
:100870000F901F9018951F920F920FB60F92112490
:100880002F938F939F93EF93FF93E091B701F09194
:10089000B8018081E091BD01F091BE0182FD12C0DE
:1008A00090818091C0018F5F8F732091C101821769
:1008B00051F0E091C001F0E0E955FE4F958F809333
:1008C000C00101C08081FF91EF919F918F912F9185
:1008D0000F900FBE0F901F901895EF92FF920F93FD
:1008E0001F93E7EAF1E01382128288EE93E0A0E022
:1008F000B0E084839583A683B7838AE091E09183F7
:10090000808385EC90E09587848784EC90E09787DE
:10091000868780EC90E0918B808B81EC90E0938BCC
:10092000828B82EC90E0958B848B86EC90E0978BA9
:10093000868B118E128E138E148E83E4E82EFF2484
:10094000F3940EE612E022E030E041E36EE070E066
:1009500084E492E00E942E0323E030E042E36FE063
:1009600070E086E592E00E942E0324E030E043E34D
:1009700060E170E088E692E00E942E0325E030E01E
:1009800044E361E170E08AE792E00E942E039AE678
:10099000E92EFF24F3940FE912E026E030E045E36E
:1009A00062E170E08CE892E00E942E031F910F91AB
:1009B000FF90EF900895CF93DF93CDB7DEB76897A0
:1009C0000FB6F894DEBF0FBECDBF789484B58260B9
:1009D00084BD84B5816084BD85B5826085BD85B5E3
:1009E000816085BD80916E00816080936E00109261
:1009F00081008091810082608093810080918100DC
:100A0000816080938100809180008160809380006C
:100A10008091B10084608093B1008091B0008160CA
:100A20008093B00080917A00846080937A008091F6
:100A30007A00826080937A0080917A00816080934E
:100A40007A0080917A00806880937A001092C100C9
:100A5000E091B701F091B80182E08083E091B301A9
:100A6000F091B4011082E091B501F091B6018FECE4
:100A700080831092BF01E091BB01F091BC0186E040
:100A80008083E091B901F091BA0180818061808317
:100A9000E091B901F091BA01808188608083E09192
:100AA000B901F091BA01808180688083E091B90139
:100AB000F091BA0180818F7D808302E010E088E1AF
:100AC00091E00E947502C8010E947702802F0E9467
:100AD00088008DE191E00E94750264EF71E080E092
:100AE00090E00E9419010F5F1F4F0630110539F782
:100AF0008CE00E94880085ED882E8EEF982EAA2427
:100B0000AA94BA2C04E412E0F12C6AE087EA91E09E
:100B10000E94EA01F801808191819A838983828110
:100B200093819C838B831E821D8218861F821A8666
:100B30001986648175816115710531F04085518593
:100B4000CE0105960E94EE02F801828593859C876E
:100B50008B87848595859E878D8786859785988BDD
:100B60008F87808991899A8B898B1C8A1B8A1E8A20
:100B70001D8A188E1F8A6D817E816115710531F085
:100B800049855A85CE0143960E94EE0280E391E0AA
:100B90000E9475024F89588D6B897C8987EA91E0A4
:100BA0000E9454018AE391E00E9463028B899C8930
:100BB0000E94B10789818E3008F08E508770806462
:100BC00080937C0080917A00806480937A00809189
:100BD0007A0086FDFCCF209178008091790030E08A
:100BE0006901D82A8DE391E00E947502C6010E9436
:100BF0007702C601DD0CAA0BBB0B9C01AD012E5682
:100C0000324041095109A4E6B0E00E94A006A501C6
:100C100094010E9481063C832B8382E691E00E942E
:100C200075022B813C818B859C85281739077CF4C4
:100C300061E08D850E94A7008D859E850E947702C8
:100C40008FE491E00E947502FF24F3940CC08D851F
:100C50009E850E94770286E691E00E94750260E020
:100C60008D850E94A700CB80DC808CE791E00E94FC
:100C70007502C6010E94770282E991E00E94630238
:100C80008AE391E00E946302CB84DC8484E991E0F2
:100C90000E947502C6010E94770282E991E00E94DB
:100CA00063028AE391E00E9463028D819E810E942B
:100CB000B1070E5E1F4FF2E00E391F0709F025CF76
:100CC000FF2011F061E001C060E08CE00E94A7000D
:100CD00068EE73E080E090E00E9419010E945902E2
:100CE00011CFCF93DF93CEE9D2E062978C819D81C3
:100CF0000E94B10782E0C434D807B9F7DF91CF91E1
:100D00000895052E97FB1EF400940E94980657FD47
:100D100007D00E94E20607FC03D04EF40C9498061C
:100D200050954095309521953F4F4F4F5F4F089517
:100D300090958095709561957F4F8F4F9F4F089547
:100D40000E940407A59F900DB49F900DA49F800D55
:100D5000911D112408952F923F924F925F926F92AE
:100D60007F928F929F92AF92BF92CF92DF92EF923B
:100D7000FF920F931F93CF93DF93CDB7DEB7CA1BBC
:100D8000DB0B0FB6F894DEBF0FBECDBF09942A88E7
:100D9000398848885F846E847D848C849B84AA848F
:100DA000B984C884DF80EE80FD800C811B81AA811C
:100DB000B981CE0FD11D0FB6F894DEBF0FBECDBFE7
:100DC000ED010895A1E21A2EAA1BBB1BFD010DC067
:100DD000AA1FBB1FEE1FFF1FA217B307E407F507EB
:100DE00020F0A21BB30BE40BF50B661F771F881FC7
:100DF000991F1A9469F760957095809590959B015D
:100E0000AC01BD01CF010895A29FB001B39FC00105
:100E1000A39F700D811D1124911DB29F700D811D26
:100E20001124911D0895EE0FFF1F0590F491E02D00
:100E300009940F931F93CF93DF938230910510F4A1
:100E400082E090E0E091A002F091A10220E030E089
:100E5000A0E0B0E0309719F1408151810281138107
:100E600048175907C8F08417950769F4109731F0AF
:100E700012960C93129713961C9327C00093A0020E
:100E80001093A10222C02115310519F04217530712
:100E900018F49A01BD01EF01DF01F801DBCF211544
:100EA0003105F9F0281B390B2430310580F48A8193
:100EB0009B816115710521F0FB019383828304C03E
:100EC0009093A1028093A002FE01329644C0FE01DD
:100ED000E20FF31F819391932250310939832883C4
:100EE0003AC020919E0230919F02232B41F4209121
:100EF00002013091030130939F0220939E022091C2
:100F00000001309101012115310541F42DB73EB7A3
:100F10004091040150910501241B350BE0919E0284
:100F2000F0919F02E217F307A0F42E1B3F0B281746
:100F3000390778F0AC014E5F5F4F2417350748F052
:100F40004E0F5F1F50939F0240939E028193919397
:100F500002C0E0E0F0E0CF01DF91CF911F910F914F
:100F60000895CF93DF93009709F481C0FC01329775
:100F700013821282A091A002B091A102109781F475
:100F800020813181820F931F20919E0230919F0218
:100F90002817390751F5F0939F02E0939E0267C02E
:100FA000ED0120E030E0CE17DF0740F44A815B819D
:100FB0009E0141155105F1F0EA01F5CFD383C283BB
:100FC00040815181840F951FC817D90759F4888132
:100FD0009981840F951F0296918380838A819B81DA
:100FE000938382832115310529F4F093A102E093C4
:100FF000A0023DC0E901FB83EA8349915991C40FE6
:10100000D51FEC17FD0761F480819181840F951F36
:101010000296E90199838883828193819B838A83E5
:10102000E0E0F0E012968D919C911397009719F0F3
:10103000FD01DC01F7CF8D919C9111979D012E5FF1
:101040003F4F820F931F20919E0230919F022817DD
:10105000390769F4309729F41092A1021092A00286
:1010600002C013821282B0939F02A0939E02DF916E
:10107000CF910895A0E0B0E0E0E4F8E00C94AF0672
:10108000EC01009721F4CB010E941907B4C0FC01C8
:10109000E60FF71F9C0122503109E217F30708F40D
:1010A000A8C0D9010D911C91119706171707B0F030
:1010B0000530110508F49BC0C801049786179707EF
:1010C00008F495C002501109061B170B01931193E8
:1010D0006D937C93CF010E94B10789C05B01A01A78
:1010E000B10A4C01800E911EA091A002B091A10204
:1010F000612C712CE12CF12C109709F446C08D91D4
:101100009C911197A815B905B1F56C0142E0C40E88
:10111000D11CCA14DB0478F14C018A189B086401C5
:1011200042E0C40ED11C1296BC9012971396AC915B
:10113000B5E0CB16D10440F0B282A38391828082C5
:10114000D9016D937C9309C00E5F1F4F800F911FD3
:10115000F90191838083EB2DFA2FE114F10431F032
:10116000D7011396FC93EE93129741C0F093A1021E
:10117000E093A0023CC06816790608F43C017D01AA
:1011800012960D90BC91A02DB7CF80919E029091A8
:101190009F0288169906E1F466167706C8F48091D6
:1011A000000190910101009741F48DB79EB74091E5
:1011B000040150910501841B950BE817F907C8F449
:1011C000F0939F02E0939E02F901718360830FC048
:1011D000CB010E9419077C01009759F0A801BE01BC
:1011E0000E940509CE010E94B107C70104C0CE01CB
:1011F00002C080E090E0CDB7DEB7EEE00C94CB0605
:1012000081E090E0F8940C941509FB01DC0102C028
:1012100001900D9241505040D8F70895FB01DC0138
:1012200001900D920020E1F7089510E0CDE5D0E0A7
:1012300004C0FE010E9413072196CE35D107C9F7DD
:04124000F894FFCF50
:101244000000A202800000000000EA0154018101B4
:101254003702B2019001A40150696E200020697325
:101264002073657420746F204F55545055540A00F0
:10127400202D20506C616E7420000D0A002D205327
:10128400656E736F722076616C7565203D20002059
:1012940070696E206973205761746572696E672E78
:1012A4002E2E202D20002070696E20697320576532
:1012B4007420656E6F756768202D2000202D204DE9
:1012C4006F6973747572652050657263656E743AE4
:0E12D4002000250053657474696E673A20008F
:00000001FF
