:100000000C9463000C948B000C948B000C948B006C
:100010000C948B000C948B000C948B000C948B0034
:100020000C948B000C948B000C948B000C948B0024
:100030000C948B000C948B000C948B000C948B0014
:100040000C941E090C948B000C9489070C94630784
:100050000C948B000C948B000C948B000C948B00F4
:100060000C948B000C948B000000000023002600F1
:10007000290000000008000201000003040700003E
:1000800000000000000000000000250028002B00F8
:1000900000000000240027002A00040404040404D3
:1000A0000404020202020202030303030303010227
:1000B00004081020408001020408102001020408F6
:1000C0001020010BEA0A11241FBECFEFD8E0DEBFDB
:1000D000CDBF12E0A0E0B1E0EAEEFDE102C0059084
:1000E0000D92AA38B107D9F723E0AAE8B2E001C01F
:1000F0001D92A73FB207E1F710E0C2E6D0E004C0CE
:100100002197FE010E94E60CC136D107C9F70E9473
:100110001A0A0C94E80E0C9400000895CF92DF9216
:10012000EF92FF920F931F93CF93DF936C017A01AD
:100130008B01C0E0D0E0CE15DF0581F0D8016D91D4
:100140008D01D601ED91FC910190F081E02DC60169
:100150000995892B11F02196EECF7E01C701DF9121
:10016000CF911F910F91FF90EF90DF90CF90089566
:1001700080E090E00895FC01538D448D252F30E000
:10018000842F90E0821B930B541710F0CF960895A4
:1001900001970895FC01918D828D981761F0828DF1
:1001A000DF01A80FB11D5D968C91928D9F5F9F73AB
:1001B000928F90E008958FEF9FEF0895FC01918D4D
:1001C000828D981731F0828DE80FF11D858D90E0BA
:1001D00008958FEF9FEF0895FC01918D228D892F57
:1001E00090E0805C9F4F821B91098F73992708953F
:1001F0008AE892E00E94EC0021E0892B09F420E0DB
:10020000822F0895FC01848DDF01A80FB11DA35A30
:10021000BF4F2C91848D90E001968F739927848F26
:10022000A689B7892C93A089B1898C918370806449
:100230008C93938D848D981306C00288F389E02DEA
:1002400080818F7D80830895EF92FF920F931F939B
:10025000CF93DF93EC0181E0888F9B8D8C8D981379
:1002600005C0E889F989808185FD26C0F62E0B8DB1
:1002700010E00F5F1F4F0F731127E02E8C8DE812D7
:100280000CC00FB607FCFACFE889F989808185FF99
:10029000F5CFCE010E940201F1CF8B8DFE01E80F58
:1002A000F11DE35AFF4FF0829FB7F8940B8FEA8954
:1002B000FB89808180620AC09FB7F894EE89FF892C
:1002C0006083E889F98980818370806480839FBF1F
:1002D00081E090E0DF91CF911F910F91FF90EF901F
:1002E0000895CF93DF93EC01888D8823C9F0EA89C4
:1002F000FB89808185FD05C0A889B9898C9186FD1F
:100300000FC00FB607FCF5CF808185FFF2CFA8891B
:10031000B9898C9185FFEDCFCE010E940201E7CF14
:10032000DF91CF91089580E090E0892B29F00E9421
:10033000F80081110C94000008950E94D30E0F93D1
:100340001F93CF93DF93EC0188819981009729F067
:100350002A813B812617370788F48B016F5F7F4F17
:100360000E940D0E009761F0998388831B830A8396
:100370002C813D81232B11F4FC01108281E001C00E
:1003800080E0DF91CF911F910F910895EF92FF923E
:100390000F931F93CF93DF936115710511F480E0E4
:1003A0001CC041155105C1F07B01EC018C819D8180
:1003B0008A01080F191FB801CE010E949F018823EE
:1003C00071F3288139818C819D81B701820F931F40
:1003D0000E94E10E1D830C8381E0DF91CF911F917C
:1003E0000F91FF90EF900895CF93DF93EC018881F8
:1003F0009981009711F00E94840D198218821D8244
:100400001C821B821A82DF91CF910895EF92FF9296
:100410000F931F93CF93DF93EC017B018A01BA0105
:100420000E949F01811104C0CE010E94F40107C007
:100430001D830C83B701888199810E94E10ECE0152
:10044000DF91CF911F910F91FF90EF900895CF937F
:10045000DF93EC01FB018617970761F060817181E2
:100460006115710529F0448155810E94060202C080
:100470000E94F401CE01DF91CF910895FC01118219
:10048000108213821282158214820C942702FC01BE
:10049000808191810C94840DFC0111821082138261
:1004A0001282158214826115710551F0FB010190D1
:1004B0000020E9F73197AF01461B570B0C94060259
:1004C00008954F925F926F927F928F929F92AF9218
:1004D000BF92CF92DF92EF92FF920F931F93CF9331
:1004E000DF93CDB7DEB7C455D1090FB6F894DEBFA0
:1004F0000FBECDBF6DE372E0CE01815B9F4F0E94C6
:100500004C0207E213E084EEE82E83E0F82E912CF3
:1005100094E6C92ED12C8824839420E1A22E27E2D0
:10052000B22EF801808191819A838983828193819F
:100530009C838B83B8016C5F7F4FCE0105960E9430
:100540003E02F801828593859C878B8784859585FB
:100550009E878D8786859785988B8F8780899189DF
:100560009A8B898B828993899C8B8B8B84898D8BC9
:10057000B8016B5E7F4FCE0146960E943E026DE34E
:1005800072E0CE01C7960E944C026AE171E0CE0192
:10059000CD960E944C0264EE73E0CE014C960E9410
:1005A0003E02BE01635C7F4FCE014C960E94410823
:1005B000BC01CE01C7960E943A08CE014C960E941B
:1005C0004702CE01CD960E9447026AE171E0CE015A
:1005D000875B9F4F0E944C026CE171E0CE018D5B06
:1005E0009F4F0E944C0263E271E0CE014C960E9444
:1005F0004C02BE01645E7F4FCE01CD960E943E024A
:10060000BE016D5B7F4FCE01CD960E944108BE01B9
:10061000675B7F4F0E944108BC01CE01C7960E94D4
:100620003A08CE01CD960E944702CE014C960E9418
:100630004702CE018D5B9F4F0E944702CE01875B30
:100640009F4F0E9447026AE171E0CE01875B9F4F96
:100650000E944C0269E271E0CE018D5B9F4F0E94C7
:100660004C0265E371E0CE014C960E944C02BE0143
:10067000645E7F4FCE01CD960E943E02BE016D5B4F
:100680007F4FCE01CD960E944108BE01675B7F4F30
:100690000E944108BC01CE01C7960E943A08CE01D3
:1006A000CD960E944702CE014C960E944702CE0191
:1006B0008D5B9F4F0E944702CE01875B9F4F0E9438
:1006C00047026AE171E0CE01875B9F4F0E944C02B6
:1006D0006FE371E0CE018D5B9F4F0E944C0267E497
:1006E00071E0CE014C960E944C02BE01645E7F4FC9
:1006F000CE01CD960E943E02BE016D5B7F4FCE01C2
:10070000CD960E944108BE01675B7F4F0E94410861
:10071000BC01CE01C7960E943A08CE01CD960E9438
:100720004702CE014C960E944702CE018D5B9F4F3F
:100730000E944702CE01875B9F4F0E9447026AE1F9
:1007400071E0CE01875B9F4F0E944C02BE016A5E42
:100750007F4FCE018D5B9F4F0E943E026DE471E0A2
:10076000CE014C960E944C02BE01645E7F4FCE01CA
:10077000CD960E943E02BE016D5B7F4FCE01CD96AD
:100780000E944108BE01675B7F4F0E944108BC0187
:10079000CE01C7960E943A08CE01CD960E9447022C
:1007A000CE014C960E944702CE018D5B9F4F0E9466
:1007B0004702CE01875B9F4F0E9447026AE171E0CA
:1007C000CE01875B9F4F0E944C02BE016B5F7F4F43
:1007D000CE018D5B9F4F0E943E0269E571E0CE0124
:1007E0004C960E944C02BE01645E7F4FCE01CD96B6
:1007F0000E943E02BE016D5B7F4FCE01CD960E94EE
:100800004108BE01675B7F4F0E944108BC01CE01D9
:10081000C7960E943A08CE01CD960E944702CE01AB
:100820004C960E944702CE018D5B9F4F0E9447026B
:10083000CE01875B9F4F0E9447026AE171E0CE01C3
:10084000875B9F4F0E944C026D857E85CE018D5B3C
:100850009F4F0E94540863E671E0CE014C960E94BF
:100860004C02BE01645E7F4FCE01CD960E943E02D7
:10087000BE016D5B7F4FCE01CD960E944108BE0147
:10088000675B7F4F0E944108BC01CE01C7960E9462
:100890003A08CE01CD960E944702CE014C960E94A6
:1008A0004702CE018D5B9F4F0E944702CE01875BBE
:1008B0009F4F0E9447026AE171E0CE01875B9F4F24
:1008C0000E944C0269817A81CE018D5B9F4F0E940C
:1008D00054086EE671E0CE014C960E944C02BE01B7
:1008E000645E7F4FCE01CD960E943E02BE016D5BDD
:1008F0007F4FCE01CD960E944108BE01675B7F4FBE
:100900000E944108BC01CE01C7960E943A08CE0160
:10091000CD960E944702CE014C960E944702CE011E
:100920008D5B9F4F0E944702CE01875B9F4F0E94C5
:1009300047026AE171E0CE01875B9F4F0E944C0243
:100940006B857C85CE018D5B9F4F0E94540868E7C4
:1009500071E0CE014C960E944C02BE01645E7F4F56
:10096000CE01CD960E943E02BE016D5B7F4FCE014F
:10097000CD960E944108BE01675B7F4F0E944108EF
:10098000BC01CE01C7960E943A08CE01CD960E94C6
:100990004702CE014C960E944702CE018D5B9F4FCD
:1009A0000E944702CE01875B9F4F0E9447026AE187
:1009B00071E0CE01875B9F4F0E944C026B897C895E
:1009C000CE018D5B9F4F0E9454086AE871E0CE0112
:1009D0004C960E944C02BE01645E7F4FCE01CD96C4
:1009E0000E943E02BE016D5B7F4FCE01CD960E94FC
:1009F0004108BE01675B7F4F0E944108BC01CE01E8
:100A0000C7960E943A08CE01CD960E944702CE01B9
:100A10004C960E944702CE018D5B9F4F0E94470279
:100A2000CE01875B9F4F0E9447026AE171E0CE01D1
:100A3000875B9F4F0E944C026F857889CE018D5B4A
:100A40009F4F0E9454086BE971E0CE014C960E94C2
:100A50004C02BE01645E7F4FCE01CD960E943E02E5
:100A6000BE016D5B7F4FCE01CD960E944108BE0155
:100A7000675B7F4F0E944108BC01CE01C7960E9470
:100A80003A08CE01CD960E944702CE014C960E94B4
:100A90004702CE018D5B9F4F0E944702CE01875BCC
:100AA0009F4F0E9447026AE171E0CE01875B9F4F32
:100AB0000E944C0269897A89CE018D5B9F4F0E940A
:100AC00054086DEA71E0CE014C960E944C02BE01C2
:100AD000645E7F4FCE01CD960E943E02BE016D5BEB
:100AE0007F4FCE01CD960E944108BE01675B7F4FCC
:100AF0000E944108BC01CE01C7960E943A08CE016F
:100B0000CD960E944702CE014C960E944702CE012C
:100B10008D5B9F4F0E944702CE01875B9F4F0E94D3
:100B2000470289819A819D8F8C8F8B819C819F8FB9
:100B30008E8FBE016B5F7F4FCE0180960E943E027A
:100B40008B859C859FA38EA38D859E8599A788A75D
:100B50008F8598899BA78AA789899A899DA78CA741
:100B60008B899C899FA78EA78D8988ABBE016A5E01
:100B70007F4FCE01C1960E943E0289818E3008F0DF
:100B80008E508770806480937C0080917A008064AE
:100B900080937A0080917A0086FDFCCF20917800C6
:100BA000809179004AA45BA4052C000C66087708A4
:100BB00030E0382BC901330FAA0BBB0B9C01AD01F0
:100BC0002419350946095709A4E6B0E00E94730CC0
:100BD0002CA53DA5032E000C440B550B24193509FB
:100BE000460957090E94540C3C832B83CE01C196C1
:100BF0000E944702CE0180960E9447026AE171E09E
:100C0000CE01875B9F4F0E944C026B817C81CE019D
:100C10008D5B9F4F0E94540860EC71E0CE014C96B2
:100C20000E944C02BE01645E7F4FCE01CD960E94B1
:100C30003E02BE016D5B7F4FCE01CD960E94410802
:100C4000BE01675B7F4F0E944108BC01CE01C79681
:100C50000E943A08CE01CD960E944702CE014C96E2
:100C60000E944702CE018D5B9F4F0E944702CE013A
:100C7000875B9F4F0E9447022B813C818B899C8917
:100C800028173907E4F48D8AD0920101C09200013F
:100C900060E08D850E94B50860ED71E0CE014C9654
:100CA0000E944C02BE01645E7F4FCE01C7960E9437
:100CB0003A08CE014C960E944702992493948B8166
:100CC0009C812B893C8982179307ECF02B853C850E
:100CD00028173907C4F08D89811104C061E08D8522
:100CE0000E94B50863EE71E0CE014C960E944C0262
:100CF000BE01645E7F4FCE01C7960E943A08CE01C6
:100D00004C960E9447022B813C818B859C858217E3
:100D10009307D4F41D8AB0920101A092000161E012
:100D20008D850E94B50860ED71E0CE014C960E9461
:100D30004C02BE01645E7F4FCE01C7960E943A0806
:100D4000CE014C960E9447028D850E948C0881112D
:100D500003C065EF71E002C066E072E0CE014C9620
:100D60000E944C02BE01645E7F4FCE01C7960E9476
:100D70003A08CE014C960E9447028CE00E948C08F3
:100D8000811103C068E172E002C06AE272E0CE0144
:100D90008D5B9F4F0E944C026AE171E0CE014C9640
:100DA0000E944C02BE01645E7F4FCE01CD960E9430
:100DB0003E02BE016D5B7F4FCE01CD960E94410881
:100DC000BC01CE01C7960E943A08CE01CD960E9482
:100DD0004702CE014C960E944702CE018D5B9F4F89
:100DE0000E9447024BAD5CAD6FA978AD8AE892E0F6
:100DF0000E948E008BE392E00E9428086EE372E06E
:100E0000CE014C960E944C02BE01645E7F4FCE0123
:100E1000C7960E943A08CE014C960E944702BE0136
:100E2000695C7F4FCE014C960E943E02BE01645E1B
:100E30007F4FCE01815B9F4F0E943A08CE014C96B6
:100E40000E944702CE01C7960E944702CE014696F5
:100E50000E944702CE0105960E944702055E1F4F81
:100E6000E016F10609F05DCB992011F061E001C0B8
:100E700060E08CE00E94B508609100017091010172
:100E8000072E000C880B990B0E94E408CE01815BB1
:100E90009F4F0E944702CC5ADF4F0FB6F894DEBF37
:100EA0000FBECDBFDF91CF911F910F91FF90EF90BB
:100EB000DF90CF90BF90AF909F908F907F906F907A
:100EC0005F904F9008951F920F920FB60F921124CA
:100ED0002F933F934F935F936F937F938F939F9342
:100EE000AF93BF93EF93FF938AE892E00E940201D1
:100EF000FF91EF91BF91AF919F918F917F916F91F2
:100F00005F914F913F912F910F900FBE0F901F90C7
:100F100018951F920F920FB60F9211242F938F9353
:100F20009F93EF93FF93E0919A02F0919B0280814F
:100F3000E091A002F091A10282FD12C09081809107
:100F4000A3028F5F8F732091A402821751F0E0916A
:100F5000A302F0E0E657FD4F958F8093A30201C0F6
:100F60008081FF91EF919F918F912F910F900FBEF4
:100F70000F901F901895833081F028F4813099F0FC
:100F80008230A1F008958730A9F08830B9F084301C
:100F9000D1F4809180008F7D03C0809180008F7795
:100FA00080938000089584B58F7702C084B58F7DCB
:100FB00084BD08958091B0008F7703C08091B00008
:100FC0008F7D8093B00008953FB7F8948091EF0330
:100FD0009091F003A091F103B091F20326B5A89B84
:100FE00005C02F3F19F00196A11DB11D3FBFBA2FBB
:100FF000A92F982F8827820F911DA11DB11DBC011B
:10100000CD0142E0660F771F881F991F4A95D1F7DF
:10101000089590E0FC01E255FF4F2491FC01E65653
:10102000FF4F8491882399F090E0880F991FFC016D
:10103000E057FF4FA591B491FC01EA57FF4F85910E
:1010400094918FB7F894EC91E22BEC938FBF0895B5
:10105000009769F0FC0101900020E9F73197AF019A
:10106000481B590BBC018AE892E00C948E0080E08A
:1010700090E00895FB0144815581608171810C9459
:10108000C601CF93DF93EC01FB0144815581608160
:1010900071810E94C601811103C0CE010E94F4013A
:1010A000CE01DF91CF910895EF92FF920F931F939E
:1010B000CF93DF93CDB7DEB762970FB6F894DEBF5C
:1010C0000FBECDBF8C01CB01F801118210821382BB
:1010D0001282158214824AE09E012F5F3F4F7901F0
:1010E000B9010E941F0CF70101900020E9F7319728
:1010F000AF014E195F09B701C8010E94060262964E
:101100000FB6F894DEBF0FBECDBFDF91CF911F9118
:101110000F91FF90EF900895CF93DF93282F30E049
:10112000F901EE58FF4F8491F901E255FF4FD49138
:10113000F901E656FF4FC491CC2391F081110E9432
:10114000BB07EC2FF0E0EE0FFF1FE859FF4FA59112
:10115000B491EC91ED2381E090E021F480E002C0B5
:1011600080E090E0DF91CF9108951F93CF93DF93BC
:10117000282F30E0F901EE58FF4F8491F901E25534
:10118000FF4FD491F901E656FF4FC491CC23C1F033
:10119000162F81110E94BB07EC2FF0E0EE0FFF1F0E
:1011A000EA57FF4FA591B4919FB7F894111104C06D
:1011B0008C91D095D82302C0EC91DE2BDC939FBF9D
:1011C000DF91CF911F9108958F929F92AF92BF921E
:1011D000CF92DF92EF92FF926B017C010E94E407B5
:1011E0004B015C01C114D104E104F104F1F00E944F
:1011F000E407DC01CB0188199909AA09BB09883EDB
:101200009340A105B10570F321E0C21AD108E108AD
:10121000F10888EE880E83E0981EA11CB11CC11451
:10122000D104E104F10419F7DDCFFF90EF90DF90D6
:10123000CF90BF90AF909F908F9008951F920F9284
:101240000FB60F9211242F933F938F939F93AF93D9
:10125000BF938091EB039091EC03A091ED03B091CB
:10126000EE033091EA0323E0230F2D3720F401969B
:10127000A11DB11D05C026E8230F0296A11DB11DB9
:101280002093EA038093EB039093EC03A093ED0388
:10129000B093EE038091EF039091F003A091F103DE
:1012A000B091F2030196A11DB11D8093EF039093BD
:1012B000F003A093F103B093F203BF91AF919F911C
:1012C0008F913F912F910F900FBE0F901F90189507
:1012D0002F923F924F925F926F927F928F929F9246
:1012E000AF92BF92CF92DF92EF92FF920F931F9334
:1012F000CF93DF93CDB7DEB72D970FB6F894DEBF4F
:101300000FBECDBF3C012B0149873B872A871D8734
:101310000C8717017C0184E0E80EF11C6DE372E09C
:10132000C7010E944C0283010B5E1F4F6DE372E008
:10133000C8010E944C02F301518240821382128242
:101340001A8219821C821B821E821D82F985FF83EC
:101350001886BE01695F7F4FFB0101900020E9F70D
:101360003197AF01461B570BCE0101962C010E940D
:1013700006024E145F0471F1F30184819581009798
:10138000B1F069817A816115710579F046815781E3
:101390002D813E814217530740F00E94E10E8D815E
:1013A0009E81F3019187808713C00E94840D8981FB
:1013B0009A81F301958384838B819C8197838683B3
:1013C0008D819E81918780871A8219821C821B825F
:1013D0001E821D82C2010E9447028A859B85F301FD
:1013E000938782878C859D85958784873786268617
:1013F000D18AC08AB38AA28A148AB401C8010E9421
:1014000027022D960FB6F894DEBF0FBECDBFDF9139
:10141000CF911F910F91FF90EF90DF90CF90BF90F1
:10142000AF909F908F907F906F905F904F903F9084
:101430002F900895CF93DF93CDB7DEB7A1970FB666
:10144000F894DEBF0FBECDBF789484B5826084BDB2
:1014500084B5816084BD85B5826085BD85B58160B8
:1014600085BD80916E00816080936E001092810036
:1014700080918100826080938100809181008160F1
:1014800080938100809180008160809380008091B2
:10149000B10084608093B1008091B000816080933E
:1014A000B00080917A00846080937A0080917A0005
:1014B000826080937A0080917A00816080937A00C4
:1014C00080917A00806880937A001092C100E09148
:1014D0009A02F0919B0282E08083E0919602F09163
:1014E00097021082E0919802F09199028FEC80832C
:1014F0001092A202E0919E02F0919F0286E080830A
:10150000E0919C02F0919D02808180618083E09156
:101510009C02F0919D02808188608083E0919C0212
:10152000F0919D02808180688083E0919C02F0911F
:101530009D0280818F7D808382E0C82ED12CE12C9A
:10154000F12C9AE0892E912CA12CB12C81E492E00F
:101550000E94280819A2A70196018E010F5D1F4F56
:10156000CA01B901A50194010E94B50C605DF801A2
:1015700062938F01211531054105510589F7CF018E
:101580000E9428088C2D0E94090886E492E00E949F
:10159000280864EF71E080E090E00E94E408FFEF2B
:1015A000CF1ADF0AEF0AFF0A8AE0C816D104E10465
:1015B000F10461F68CE00E940908E1E7F3E0108293
:1015C0007B9684E0E934F807D1F70E9461020E941B
:1015D0009301FBCFCF93DF93C4EED3E06B97CE01A3
:1015E00045960E944702CE0104960E94470283E07E
:1015F000C732D80799F784EE93E0DF91CF910C942E
:1016000047028F929F92AF92BF92CF92DF92EF925A
:10161000FF920F931F93CF93DF9300D000D000D0A1
:10162000CDB7DEB7EAE8F2E01382128288EE93E0EB
:10163000A0E0B0E084839583A683B7838CE091E03B
:101640009183808385EC90E09587848784EC90E09B
:101650009787868780EC90E0918B808B81EC90E07F
:10166000938B828B82EC90E0958B848B86EC90E060
:10167000978B868B118E128E138E148E69E572E015
:1016800084EE93E00E944C0261E672E0CE01019686
:101690000E944C02CE0101964C0188E2A82EB12C8A
:1016A00093E4C92EDD24D3942EE6E22E22E0F22E1E
:1016B00002E010E026E430E041E36EE070E087E213
:1016C00093E00E946809C4010E94470261E672E04B
:1016D000C4010E944C0230E8E32E32E0F32E03E016
:1016E00010E026E430E042E36FE070E082E493E053
:1016F0000E946809C4010E94470261E672E0C401C9
:101700000E944C024EE6E42E42E0F42E04E010E08B
:1017100026E430E043E360E170E08DE593E00E9471
:101720006809C4010E94470269E672E0C4010E9490
:101730004C025CE3A52EB12C63E5C62EDD24D394C8
:1017400078E9E72E72E0F72E05E010E02AE530E0B8
:1017500044E361E170E088E793E00E946809C40116
:101760000E94470261E772E0C4010E944C02E8E275
:10177000AE2EB12CF6E5CF2EDD24D394A0EAEA2ECE
:10178000A2E0FA2E06E010E026E430E045E362E154
:1017900070E083E993E00E946809C4010E94470257
:1017A00068E772E0C4010E944C02BEE1AB2EB12C8E
:1017B00014E7C12EDD24D3940CEBE02E02E0F02ED2
:1017C00007E010E02CE330E046E363E170E08EEAEE
:1017D00093E00E946809C4010E9447026FE772E02B
:1017E000C4010E944C0288E2A82EB12C9FE1C92EB0
:1017F000DD24D39425E5E22E22E0F22E08E010E06D
:1018000026E430E047E364E170E089EC93E00E9475
:101810006809C4010E94470226960FB6F894DEBFFD
:101820000FBECDBFDF91CF911F910F91FF90EF9031
:10183000DF90CF90BF90AF909F908F900895BB277F
:101840004A3031F4992322F4BDE2909581959F4F5F
:101850000C942B0CBB27FB015527AA27880F991F37
:10186000AA1FA41710F0A41B83955051B9F7A05DCF
:10187000AA3308F0A95DA193009779F7B111B1934C
:101880001192CB010C94440CDC01FC01672F719187
:101890007723E1F7329704C07C916D937083629156
:1018A000AE17BF07C8F30895052E97FB1EF40094EA
:1018B0000E946B0C57FD07D00E94B50C07FC03D0AB
:1018C0004EF40C946B0C50954095309521953F4FFC
:1018D0004F4F5F4F089590958095709561957F4F1C
:1018E0008F4F9F4F08950E94D70CA59F900DB49FD6
:1018F000900DA49F800D911D112408952F923F9269
:101900004F925F926F927F928F929F92AF92BF920F
:10191000CF92DF92EF92FF920F931F93CF93DF93BB
:10192000CDB7DEB7CA1BDB0B0FB6F894DEBF0FBE18
:10193000CDBF09942A88398848885F846E847D8465
:101940008C849B84AA84B984C884DF80EE80FD8067
:101950000C811B81AA81B981CE0FD11D0FB6F894DD
:10196000DEBF0FBECDBFED010895A1E21A2EAA1B66
:10197000BB1BFD010DC0AA1FBB1FEE1FFF1FA2173F
:10198000B307E407F50720F0A21BB30BE40BF50B3C
:10199000661F771F881F991F1A9469F760957095C5
:1019A000809590959B01AC01BD01CF010895A29F48
:1019B000B001B39FC001A39F700D811D1124911D23
:1019C000B29F700D811D1124911D0895EE0FFF1F10
:1019D0000590F491E02D09940F931F93CF93DF931B
:1019E0008230910510F482E090E0E091F503F091EF
:1019F000F60320E030E0A0E0B0E0309719F140813C
:101A000051810281138148175907C8F0841795073F
:101A100069F4109731F012960C93129713961C9359
:101A200027C00093F5031093F60322C0211531055A
:101A300019F04217530718F49A01BD01EF01DF01B5
:101A4000F801DBCF21153105F9F0281B390B2430C3
:101A5000310580F48A819B816115710521F0FB01BC
:101A60009383828304C09093F6038093F503FE0171
:101A7000329644C0FE01E20FF31F819391932250EE
:101A80003109398328833AC02091F3033091F4035C
:101A9000232B41F420910401309105013093F4038C
:101AA0002093F303209102013091030121153105A8
:101AB00041F42DB73EB74091060150910701241B18
:101AC000350BE091F303F091F403E217F307A0F470
:101AD0002E1B3F0B2817390778F0AC014E5F5F4F84
:101AE0002417350748F04E0F5F1F5093F4034093BF
:101AF000F3038193919302C0E0E0F0E0CF01DF9126
:101B0000CF911F910F910895CF93DF93009709F420
:101B100081C0FC01329713821282A091F503B0912B
:101B2000F603109781F420813181820F931F209159
:101B3000F3033091F4032817390751F5F093F403B8
:101B4000E093F30367C0ED0120E030E0CE17DF073C
:101B500040F44A815B819E0141155105F1F0EA0193
:101B6000F5CFD383C28340815181840F951FC8175D
:101B7000D90759F488819981840F951F0296918322
:101B800080838A819B81938382832115310529F487
:101B9000F093F603E093F5033DC0E901FB83EA838C
:101BA00049915991C40FD51FEC17FD0761F480814D
:101BB0009181840F951F0296E90199838883828120
:101BC00093819B838A83E0E0F0E012968D919C9153
:101BD0001397009719F0FD01DC01F7CF8D919C91CF
:101BE00011979D012E5F3F4F820F931F2091F303AA
:101BF0003091F4032817390769F4309729F41092CB
:101C0000F6031092F50302C013821282B093F4031C
:101C1000A093F303DF91CF910895A0E0B0E0E3E15A
:101C2000FEE00C94820CEC01009721F4CB010E94A1
:101C3000EC0CB4C0FC01E60FF71F9C0122503109E7
:101C4000E217F30708F4A8C0D9010D911C91119770
:101C500006171707B0F00530110508F49BC0C8013E
:101C600004978617970708F495C002501109061BC0
:101C7000170B019311936D937C93CF010E94840DF8
:101C800089C05B01A01AB10A4C01800E911EA0917F
:101C9000F503B091F603612C712CE12CF12C109717
:101CA00009F446C08D919C911197A815B905B1F51D
:101CB0006C0142E0C40ED11CCA14DB0478F14C0163
:101CC0008A189B08640142E0C40ED11C1296BC9095
:101CD00012971396AC91B5E0CB16D10440F0B282C6
:101CE000A38391828082D9016D937C9309C00E5F9A
:101CF0001F4F800F911FF90191838083EB2DFA2FE5
:101D0000E114F10431F0D7011396FC93EE9312978E
:101D100041C0F093F603E093F5033CC068167906E2
:101D200008F43C017D0112960D90BC91A02DB7CF17
:101D30008091F3039091F40388169906E1F46616F6
:101D40007706C8F48091020190910301009741F455
:101D50008DB79EB74091060150910701841B950BEA
:101D6000E817F907C8F4F093F403E093F303F901DB
:101D7000718360830FC0CB010E94EC0C7C01009743
:101D800059F0A801BE010E94D80ECE010E94840D18
:101D9000C70104C0CE0102C080E090E0CDB7DEB73D
:101DA000EEE00C949E0C81E090E0F8940C94E80E28
:101DB000FB01DC0102C001900D9241505040D8F768
:101DC0000895FB01DC0101900D920020E1F70895D8
:101DD00010E0C2E6D0E004C0FE010E94E60C2196AD
:0A1DE000C336D107C9F7F894FFCF0E
:101DEA0010270000F70380000000000024018E0085
:101DFA00BB007101EC00CA00DE002C004265726C67
:101E0A00696E00636974793D006F646572737472F8
:101E1A0061737365006C6F636174696F6E3D006115
:101E2A006E647265777300726F6F6D3D00706C61DE
:101E3A006E745F747970653D00706C616E745F6971
:101E4A00643D00736572766F5F70696E3D007265FE
:101E5A0061645F70696E3D006D6F695F736574746C
:101E6A00696E675F686967683D006D6F695F736572
:101E7A007474696E675F6C6F773D0073656E736F1C
:101E8A00725F6C6F775F76616C75653D0073656E26
:101E9A00736F725F686967685F76616C75653D002C
:101EAA006D6F6973747572655F6C6576656C3D00FC
:101EBA00696E5F646561645F7A6F6E653D66616CC9
:101ECA00736500696E5F646561645F7A6F6E653D14
:101EDA0074727565002C736572766F5F6F70656ECC
:101EEA003D74727565002C736572766F5F6F7065ED
:101EFA006E3D66616C73650070756D705F737461B9
:101F0A007475733D66616C73650070756D705F738F
:101F1A0074617475733D74727565000D0A00262626
:101F2A000050696E20002069732073657420746FF5
:101F3A00204F55545055540A00706C6E747379735F
:101F4A0000556E6B6E6F776E00566172696F7573AE
:101F5A0000426F6E73616900436163747573005068
:0A1F6A0065616365206C696C790005
:107800000C94343C0C94513C0C94513C0C94513CE1
:107810000C94513C0C94513C0C94513C0C94513CB4
:107820000C94513C0C94513C0C94513C0C94513CA4
:107830000C94513C0C94513C0C94513C0C94513C94
:107840000C94513C0C94513C0C94513C0C94513C84
:107850000C94513C0C94513C0C94513C0C94513C74
:107860000C94513C0C94513C11241FBECFEFD8E036
:10787000DEBFCDBF11E0A0E0B1E0ECE9FFE702C060
:1078800005900D92A230B107D9F712E0A2E0B1E065
:1078900001C01D92AD30B107E1F70E942D3D0C945F
:1078A000CC3F0C94003C982F959595959595959582
:1078B000905D8F708A307CF0282F295A8091C0000B
:1078C00085FFFCCF9093C6008091C00085FFFCCF60
:1078D0002093C6000895282F205DF0CF982F809127
:1078E000C00085FFFCCF9093C6000895EF92FF92F1
:1078F0000F931F93EE24FF2487018091C00087FD22
:1079000017C00894E11CF11C011D111D81E4E8164B
:1079100082E4F8068FE0080780E0180770F3E09132
:107920000401F091050109958091C00087FFE9CF1E
:107930008091C6001F910F91FF90EF9008950E94D3
:10794000763C982F8091C00085FFFCCF9093C600B5
:1079500091362CF490330CF09053892F089597555D
:10796000892F08951F930E949F3C182F0E949F3CCF
:107970001295107F810F1F9108951F93182F882350
:1079800021F00E94763C1150E1F71F9108951F935A
:10799000182F0E94763C803249F0809103018F5F5E
:1079A000809303018530C1F01F9108958091C0003C
:1079B00085FFFCCF84E18093C6008091C00085FFE5
:1079C000FCCF1093C6008091C00085FFFCCF80E102
:1079D0008093C6001F910895E0910401F091050184
:1079E00009951F9108950E94763C803241F0809164
:1079F00003018F5F80930301853081F008958091AA
:107A0000C00085FFFCCF84E18093C6008091C00058
:107A100085FFFCCF80E18093C6000895E0910401CA
:107A2000F09105010995089540E951E08823A1F0FE
:107A30002D9A28EE33E0FA013197F1F721503040CA
:107A4000D1F72D9828EE33E0FA013197F1F7215064
:107A50003040D1F7815061F708953F924F925F9285
:107A60006F927F928F929F92AF92BF92CF92DF924E
:107A7000EF92FF920F931F93CF93DF93000080E16B
:107A80008093C4001092C50088E18093C10086E015
:107A90008093C2005098589A259A81E00E94143D24
:107AA00024E1F22E9EE1E92E85E9D82E0FE0C02ECA
:107AB00010E1B12EAA24A394B1E49B2EA6E58A2E50
:107AC000F2E57F2EE0E26E2E79E4572E63E5462E36
:107AD00050E5352E0E94763C8033B1F18133B9F107
:107AE000803409F46FC0813409F476C0823409F41B
:107AF00085C0853409F488C0803531F1823521F1A3
:107B0000813511F1853509F485C0863509F48DC0BC
:107B1000843609F496C0843709F403C1853709F423
:107B200072C1863709F466C0809103018F5F80932C
:107B30000301853079F6E0910401F0910501099582
:107B40000E94763C803351F60E94F33CC3CF0E94E2
:107B5000763C803249F78091C00085FFFCCFF092DF
:107B6000C6008091C00085FFFCCF9092C600809136
:107B7000C00085FFFCCF8092C6008091C00085FFC9
:107B8000FCCF7092C6008091C00085FFFCCF609250
:107B9000C6008091C00085FFFCCF5092C600809146
:107BA000C00085FFFCCF4092C6008091C00085FFD9
:107BB000FCCF3092C6008091C00085FFFCCFB09210
:107BC000C60088CF0E94763C863808F4BDCF0E945C
:107BD000763C0E94F33C7ECF0E94763C803809F4CC
:107BE0009CC0813809F40BC1823809F43CC1883942
:107BF00009F48FC080E00E94C73C6CCF84E10E94F2
:107C0000BD3C0E94F33C66CF85E00E94BD3C0E94D3
:107C1000F33C60CF0E94763C809306010E94763C44
:107C2000809307010E94F33C55CF0E94763C80333D
:107C300009F41DC183E00E94BD3C80E00E94C73C66
:107C400049CF0E94763C809309020E94763C809343
:107C5000080280910C028E7F80930C020E94763C79
:107C6000853409F415C18091080290910902892B8D
:107C700089F000E010E00E94763CF801E85FFE4FDA
:107C800080830F5F1F4F80910802909109020817AF
:107C9000190788F30E94763C803209F045CF809125
:107CA0000C0280FF01C16091060170910701660F0F
:107CB000771F7093070160930601A0910802B091AD
:107CC00009021097C9F0E8E0F1E09B01AD014E0F09
:107CD0005F1FF999FECF32BD21BD819180BDFA9A17
:107CE000F99A2F5F3F4FE417F50799F76A0F7B1F4B
:107CF00070930701609306018091C00085FFFCCF5F
:107D0000F092C6008091C00085FFFCCFB092C60003
:107D1000E1CE83E00E94C73CDDCE82E00E94C73CFA
:107D2000D9CE0E94763C809309020E94763C8093D3
:107D300008028091060190910701880F991F909386
:107D40000701809306010E94763C853409F4A6C0A1
:107D500080910C028E7F80930C020E94763C8032D0
:107D600009F0B8CE8091C00085FFFCCFF092C6002C
:107D7000609108027091090261157105B9F140E046
:107D800050E080910C02A82FA170B82FB27011C0E2
:107D9000BB2309F45CC0E0910601F0910701319624
:107DA000F0930701E09306014F5F5F4F46175707B7
:107DB000E8F4AA2369F3F999FECF209106013091E6
:107DC000070132BD21BDF89A90B58091C00085FFB2
:107DD000FCCF9093C6002F5F3F4F30930701209355
:107DE00006014F5F5F4F4617570718F38091C00099
:107DF00085FDE5CE8091C00085FFF8CFE0CE81E023
:107E00000E94C73C67CE0E94763C803209F08CCE3F
:107E10008091C00085FFFCCFF092C6008091C00029
:107E200085FFFCCFE092C6008091C00085FFFCCFAB
:107E3000D092C6008091C00085FFFCCFC092C600E2
:107E40008091C00085FFFCCFB092C60043CEE09188
:107E50000601F091070194918091C00085FFFCCF4D
:107E60009093C6009CCF80E10E94C73C33CE0E9415
:107E7000763C0E94763C182F0E94763C112309F430
:107E800083C0113009F484C08FE00E94C73C22CE29
:107E900080910C02816080930C02E5CE80910C02EF
:107EA000816080930C0259CF809107018823880F4D
:107EB000880B8A2180930B02809106019091070123
:107EC000880F991F90930701809306018091080203
:107ED00080FF09C080910802909109020196909359
:107EE000090280930802F894F999FECF1127E091D6
:107EF0000601F0910701C8E0D1E08091080290915D
:107F00000902103091F40091570001700130D9F34B
:107F100003E000935700E89500915700017001308D
:107F2000D9F301E100935700E89509901990009169
:107F3000570001700130D9F301E000935700E89534
:107F40001395103498F011270091570001700130FB
:107F5000D9F305E000935700E895009157000170B0
:107F60000130D9F301E100935700E895329602976A
:107F700009F0C7CF103011F00296E5CF112480919F
:107F8000C00085FFB9CEBCCE8EE10E94C73CA2CD19
:0C7F900085E90E94C73C9ECDF894FFCF0D
:027F9C00800063
:040000030000780081
:00000001FF
