:100000000C9462000C948A000C948A000C948A0070
:100010000C948A000C948A000C948A000C948A0038
:100020000C948A000C948A000C948A000C948A0028
:100030000C948A000C948A000C948A000C948A0018
:100040000C944B030C948A000C94BB030C94950302
:100050000C948A000C948A000C948A000C948A00F8
:100060000C948A000C948A000000000023002600F3
:10007000290000000008000201000003040700003E
:1000800000000000000000000000250028002B00F8
:1000900000000000240027002A00040404040404D3
:1000A0000404020202020202030303030303010227
:1000B00004081020408001020408102001020408F6
:1000C0001020ED0311241FBECFEFD8E0DEBFCDBF5F
:1000D00012E0A0E0B1E0E6EBFEE002C005900D9278
:1000E000A238B107D9F723E0A2E8B2E001C01D921F
:1000F000A63AB207E1F710E0C2E6D0E004C02197CB
:10010000FE010E944E07C136D107C9F70E942A0599
:100110000C9459070C94000090E0FC01E255FF4F4D
:100120002491FC01E656FF4F8491882399F090E0DA
:10013000880F991FFC01E057FF4FA591B491FC0176
:10014000EA57FF4F859194918FB7F894EC91E22B89
:10015000EC938FBF0895833081F028F4813099F0BB
:100160008230A1F008958730A9F08830B9F084304A
:10017000D1F4809180008F7D03C0809180008F77C3
:1001800080938000089584B58F7702C084B58F7DF9
:1001900084BD08958091B0008F7703C08091B00036
:1001A0008F7D8093B0000895CF93DF93282F30E0A8
:1001B000F901EE58FF4F8491F901E255FF4FD491B8
:1001C000F901E656FF4FC491CC2391F081110E94B2
:1001D000AB00EC2FF0E0EE0FFF1FE859FF4FA591A9
:1001E000B491EC91ED2381E090E021F480E002C035
:1001F00080E090E0DF91CF9108951F93CF93DF933C
:10020000282F30E0F901EE58FF4F8491F901E255B3
:10021000FF4FD491F901E656FF4FC491CC23C1F0B2
:10022000162F81110E94AB00EC2FF0E0EE0FFF1FA4
:10023000EA57FF4FA591B4919FB7F894111104C0EC
:100240008C91D095D82302C0EC91DE2BDC939FBF1C
:10025000DF91CF911F9108958E3008F08E508770F6
:10026000806480937C0080917A00806480937A001F
:1002700080917A0086FDFCCF8091780020917900F2
:1002800090E0922B08953FB7F89480918702909167
:100290008802A0918902B0918A0226B5A89B05C068
:1002A0002F3F19F00196A11DB11D3FBFBA2FA92FF5
:1002B000982F8827820F911DA11DB11DBC01CD0172
:1002C00042E0660F771F881F991F4A95D1F708955E
:1002D0008F929F92AF92BF92CF92DF92EF92FF9256
:1002E0006B017C010E9443014B015C01C114D104EC
:1002F000E104F104F1F00E944301DC01CB01881913
:100300009909AA09BB09883E9340A105B10570F37C
:1003100021E0C21AD108E108F10888EE880E83E0D6
:10032000981EA11CB11CC114D104E104F10419F7F9
:10033000DDCFFF90EF90DF90CF90BF90AF909F9078
:100340008F900895CF92DF92EF92FF920F931F93B9
:10035000CF93DF936C017A018B01C0E0D0E0CE1522
:10036000DF0581F0D8016D918D01D601ED91FC91F1
:100370000190F081E02DC6010995892B11F021969D
:10038000EECF7E01C701DF91CF911F910F91FF90BA
:10039000EF90DF90CF900895089580E090E0089569
:1003A000FC01538D448D252F30E0842F90E0821B7B
:1003B000930B541710F0CF96089501970895FC0100
:1003C000918D828D981761F0828DDF01A80FB11D8C
:1003D0005D968C91928D9F5F9F73928F90E00895B0
:1003E0008FEF9FEF0895FC01918D828D981731F06A
:1003F000828DE80FF11D858D90E008958FEF9FEFBE
:100400000895FC01918D228D892F90E0805C9F4F93
:10041000821B91098F73992708958BE892E00E94BF
:10042000010221E0892B09F420E0822F0895FC01CC
:10043000848DDF01A80FB11DA35ABF4F2C91848D6D
:1004400090E001968F739927848FA689B7892C93A2
:10045000A089B1898C91837080648C93938D848DF5
:10046000981306C00288F389E02D80818F7D8083F8
:100470000895EF92FF920F931F93CF93DF93EC01B8
:1004800081E0888F9B8D8C8D981305C0E889F98950
:10049000808185FD26C0F62E0B8D10E00F5F1F4F6B
:1004A0000F731127E02E8C8DE8120CC00FB607FCDD
:1004B000FACFE889F989808185FFF5CFCE010E94C6
:1004C0001702F1CF8B8DFE01E80FF11DE35AFF4FAC
:1004D000F0829FB7F8940B8FEA89FB898081806254
:1004E0000AC09FB7F894EE89FF896083E889F9898B
:1004F00080818370806480839FBF81E090E0DF9182
:10050000CF911F910F91FF90EF900895CF93DF93BC
:10051000EC01888D8823C9F0EA89FB89808185FDFB
:1005200005C0A889B9898C9186FD0FC00FB607FC5C
:10053000F5CF808185FFF2CFA889B9898C9185FF9D
:10054000EDCFCE010E941702E7CFDF91CF91089542
:1005500080E090E0892B29F00E940D0281110C941B
:1005600000000895009769F0FC0101900020E9F770
:100570003197AF01481B590BBC018BE892E00C94FA
:10058000A20180E090E00895CF93DF930E94B20231
:10059000EC0182E191E00E94B2028C0F9D1FDF917D
:1005A000CF9108950C94B2028F929F92AF92BF9216
:1005B000CF92DF92EF92FF920F931F93CF93DF932F
:1005C000CDB7DEB7A1970FB6F894DEBF0FBECDBF93
:1005D0006C01990FEE08FF08F7FE2BC06DE28BE867
:1005E00092E00E9439028C0122273327A9012C199D
:1005F0003D094E095F0919A2CE0181967C019AE05E
:10060000892E912CA12CB12CCA01B901A50194010C
:100610000E941D07605DF70162937F01211531057E
:100620004105510589F7CF010E94B202800F911F49
:100630001DC0A701960119A28E010F5D1F4F8AE010
:10064000C82ED12CE12CF12CCA01B901A7019601C9
:100650000E941D07605DF80162938F01211531052D
:100660004105510589F7CF010E94B202A1960FB64C
:10067000F894DEBF0FBECDBFDF91CF911F910F91D8
:10068000FF90EF90DF90CF90BF90AF909F908F90B2
:1006900008950E9454071F920F920FB60F921124D3
:1006A0002F933F938F939F93AF93BF938091830238
:1006B00090918402A0918502B091860230918202CD
:1006C00023E0230F2D3720F40196A11DB11D05C095
:1006D00026E8230F0296A11DB11D2093820280936C
:1006E000830290938402A0938502B0938602809146
:1006F000870290918802A0918902B0918A020196A6
:10070000A11DB11D8093870290938802A093890256
:10071000B0938A02BF91AF919F918F913F912F919A
:100720000F900FBE0F901F9018951F920F920FB64B
:100730000F9211242F933F934F935F936F937F9367
:100740008F939F93AF93BF93EF93FF938BE892E0C8
:100750000E941702FF91EF91BF91AF919F918F91EE
:100760007F916F915F914F913F912F910F900FBEAD
:100770000F901F9018951F920F920FB60F92112491
:100780002F938F939F93EF93FF93E0919B02F091B0
:100790009C028081E091A102F091A20282FD12C030
:1007A00090818091A4028F5F8F732091A5028217A0
:1007B00051F0E091A402F0E0E557FD4F958F809352
:1007C000A40201C08081FF91EF919F918F912F91A1
:1007D0000F900FBE0F901F901895CF93DF93EBE80B
:1007E000F2E01382128288EE93E0A0E0B0E084830E
:1007F0009583A683B78384E091E09183808385EC21
:1008000090E09587848784EC90E09787868780ECDA
:1008100090E0918B808B81EC90E0938B828B82ECCB
:1008200090E0958B848B86EC90E0978B868B118E75
:10083000128E138E148EE8E2F3E08EE090E0918346
:1008400080831382128281E3848326E430E036833E
:10085000258382E090E090878783AEE6B2E0B2879E
:10086000A18743E451E05487438788E290E096876C
:100870008587178665E171E0718B608BCFE0D0E0F2
:10088000D38BC28B158A148AC2E3C68B308F278B19
:10089000C3E0D0E0D28FC18FC0E8D2E0D48FC38F45
:1008A000568F458F90A3878F11A273A362A3C0E1D7
:1008B000D0E0D5A3C4A317A216A2C3E3C0A732A752
:1008C00021A7C4E0D0E0D4A7C3A7B6A7A5A7AEE3ED
:1008D000B1E0B0ABA7A792AB81AB13AA75AB64AB89
:1008E00061E170E077AB66AB11AE10AE64E362AF6E
:1008F0006AE570E074AF63AF65E070E076AF65AF56
:1009000068E972E0709368036093670363E571E0E0
:1009100070936A03609369036CE370E070936C03F7
:1009200060936B0310926D03EDE1F1E0F0936F03C0
:10093000E0936E03E2E1F0E0F0937103E093700363
:100940001092730310927203E5E3E0937403309303
:10095000760320937503E6E0F0E0F0937803E093EC
:100960007703E0EAF2E0F0937A03E093790350939F
:100970007C0340937B0390937E0380937D031092CE
:100980007F0345E251E0509381034093800343E1AC
:1009900050E050938303409382031092850310929A
:1009A000840346E340938603709388036093870330
:1009B00047E050E050938A03409389034CEB52E0A8
:1009C00050938C0340938B0344E751E050938E0384
:1009D00040938D034EE150E05093900340938F037A
:1009E000109291034CE251E0509393034093920391
:1009F00044E150E050939503409394031092970381
:100A00001092960347E34093980330939A03209300
:100A1000990328E030E030939C0320939B0325E565
:100A200032E030939E0320939D032FE131E0309319
:100A3000A00320939F039093A2038093A10310929D
:100A4000A30383E391E09093A5038093A403DF9134
:100A5000CF910895CF93DF93CDB7DEB763970FB6ED
:100A6000F894DEBF0FBECDBF789484B5826084BD9C
:100A700084B5816084BD85B5826085BD85B58160A2
:100A800085BD80916E00816080936E001092810020
:100A900080918100826080938100809181008160DB
:100AA000809381008091800081608093800080919C
:100AB000B10084608093B1008091B0008160809328
:100AC000B00080917A00846080937A0080917A00EF
:100AD000826080937A0080917A00816080937A00AE
:100AE00080917A00806880937A001092C100E09132
:100AF0009B02F0919C0282E08083E0919702F0914A
:100B000098021082E0919902F0919A0280E180832C
:100B10001092A302E0919F02F091A00286E08083F0
:100B2000E0919D02F0919E02808180618083E0913E
:100B30009D02F0919E02808188608083E0919D02F9
:100B4000F0919E02808180688083E0919D02F09107
:100B50009E0280818F7D808302E010E08EE391E031
:100B60000E94D202C8010E94D402802F0E948C00F1
:100B700083E491E00E94D20264E670E080E090E0BD
:100B80000E9468010F5F1F4F0A30110539F78CE092
:100B90000E948C0088EB93E0E8E2F3E013AA7296DF
:100BA0008E179F07D9F786E591E00E94C40208E2FC
:100BB00013E0C12C82E1F801DE01119601900D9243
:100BC0008A95E1F7F801508041802480A580B680A5
:100BD000D7803084E384F48465847684F785FB8B46
:100BE000F8018088918885E691E00E94D20282E730
:100BF00091E00E94D2028FE791E00E94D20285E943
:100C000091E00E94D20283EA91E00E94D202C401E4
:100C10000E94D20280EB91E00E94D202622D8BE80A
:100C200092E00E94390281E491E00E94D2026AE0DF
:100C300070E080E090E00E9468018BEB91E00E9400
:100C4000D2028D2D932D0E94D40286EC91E00E9459
:100C5000D202852D942D0E94D40281ED91E00E9454
:100C6000D202852D0E942C010E94D40282EE91E0D6
:100C70000E94D202C5010E94D40285EF91E00E9439
:100C8000D202C3010E94D40287E092E00E94D20205
:100C9000C7010E94D402852D0E942C012A843B8426
:100CA000032C000C44085508092E000CAA0BBB0BA2
:100CB0009C01AD012219330944095509A4E6B0E0AD
:100CC0000E9412079701FF0C440B550B22193309A0
:100CD000440955090E94F30619012A018AE192E0AC
:100CE0000E94D202C1010E94D4026AE070E080E05A
:100CF00090E00E9468012614370474F460E08D2DA2
:100D00000E94FD008BE292E00E94D202CC24C394A8
:100D1000A214B3046CF404C0A214B3040CF059C0C0
:100D200061E08D2D0E94FD008BE292E00E94D202D4
:100D30006AE070E080E090E00E9468018D2D0E94E2
:100D4000D400811103C08BE492E002C089E592E0F7
:100D50000E94D2026AE070E080E090E00E946801A8
:100D60008CE00E94D400811103C087E692E002C0AB
:100D700084E792E00E94C40264E670E080E090E0C4
:100D80000E9468010E5E1F4F83E0063A180709F0C3
:100D900011CFCC2059F061E08CE00E94FD0064E6A8
:100DA00070E080E090E00E94680110C060E08CE09C
:100DB0000E94FD0009E512E00150110939F068EECA
:100DC00073E080E090E00E946801F6CF0E94A802E4
:100DD000EECEFB89F11104C061E08D2D0E94FD0073
:100DE0008BE392E0A3CF052E97FB1EF400940E94A4
:100DF0000A0757FD07D00E941D0707FC03D04EF4D9
:100E00000C940A0750954095309521953F4F4F4FD0
:100E10005F4F089590958095709561957F4F8F4FA6
:100E20009F4F08950E943F07A59F900DB49F900D7E
:100E3000A49F800D911D11240895A1E21A2EAA1BD2
:100E4000BB1BFD010DC0AA1FBB1FEE1FFF1FA2177A
:100E5000B307E407F50720F0A21BB30BE40BF50B77
:100E6000661F771F881F991F1A9469F76095709500
:100E7000809590959B01AC01BD01CF010895A29F83
:100E8000B001B39FC001A39F700D811D1124911D5E
:100E9000B29F700D811D1124911D0895EE0FFF1F4B
:100EA0000590F491E02D099481E090E0F8940C9481
:060EB0005907F894FFCF82
:100EB600000000003902A201D00186020102DF0112
:100EC600F3010D0A00756E6B6E6F776E00766172B8
:100ED600696F757300626F6E736169006361637435
:100EE60075730070656163655F6C696C7900506944
:100EF6006E20002069732073657420746F204F552F
:100F0600545055540A0046696E69736865642073C7
:100F16006574757000706C616E745F737973746557
:100F26006D002C636974793D4265726C696E002CA4
:100F36006C6F636174696F6E3D6F64657273747212
:100F460061737365002C726F6F6D3D616E647265BF
:100F56007773002C706C616E745F747970653D00F8
:100F66002C706C616E745F69643D00736572766F98
:100F76005F70696E3D002C726561645F70696E3DDD
:100F8600002C73656E736F725F72656164696E675C
:100F96003D002C6D6F695F73657474696E675F6879
:100FA6006967683D002C6D6F695F73657474696E5F
:100FB600675F6C6F773D002C73656E736F725F6C45
:100FC6006F775F76616C75653D002C6D6F69737424
:100FD6007572655F6C6576656C3D002C696E5F6445
:100FE6006561645F7A6F6E653D66002C696E5F644D
:100FF6006561645F7A6F6E653D74002C7365727609
:101006006F5F6F70656E3D74002C736572766F5FEF
:101016006F70656E3D66002C70756D705F6F7065E4
:101026006E3D66002C70756D705F6F70656E3D74F9
:021036000000B8
:00000001FF
