:100000000C9463000C948B000C948B000C948B006C
:100010000C948B000C948B000C948B000C948B0034
:100020000C948B000C948B000C948B000C948B0024
:100030000C948B000C948B000C948B000C948B0014
:100040000C9465040C948B000C94D5040C94AF04B0
:100050000C948B000C948B000C948B000C948B00F4
:100060000C948B000C948B000000000023002600F1
:10007000290000000008000201000003040700003E
:1000800000000000000000000000250028002B00F8
:1000900000000000240027002A00040404040404D3
:1000A0000404020202020202030303030303010227
:1000B00004081020408001020408102001020408F6
:1000C000102007056D0811241FBECFEFD8E0DEBF5A
:1000D000CDBF12E0A0E0B1E0E4E4F6E102C005909B
:1000E0000D92A837B107D9F723E0A8E7B2E001C025
:1000F0001D92AF3DB207E1F710E0C2E6D0E004C0C8
:100100002197FE010E941309C136D107C9F70E9449
:100110001F060C94150B0C94000090E0FC01E255B6
:10012000FF4F2491FC01E656FF4F8491882399F0FC
:1001300090E0880F991FFC01E057FF4FA591B49103
:10014000FC01EA57FF4F859194918FB7F894EC9199
:10015000E22BEC938FBF0895833081F028F4813037
:1001600099F08230A1F008958730A9F08830B9F075
:100170008430D1F4809180008F7D03C08091800015
:100180008F7780938000089584B58F7702C084B5FF
:100190008F7D84BD08958091B0008F7703C08091DA
:1001A000B0008F7D8093B0000895CF93DF93282F08
:1001B00030E0F901EE58FF4F8491F901E255FF4F0D
:1001C000D491F901E656FF4FC491CC2391F08111EF
:1001D0000E94AC00EC2FF0E0EE0FFF1FE859FF4F3C
:1001E000A591B491EC91ED2381E090E021F480E0C1
:1001F00002C080E090E0DF91CF9108951F93CF93EC
:10020000DF93282F30E0F901EE58FF4F8491F90178
:10021000E255FF4FD491F901E656FF4FC491CC232C
:10022000C1F0162F81110E94AC00EC2FF0E0EE0F10
:10023000FF1FEA57FF4FA591B4919FB7F894111192
:1002400004C08C91D095D82302C0EC91DE2BDC93B6
:100250009FBFDF91CF911F9108953FB7F894809190
:100260007D0290917E02A0917F02B091800226B51E
:10027000A89B05C02F3F19F00196A11DB11D3FBFDE
:10028000BA2FA92F982F8827820F911DA11DB11D6C
:10029000BC01CD0142E0660F771F881F991F4A9568
:1002A000D1F708958F929F92AF92BF92CF92DF9233
:1002B000EF92FF926B017C010E942D014B015C01CA
:1002C000C114D104E104F104F1F00E942D01DC011C
:1002D000CB0188199909AA09BB09883E9340A10559
:1002E000B10570F321E0C21AD108E108F10888EEE7
:1002F000880E83E0981EA11CB11CC114D104E10436
:10030000F10419F7DDCFFF90EF90DF90CF90BF9011
:10031000AF909F908F9008950895CF92DF92EF92C3
:10032000FF920F931F93CF93DF936C017A018B01A0
:10033000C0E0D0E0CE15DF0581F0D8016D918D01D0
:10034000D601ED91FC910190F081E02DC601099557
:10035000892B11F02196EECF7E01C701DF91CF915D
:100360001F910F91FF90EF90DF90CF90089580E064
:1003700090E00895FC01538D448D252F30E0842FAB
:1003800090E0821B930B541710F0CF9608950197BD
:100390000895FC01918D828D981761F0828DDF01A7
:1003A000A80FB11D5D968C91928D9F5F9F73928F68
:1003B00090E008958FEF9FEF0895FC01918D828D5D
:1003C000981731F0828DE80FF11D858D90E008952A
:1003D0008FEF9FEF0895FC01918D228D892F90E082
:1003E000805C9F4F821B91098F739927089581E844
:1003F00092E00E94EB0121E0892B09F420E0822F9A
:100400000895FC01848DDF01A80FB11DA35ABF4FD1
:100410002C91848D90E001968F739927848FA68903
:10042000B7892C93A089B1898C91837080648C9357
:10043000938D848D981306C00288F389E02D808106
:100440008F7D80830895EF92FF920F931F93CF9338
:10045000DF93EC0181E0888F9B8D8C8D981305C014
:10046000E889F989808185FD26C0F62E0B8D10E084
:100470000F5F1F4F0F731127E02E8C8DE8120CC0F9
:100480000FB607FCFACFE889F989808185FFF5CF9F
:10049000CE010E940102F1CF8B8DFE01E80FF11D0C
:1004A000E35AFF4FF0829FB7F8940B8FEA89FB89DC
:1004B000808180620AC09FB7F894EE89FF896083CB
:1004C000E889F98980818370806480839FBF81E09F
:1004D00090E0DF91CF911F910F91FF90EF900895E1
:1004E000CF93DF93EC01888D8823C9F0EA89FB89DB
:1004F000808185FD05C0A889B9898C9186FD0FC0D2
:100500000FB607FCF5CF808185FFF2CFA889B989A6
:100510008C9185FFEDCFCE010E940102E7CFDF91E4
:10052000CF91089580E090E0892B29F00E94F70197
:1005300081110C9400000895009769F0FC0101906E
:100540000020E9F73197AF01481B590BBC0181E846
:1005500092E00C948D0180E090E00895CF93DF93BA
:100560000E949C02EC018AE191E00E949C028C0FA7
:100570009D1FDF91CF9108950C949C028F929F92C2
:10058000AF92BF92CF92DF92EF92FF920F931F93A1
:10059000CF93DF93CDB7DEB7A1970FB6F894DEBF48
:1005A0000FBECDBF6C01990FEE08FF08F7FE2BC000
:1005B0006DE281E892E00E9423028C01222733271A
:1005C000A9012C193D094E095F0919A2CE01819696
:1005D0007C019AE0892E912CA12CB12CCA01B90181
:1005E000A50194010E94E208605DF70162937F011A
:1005F000211531054105510589F7CF010E949C0263
:10060000800F911F1DC0A701960119A28E010F5DD9
:100610001F4F8AE0C82ED12CE12CF12CCA01B90160
:10062000A70196010E94E208605DF80162938F01C4
:10063000211531054105510589F7CF010E949C0222
:10064000A1960FB6F894DEBF0FBECDBFDF91CF915C
:100650001F910F91FF90EF90DF90CF90BF90AF90E0
:100660009F908F900895FC01808191810C94B10935
:100670000E94000BEF92FF920F931F93CF93DF9393
:10068000EC017B018A0188819981009729F02A81F8
:100690003B8124173507F8F4B8016F5F7F4F0E9444
:1006A0003A0A009759F0998388831B830A832C8127
:1006B0003D81232B81F4FC0110820DC0888199813A
:1006C000009711F00E94B109198218821D821C82C4
:1006D0001B821A8207C01D830C83B7018881998110
:1006E0000E940E0BCE01DF91CF911F910F91FF90D1
:1006F000EF900895CF93DF93EC01FB0186179707E6
:10070000B1F0608171816115710529F044815581D5
:100710000E943A030CC088819981009711F00E94D1
:10072000B109198218821D821C821B821A82CE0195
:10073000DF91CF910895FC01118210821382128201
:10074000158214826115710551F0FB0101900020A2
:10075000E9F73197AF01461B570B0C943A03089504
:100760002F923F924F925F926F927F928F929F92C1
:10077000AF92BF92CF92DF92EF92FF920F931F93AF
:10078000CF93DF93CDB7DEB72D970FB6F894DEBFCA
:100790000FBECDBF3C012B0149873B872A871D87B0
:1007A0000C8717017C0184E0E80EF11C6CE171E01C
:1007B000C7010E949B0383010B5E1F4F6CE171E038
:1007C000C8010E949B03F30151824082138212826E
:1007D0001A8219821C821B821E821D82F985FF8368
:1007E0001886BE01695F7F4FFB0101900020E9F789
:1007F0003197AF01461B570BCE0101962C010E9489
:100800003A034E145F0401F1F3018481958100974E
:1008100041F069817A816115710509F045C00E9436
:10082000B10989819A81F301958384838B819C81AD
:10083000978386838D819E81918780871A82198212
:100840001C821B821E821D82C2010E9433038A8584
:100850009B85F301938782878C859D859587848707
:1008600037862686D18AC08AB38AA28A148AB401BE
:10087000C8010E947A032D960FB6F894DEBF0FBE12
:10088000CDBFDF91CF911F910F91FF90EF90DF903F
:10089000CF90BF90AF909F908F907F906F905F9020
:1008A0004F903F902F900895F301468157812D81FD
:1008B0003E814217530708F4B2CF0E940E0B8D8180
:1008C0009E81F30191878087BDCF1F920F920FB653
:1008D0000F9211242F933F938F939F93AF93BF93C6
:1008E0008091790290917A02A0917B02B0917C0272
:1008F0003091780223E0230F2D3720F40196A11DBB
:10090000B11D05C026E8230F0296A11DB11D20933D
:1009100078028093790290937A02A0937B02B0933D
:100920007C0280917D0290917E02A0917F02B09125
:1009300080020196A11DB11D80937D0290937E02DD
:10094000A0937F02B0938002BF91AF919F918F914E
:100950003F912F910F900FBE0F901F9018951F92EF
:100960000F920FB60F9211242F933F934F935F93E3
:100970006F937F938F939F93AF93BF93EF93FF9367
:1009800081E892E00E940102FF91EF91BF91AF9147
:100990009F918F917F916F915F914F913F912F9197
:1009A0000F900FBE0F901F9018951F920F920FB6C9
:1009B0000F9211242F938F939F93EF93FF93E091C6
:1009C0009102F09192028081E0919702F091980259
:1009D00082FD12C0908180919A028F5F8F73209167
:1009E0009B02821751F0E0919A02F0E0EF57FD4F21
:1009F000958F80939A0201C08081FF91EF919F9122
:100A00008F912F910F900FBE0F901F9018958F927E
:100A10009F92AF92BF92CF92DF92EF92FF920F938D
:100A20001F93CF93DF9300D000D000D0CDB7DEB7B7
:100A3000E1E8F2E01382128288EE93E0A0E0B0E0F9
:100A400084839583A683B7838CE091E09183808330
:100A500085EC90E09587848784EC90E09787868783
:100A600080EC90E0918B808B81EC90E0938B828B7B
:100A700082EC90E0958B848B86EC90E0978B868B54
:100A8000118E128E138E148E6DE171E0CE010196DF
:100A90000E949B03CE0101964C0188E2A82EB12C46
:100AA00093E4C92EDD24D3942EE6E22E22E0F22E2A
:100AB00002E010E026E430E041E36EE070E08EE119
:100AC00093E00E94B003C4010E9433036DE171E022
:100AD000C4010E949B0330E8E32E32E0F32E03E0D2
:100AE00010E026E430E042E36FE070E089E393E059
:100AF0000E94B003C4010E9433036DE171E0C401A0
:100B00000E949B034EE6E42E42E0F42E04E010E047
:100B100026E430E043E360E170E084E593E00E9486
:100B2000B003C4010E94330365E271E0C4010E9476
:100B30009B035CE3A52EB12C63E5C62EDD24D39484
:100B400078E9E72E72E0F72E05E010E02AE530E0C4
:100B500044E361E170E08FE693E00E94B003C401DA
:100B60000E9433036DE271E0C4010E949B03E8E23E
:100B7000AE2EB12CF6E5CF2EDD24D394A0EAEA2EDA
:100B8000A2E0FA2E06E010E026E430E045E362E160
:100B900070E08AE893E00E94B003C4010E9433032E
:100BA00064E371E0C4010E949B03BEE1AB2EB12C53
:100BB00014E7C12EDD24D3940CEBE02E02E0F02EDE
:100BC00007E010E02CE330E046E363E170E085EA03
:100BD00093E00E94B003C4010E9433036BE371E011
:100BE000C4010E949B0388E2A82EB12C9FE1C92E6C
:100BF000DD24D39425E5E22E22E0F22E08E010E079
:100C000026E430E047E364E170E080EC93E00E948A
:100C1000B003C4010E94330326960FB6F894DEBFDA
:100C20000FBECDBFDF91CF911F910F91FF90EF903D
:100C3000DF90CF90BF90AF909F908F900895CF930B
:100C4000DF93CDB7DEB7E6970FB6F894DEBF0FBEE1
:100C5000CDBF789484B5826084BD84B5816084BD45
:100C600085B5826085BD85B5816085BD80916E004A
:100C7000816080936E00109281008091810082607B
:100C800080938100809181008160809381008091B8
:100C900080008160809380008091B10084608093A7
:100CA000B1008091B00081608093B00080917A00A3
:100CB000846080937A0080917A00826080937A00C9
:100CC00080917A00816080937A0080917A008068B8
:100CD00080937A001092C100E0919102F09192020B
:100CE00082E08083E0918D02F0918E021082E0918B
:100CF0008F02F091900280E1808310929902E0913E
:100D00009502F091960286E08083E0919302F09143
:100D10009402808180618083E0919302F09194023B
:100D2000808188608083E0919302F09194028081B9
:100D300080688083E0919302F091940280818F7D9E
:100D4000808302E010E086E491E00E94BC02C801CA
:100D50000E94BE02802F0E948D008BE491E00E94D1
:100D6000BC0264E670E080E090E00E9452010F5FF8
:100D70001F4F0A30110539F78CE00E948D00E8E61C
:100D8000F3E080E494E010827B968E179F07D9F7FA
:100D90008EE591E00E94AE028BEDE82E83E0F82E06
:100DA0006624639490E1C92E97E2D92E0EE113E0F8
:100DB000712CF801808191819D8F8C8F828193812C
:100DC0009F8F8E8F19A218A21BA21AA21DA21CA26D
:100DD000B8016C5F7F4FCE0180960E947A03F801C4
:100DE000828593859FA38EA38485958599A788A7DF
:100DF000868597859BA78AA7808991899DA78CA7BF
:100E0000828993899FA78EA7848988AB1AAA19AA79
:100E10001CAA1BAA1EAA1DAAB8016B5E7F4FCE0199
:100E2000C1960E947A038DE691E00E94BC028AE797
:100E300091E00E94BC0287E891E00E94BC028DE92B
:100E400091E00E94BC028BEA91E00E94BC024DA995
:100E50005EA969A97AA981E892E00E948D0188EBD8
:100E600091E00E94BC024CA15DA168A179A181E83A
:100E700092E00E948D0189E491E00E94BC0283EC23
:100E800091E00E94BC0288A599A50E94BE028EEC4A
:100E900091E00E94BC028C8D9D8D0E94BE0289ED66
:100EA00091E00E94BC028EA19FA10E94BE028CEE26
:100EB00091E00E94BC028EA59FA50E94BE028EEF0B
:100EC00091E00E94BC028CA59DA50E94BE028C8D63
:100ED0009D8D9A8389838E8D9F8D9C838B831E82AB
:100EE0001D8218861F821A861986BE01605E7F4F9A
:100EF000CE0105960E947A038EA19FA19C878B87C5
:100F000088A599A59E878D878AA59BA5988B8F8795
:100F10008CA59DA59A8B898B8EA59FA59C8B8B8B71
:100F200088A98D8B1F8A1E8A198E188E1B8E1A8E89
:100F3000BE016F5C7F4FCE0146960E947A038C8D76
:100F40008E3008F08E508770806480937C00809192
:100F50007A00806480937A0080917A0086FDFCCFCD
:100F600020917800809179008F849888092C000C5A
:100F7000AA08BB0830E0382BC901330FAA0BBB0B02
:100F80009C01AD01281939094A095B09A4E6B0E0C2
:100F90000E94A00829893A89032E000C440B550BA6
:100FA000281939094A095B090E9481083F8F2E8F51
:100FB000CE0146960E943303CE0105960E9433036C
:100FC00081E192E00E94BC028E8D9F8D0E94BE0244
:100FD0002E8D3F8D8EA59FA5281739075CF468AA32
:100FE00060E088A50E94FE0082E292E00E94BC02BE
:100FF000772473948E8D9F8D2EA53FA5821793071E
:1010000084F02EA13FA1281739075CF088A981112F
:1010100004C061E088A50E94FE0082E392E00E9485
:10102000BC022E8D3F8D8EA19FA1821793074CF499
:1010300018AA61E088A50E94FE0082E292E00E9468
:10104000BC0288A50E94D500811103C082E492E011
:1010500002C080E592E00E94BC028CE00E94D500B4
:10106000811103C08EE592E002C08BE692E00E94FF
:10107000AE0264E670E080E090E00E945201CE0192
:10108000C1960E943303CE0180960E943303055E11
:101090001F4FE016F10609F08CCE772049F061E091
:1010A0008CE00E94FE00109201011092000108C025
:1010B00060E08CE00E94FE00D0920101C09200012D
:1010C0006091000170910101072E000C880B990BB3
:1010D0000E9452010E94920269CECF93DF93CBED22
:1010E000D3E06B97CE0145960E943303CE01049660
:1010F0000E94330383E0CE31D80799F7DF91CF9177
:101100000895052E97FB1EF400940E94980857FD41
:1011100007D00E94E20807FC03D04EF40C94980814
:1011200050954095309521953F4F4F4F5F4F089513
:1011300090958095709561957F4F8F4F9F4F089543
:101140000E940409A59F900DB49F900DA49F800D4F
:10115000911D112408952F923F924F925F926F92AA
:101160007F928F929F92AF92BF92CF92DF92EF9237
:10117000FF920F931F93CF93DF93CDB7DEB7CA1BB8
:10118000DB0B0FB6F894DEBF0FBECDBF09942A88E3
:10119000398848885F846E847D848C849B84AA848B
:1011A000B984C884DF80EE80FD800C811B81AA8118
:1011B000B981CE0FD11D0FB6F894DEBF0FBECDBFE3
:1011C000ED010895A1E21A2EAA1BBB1BFD010DC063
:1011D000AA1FBB1FEE1FFF1FA217B307E407F507E7
:1011E00020F0A21BB30BE40BF50B661F771F881FC3
:1011F000991F1A9469F760957095809590959B0159
:10120000AC01BD01CF010895A29FB001B39FC00101
:10121000A39F700D811D1124911DB29F700D811D22
:101220001124911D0895EE0FFF1F0590F491E02DFC
:1012300009940F931F93CF93DF938230910510F49D
:1012400082E090E0E091DD03F091DE0320E030E009
:10125000A0E0B0E0309719F1408151810281138103
:1012600048175907C8F08417950769F4109731F0AB
:1012700012960C93129713961C9327C00093DD03CC
:101280001093DE0322C02115310519F042175307D0
:1012900018F49A01BD01EF01DF01F801DBCF211540
:1012A0003105F9F0281B390B2430310580F48A818F
:1012B0009B816115710521F0FB019383828304C03A
:1012C0009093DE038093DD03FE01329644C0FE015D
:1012D000E20FF31F819391932250310939832883C0
:1012E0003AC02091DB033091DC03232B41F42091A1
:1012F0000401309105013093DC032093DB0320913E
:101300000201309103012115310541F42DB73EB79B
:101310004091060150910701241B350BE091DB033E
:10132000F091DC03E217F307A0F42E1B3F0B281704
:10133000390778F0AC014E5F5F4F2417350748F04E
:101340004E0F5F1F5093DC034093DB038193919317
:1013500002C0E0E0F0E0CF01DF91CF911F910F914B
:101360000895CF93DF93009709F481C0FC01329771
:1013700013821282A091DD03B091DE03109781F4F5
:1013800020813181820F931F2091DB033091DC0398
:101390002817390751F5F093DC03E093DB0367C0AE
:1013A000ED0120E030E0CE17DF0740F44A815B8199
:1013B0009E0141155105F1F0EA01F5CFD383C283B7
:1013C00040815181840F951FC817D90759F488812E
:1013D0009981840F951F0296918380838A819B81D6
:1013E000938382832115310529F4F093DE03E09382
:1013F000DD033DC0E901FB83EA8349915991C40FA4
:10140000D51FEC17FD0761F480819181840F951F32
:101410000296E90199838883828193819B838A83E1
:10142000E0E0F0E012968D919C911397009719F0EF
:10143000FD01DC01F7CF8D919C9111979D012E5FED
:101440003F4F820F931F2091DB033091DC0328175D
:10145000390769F4309729F41092DE031092DD0306
:1014600002C013821282B093DC03A093DB03DF91EE
:10147000CF910895A0E0B0E0E0E4FAE00C94AF086A
:10148000EC01009721F4CB010E941909B4C0FC01C2
:10149000E60FF71F9C0122503109E217F30708F409
:1014A000A8C0D9010D911C91119706171707B0F02C
:1014B0000530110508F49BC0C801049786179707EB
:1014C00008F495C002501109061B170B01931193E4
:1014D0006D937C93CF010E94B10989C05B01A01A72
:1014E000B10A4C01800E911EA091DD03B091DE0384
:1014F000612C712CE12CF12C109709F446C08D91D0
:101500009C911197A815B905B1F56C0142E0C40E84
:10151000D11CCA14DB0478F14C018A189B086401C1
:1015200042E0C40ED11C1296BC9012971396AC9157
:10153000B5E0CB16D10440F0B282A38391828082C1
:10154000D9016D937C9309C00E5F1F4F800F911FCF
:10155000F90191838083EB2DFA2FE114F10431F02E
:10156000D7011396FC93EE93129741C0F093DE03DC
:10157000E093DD033CC06816790608F43C017D0168
:1015800012960D90BC91A02DB7CF8091DB03909166
:10159000DC0388169906E1F466167706C8F4809194
:1015A000020190910301009741F48DB79EB74091DD
:1015B000060150910701841B950BE817F907C8F441
:1015C000F093DC03E093DB03F901718360830FC0C8
:1015D000CB010E9419097C01009759F0A801BE01B6
:1015E0000E94050BCE010E94B109C70104C0CE01C3
:1015F00002C080E090E0CDB7DEB7EEE00C94CB08FF
:1016000081E090E0F8940C94150BFB01DC0102C022
:1016100001900D9241505040D8F70895FB01DC0134
:1016200001900D920020E1F7089510E0C2E6D0E0AD
:1016300004C0FE010E9413092196C336D107C9F7E1
:04164000F894FFCF4C
:1016440010270000DF0380000000000023028D014A
:10165400BA017002EB01C901DD010D0A00756E6B60
:101664006E6F776E00766172696F757300626F6E6C
:1016740073616900636163747573007065616365A8
:101684005F6C696C790050696E2000206973207367
:10169400657420746F204F55545055540A004669A0
:1016A4006E697368656420736574757000706C612D
:1016B4006E745F73797374656D002C636974793D1E
:1016C4004265726C696E002C6C6F636174696F6E35
:1016D4003D6F64657273747261737365002C726F0D
:1016E4006F6D3D616E6472657773002C706C616E12
:1016F400745F747970653D002C706C616E745F6901
:10170400643D00736572766F5F70696E3D002C7284
:101714006561645F70696E3D002C6D6F695F736510
:101724007474696E675F686967683D002C6D6F69E2
:101734005F73657474696E675F6C6F773D002C73BB
:10174400656E736F725F6C6F775F76616C75653D04
:10175400002C6D6F6973747572655F6C6576656C6A
:101764003D002C696E5F646561645F7A6F6E653DF0
:1017740066002C696E5F646561645F7A6F6E653DB7
:1017840074002C736572766F5F6F70656E3D7400C4
:101794002C736572766F5F6F70656E3D66002C709A
:1017A400756D705F6F70656E3D66002C70756D7041
:0817B4005F6F70656E3D74006B
:107800000C94343C0C94513C0C94513C0C94513CE1
:107810000C94513C0C94513C0C94513C0C94513CB4
:107820000C94513C0C94513C0C94513C0C94513CA4
:107830000C94513C0C94513C0C94513C0C94513C94
:107840000C94513C0C94513C0C94513C0C94513C84
:107850000C94513C0C94513C0C94513C0C94513C74
:107860000C94513C0C94513C11241FBECFEFD8E036
:10787000DEBFCDBF11E0A0E0B1E0ECE9FFE702C060
:1078800005900D92A230B107D9F712E0A2E0B1E065
:1078900001C01D92AD30B107E1F70E942D3D0C945F
:1078A000CC3F0C94003C982F959595959595959582
:1078B000905D8F708A307CF0282F295A8091C0000B
:1078C00085FFFCCF9093C6008091C00085FFFCCF60
:1078D0002093C6000895282F205DF0CF982F809127
:1078E000C00085FFFCCF9093C6000895EF92FF92F1
:1078F0000F931F93EE24FF2487018091C00087FD22
:1079000017C00894E11CF11C011D111D81E4E8164B
:1079100082E4F8068FE0080780E0180770F3E09132
:107920000401F091050109958091C00087FFE9CF1E
:107930008091C6001F910F91FF90EF9008950E94D3
:10794000763C982F8091C00085FFFCCF9093C600B5
:1079500091362CF490330CF09053892F089597555D
:10796000892F08951F930E949F3C182F0E949F3CCF
:107970001295107F810F1F9108951F93182F882350
:1079800021F00E94763C1150E1F71F9108951F935A
:10799000182F0E94763C803249F0809103018F5F5E
:1079A000809303018530C1F01F9108958091C0003C
:1079B00085FFFCCF84E18093C6008091C00085FFE5
:1079C000FCCF1093C6008091C00085FFFCCF80E102
:1079D0008093C6001F910895E0910401F091050184
:1079E00009951F9108950E94763C803241F0809164
:1079F00003018F5F80930301853081F008958091AA
:107A0000C00085FFFCCF84E18093C6008091C00058
:107A100085FFFCCF80E18093C6000895E0910401CA
:107A2000F09105010995089540E951E08823A1F0FE
:107A30002D9A28EE33E0FA013197F1F721503040CA
:107A4000D1F72D9828EE33E0FA013197F1F7215064
:107A50003040D1F7815061F708953F924F925F9285
:107A60006F927F928F929F92AF92BF92CF92DF924E
:107A7000EF92FF920F931F93CF93DF93000080E16B
:107A80008093C4001092C50088E18093C10086E015
:107A90008093C2005098589A259A81E00E94143D24
:107AA00024E1F22E9EE1E92E85E9D82E0FE0C02ECA
:107AB00010E1B12EAA24A394B1E49B2EA6E58A2E50
:107AC000F2E57F2EE0E26E2E79E4572E63E5462E36
:107AD00050E5352E0E94763C8033B1F18133B9F107
:107AE000803409F46FC0813409F476C0823409F41B
:107AF00085C0853409F488C0803531F1823521F1A3
:107B0000813511F1853509F485C0863509F48DC0BC
:107B1000843609F496C0843709F403C1853709F423
:107B200072C1863709F466C0809103018F5F80932C
:107B30000301853079F6E0910401F0910501099582
:107B40000E94763C803351F60E94F33CC3CF0E94E2
:107B5000763C803249F78091C00085FFFCCFF092DF
:107B6000C6008091C00085FFFCCF9092C600809136
:107B7000C00085FFFCCF8092C6008091C00085FFC9
:107B8000FCCF7092C6008091C00085FFFCCF609250
:107B9000C6008091C00085FFFCCF5092C600809146
:107BA000C00085FFFCCF4092C6008091C00085FFD9
:107BB000FCCF3092C6008091C00085FFFCCFB09210
:107BC000C60088CF0E94763C863808F4BDCF0E945C
:107BD000763C0E94F33C7ECF0E94763C803809F4CC
:107BE0009CC0813809F40BC1823809F43CC1883942
:107BF00009F48FC080E00E94C73C6CCF84E10E94F2
:107C0000BD3C0E94F33C66CF85E00E94BD3C0E94D3
:107C1000F33C60CF0E94763C809306010E94763C44
:107C2000809307010E94F33C55CF0E94763C80333D
:107C300009F41DC183E00E94BD3C80E00E94C73C66
:107C400049CF0E94763C809309020E94763C809343
:107C5000080280910C028E7F80930C020E94763C79
:107C6000853409F415C18091080290910902892B8D
:107C700089F000E010E00E94763CF801E85FFE4FDA
:107C800080830F5F1F4F80910802909109020817AF
:107C9000190788F30E94763C803209F045CF809125
:107CA0000C0280FF01C16091060170910701660F0F
:107CB000771F7093070160930601A0910802B091AD
:107CC00009021097C9F0E8E0F1E09B01AD014E0F09
:107CD0005F1FF999FECF32BD21BD819180BDFA9A17
:107CE000F99A2F5F3F4FE417F50799F76A0F7B1F4B
:107CF00070930701609306018091C00085FFFCCF5F
:107D0000F092C6008091C00085FFFCCFB092C60003
:107D1000E1CE83E00E94C73CDDCE82E00E94C73CFA
:107D2000D9CE0E94763C809309020E94763C8093D3
:107D300008028091060190910701880F991F909386
:107D40000701809306010E94763C853409F4A6C0A1
:107D500080910C028E7F80930C020E94763C8032D0
:107D600009F0B8CE8091C00085FFFCCFF092C6002C
:107D7000609108027091090261157105B9F140E046
:107D800050E080910C02A82FA170B82FB27011C0E2
:107D9000BB2309F45CC0E0910601F0910701319624
:107DA000F0930701E09306014F5F5F4F46175707B7
:107DB000E8F4AA2369F3F999FECF209106013091E6
:107DC000070132BD21BDF89A90B58091C00085FFB2
:107DD000FCCF9093C6002F5F3F4F30930701209355
:107DE00006014F5F5F4F4617570718F38091C00099
:107DF00085FDE5CE8091C00085FFF8CFE0CE81E023
:107E00000E94C73C67CE0E94763C803209F08CCE3F
:107E10008091C00085FFFCCFF092C6008091C00029
:107E200085FFFCCFE092C6008091C00085FFFCCFAB
:107E3000D092C6008091C00085FFFCCFC092C600E2
:107E40008091C00085FFFCCFB092C60043CEE09188
:107E50000601F091070194918091C00085FFFCCF4D
:107E60009093C6009CCF80E10E94C73C33CE0E9415
:107E7000763C0E94763C182F0E94763C112309F430
:107E800083C0113009F484C08FE00E94C73C22CE29
:107E900080910C02816080930C02E5CE80910C02EF
:107EA000816080930C0259CF809107018823880F4D
:107EB000880B8A2180930B02809106019091070123
:107EC000880F991F90930701809306018091080203
:107ED00080FF09C080910802909109020196909359
:107EE000090280930802F894F999FECF1127E091D6
:107EF0000601F0910701C8E0D1E08091080290915D
:107F00000902103091F40091570001700130D9F34B
:107F100003E000935700E89500915700017001308D
:107F2000D9F301E100935700E89509901990009169
:107F3000570001700130D9F301E000935700E89534
:107F40001395103498F011270091570001700130FB
:107F5000D9F305E000935700E895009157000170B0
:107F60000130D9F301E100935700E895329602976A
:107F700009F0C7CF103011F00296E5CF112480919F
:107F8000C00085FFB9CEBCCE8EE10E94C73CA2CD19
:0C7F900085E90E94C73C9ECDF894FFCF0D
:027F9C00800063
:040000030000780081
:00000001FF
