:100000000C9462000C948A000C948A000C948A0070
:100010000C948A000C948A000C948A000C948A0038
:100020000C948A000C948A000C948A000C948A0028
:100030000C948A000C948A000C948A000C948A0018
:100040000C94A5030C948A000C9415040C94EF03F3
:100050000C948A000C948A000C948A000C948A00F8
:100060000C948A000C948A000000000023002600F3
:10007000290000000008000201000003040700003E
:1000800000000000000000000000250028002B00F8
:1000900000000000240027002A00040404040404D3
:1000A0000404020202020202030303030303010227
:1000B00004081020408001020408102001020408F6
:1000C0001020470411241FBECFEFD8E0DEBFCDBF04
:1000D00012E0A0E0B1E0ECECFFE002C005900D9270
:1000E000A63CB107D9F723E0A6ECB2E001C01D920F
:1000F000AD3EB207E1F710E0C2E6D0E004C02197C0
:10010000FE010E94D907C136D107C9F70E948605B2
:100110000C94E4070C94000090E0FC01E255FF4FC2
:100120002491FC01E656FF4F8491882399F090E0DA
:10013000880F991FFC01E057FF4FA591B491FC0176
:10014000EA57FF4F859194918FB7F894EC91E22B89
:10015000EC938FBF0895833081F028F4813099F0BB
:100160008230A1F008958730A9F08830B9F084304A
:10017000D1F4809180008F7D03C0809180008F77C3
:1001800080938000089584B58F7702C084B58F7DF9
:1001900084BD08958091B0008F7703C08091B00036
:1001A0008F7D8093B0000895CF93DF93282F30E0A8
:1001B000F901EE58FF4F8491F901E255FF4FD491B8
:1001C000F901E656FF4FC491CC2391F081110E94B2
:1001D000AB00EC2FF0E0EE0FFF1FE859FF4FA591A9
:1001E000B491EC91ED2381E090E021F480E002C035
:1001F00080E090E0DF91CF9108951F93CF93DF933C
:10020000282F30E0F901EE58FF4F8491F901E255B3
:10021000FF4FD491F901E656FF4FC491CC23C1F0B2
:10022000162F81110E94AB00EC2FF0E0EE0FFF1FA4
:10023000EA57FF4FA591B4919FB7F894111104C0EC
:100240008C91D095D82302C0EC91DE2BDC939FBF1C
:10025000DF91CF911F9108958E3008F08E508770F6
:10026000806480937C0080917A00806480937A001F
:1002700080917A0086FDFCCF8091780020917900F2
:1002800090E0922B08953FB7F8948091CE02909120
:10029000CF02A091D002B091D10226B5A89B05C093
:1002A0002F3F19F00196A11DB11D3FBFBA2FA92FF5
:1002B000982F8827820F911DA11DB11DBC01CD0172
:1002C00042E0660F771F881F991F4A95D1F708955E
:1002D0008F929F92AF92BF92CF92DF92EF92FF9256
:1002E0006B017C010E9443014B015C01C114D104EC
:1002F000E104F104F1F00E944301DC01CB01881913
:100300009909AA09BB09883E9340A105B10570F37C
:1003100021E0C21AD108E108F10888EE880E83E0D6
:10032000981EA11CB11CC114D104E104F10419F7F9
:10033000DDCFFF90EF90DF90CF90BF90AF909F9078
:100340008F900895CF92DF92EF92FF920F931F93B9
:10035000CF93DF936C017A018B01C0E0D0E0CE1522
:10036000DF0581F0D8016D918D01D601ED91FC91F1
:100370000190F081E02DC6010995892B11F021969D
:10038000EECF7E01C701DF91CF911F910F91FF90BA
:10039000EF90DF90CF900895089580E090E0089569
:1003A000FC01538D448D252F30E0842F90E0821B7B
:1003B000930B541710F0CF96089501970895FC0100
:1003C000918D828D981761F0828DDF01A80FB11D8C
:1003D0005D968C91928D9F5F9F73928F90E00895B0
:1003E0008FEF9FEF0895FC01918D828D981731F06A
:1003F000828DE80FF11D858D90E008958FEF9FEFBE
:100400000895FC01918D228D892F90E0805C9F4F93
:10041000821B91098F739927089582ED92E00E94C3
:10042000010221E0892B09F420E0822F0895FC01CC
:10043000848DDF01A80FB11DA35ABF4F2C91848D6D
:1004400090E001968F739927848FA689B7892C93A2
:10045000A089B1898C91837080648C93938D848DF5
:10046000981306C00288F389E02D80818F7D8083F8
:100470000895EF92FF920F931F93CF93DF93EC01B8
:1004800081E0888F9B8D8C8D981305C0E889F98950
:10049000808185FD26C0F62E0B8D10E00F5F1F4F6B
:1004A0000F731127E02E8C8DE8120CC00FB607FCDD
:1004B000FACFE889F989808185FFF5CFCE010E94C6
:1004C0001702F1CF8B8DFE01E80FF11DE35AFF4FAC
:1004D000F0829FB7F8940B8FEA89FB898081806254
:1004E0000AC09FB7F894EE89FF896083E889F9898B
:1004F00080818370806480839FBF81E090E0DF9182
:10050000CF911F910F91FF90EF900895CF93DF93BC
:10051000EC01888D8823C9F0EA89FB89808185FDFB
:1005200005C0A889B9898C9186FD0FC00FB607FC5C
:10053000F5CF808185FFF2CFA889B9898C9185FF9D
:10054000EDCFCE010E941702E7CFDF91CF91089542
:1005500080E090E0892B29F00E940D0281110C941B
:1005600000000895009769F0FC0101900020E9F770
:100570003197AF01481B590BBC0182ED92E00C94FE
:10058000A20180E090E00895CF93DF930E94B20231
:10059000EC0182E191E00E94B2028C0F9D1FDF917D
:1005A000CF9108950C94B202FF920F931F93CF93B3
:1005B000DF93CDB7DEB7CF5FD1090FB6F894DEBFBA
:1005C0000FBECDBF10E001E08EEFF82E82ED92E07D
:1005D0000E9401021816190654F5111128C082ED67
:1005E00092E00E94DF019091C7029923D9F0909187
:1005F000C602E1E0F0E0EC0FFD1FE90FF11D8E33C4
:1006000051F080839F5F9F3F19F09093C602DECF29
:10061000F092C602DBCF10821092C7021092C6027F
:1006200011E0D4CF8C3391F60093C702CFCF85E190
:1006300091E00E94D202CE0101960E94D20280E097
:1006400090E0C150DF4F0FB6F894DEBF0FBECDBFB4
:10065000DF91CF911F910F91FF9008958F929F92FC
:10066000AF92BF92CF92DF92EF92FF920F931F93C0
:10067000CF93DF93CDB7DEB7A1970FB6F894DEBF67
:100680000FBECDBF6C01990FEE08FF08F7FE2BC01F
:100690006DE282ED92E00E9439028C01222733271D
:1006A000A9012C193D094E095F0919A2CE018196B5
:1006B0007C019AE0892E912CA12CB12CCA01B901A0
:1006C000A50194010E94A807605DF70162937F0174
:1006D000211531054105510589F7CF010E94B2026C
:1006E000800F911F1DC0A701960119A28E010F5DF9
:1006F0001F4F8AE0C82ED12CE12CF12CCA01B90180
:10070000A70196010E94A807605DF80162938F011E
:10071000211531054105510589F7CF010E94B2022B
:10072000A1960FB6F894DEBF0FBECDBFDF91CF917B
:100730001F910F91FF90EF90DF90CF90BF90AF90FF
:100740009F908F9008950E94DF071F920F920FB61F
:100750000F9211242F933F938F939F93AF93BF9347
:100760008091CA029091CB02A091CC02B091CD02AF
:100770003091C90223E0230F2D3720F40196A11DEB
:10078000B11D05C026E8230F0296A11DB11D2093BF
:10079000C9028093CA029093CB02A093CC02B0937B
:1007A000CD028091CE029091CF02A091D002B09163
:1007B000D1020196A11DB11D8093CE029093CF026C
:1007C000A093D002B093D102BF91AF919F918F912E
:1007D0003F912F910F900FBE0F901F9018951F9271
:1007E0000F920FB60F9211242F933F934F935F9365
:1007F0006F937F938F939F93AF93BF93EF93FF93E9
:1008000082ED92E00E941702FF91EF91BF91AF91AC
:100810009F918F917F916F915F914F913F912F9118
:100820000F900FBE0F901F9018951F920F920FB64A
:100830000F9211242F938F939F93EF93FF93E09147
:10084000E202F091E3028081E091E802F091E90296
:1008500082FD12C090818091EB028F5F8F73209197
:10086000EC02821751F0E091EB02F0E0EE52FD4F06
:10087000958F8093EB0201C08081FF91EF919F9152
:100880008F912F910F900FBE0F901F901895CF93BF
:10089000DF93E2EDF2E01382128288EE93E0A0E0B3
:1008A000B0E084839583A683B78384E091E091834D
:1008B000808385EC90E09587848784EC90E097872F
:1008C000868780EC90E0918B808B81EC90E0938B1D
:1008D000828B82EC90E0958B848B86EC90E0978BFA
:1008E000868B118E128E138E148EEFE6F3E08EE05F
:1008F00090E0918380831382128281E3848326E4D3
:1009000030E03683258382E090E0908787836EE62F
:1009100072E072876187A3E4B1E0B487A38788E2BD
:1009200090E09687858717864AE351E0518B408B8C
:10093000CFE0D0E0D38BC28B158A148AC2E3C68B7A
:10094000308F278BC3E0D0E0D28FC18FC0E8D2E0D8
:10095000D48FC38FB68FA58F90A3878F11A253A377
:1009600042A3A0E1B0E0B5A3A4A317A216A2A3E3FB
:10097000A0A732A721A7A4E0B0E0B4A7A3A776A7B9
:1009800065A768E371E070AB67A792AB81AB13AA70
:1009900055AB44AB41E150E057AB46AB11AE10AEA6
:1009A00044E342AF4AE550E054AF43AF45E050E086
:1009B00056AF45AF48E952E05093AF034093AE03C2
:1009C00043E551E05093B1034093B0034CE350E052
:1009D0005093B3034093B2031092B40365E471E003
:1009E0007093B6036093B50362E170E07093B8034F
:1009F0006093B7031092BA031092B90365E3609352
:100A0000BB033093BD032093BC0366E070E070939A
:100A1000BF036093BE0360EA72E07093C10360930A
:100A2000C00369ED70E07093C3036093C2039093B9
:100A3000C5038093C4031092C6036AE471E0709307
:100A4000C8036093C70363E170E07093CA036093C7
:100A5000C9031092CC031092CB0366E36093CD03DD
:100A60005093CF034093CE0347E050E05093D1031F
:100A70004093D0034CEB52E05093D3034093D20306
:100A800044E751E05093D5034093D4034EE150E046
:100A90005093D7034093D6031092D80341E551E019
:100AA0005093DA034093D90344E150E05093DC03C0
:100AB0004093DB031092DE031092DD0347E3409383
:100AC000DF033093E1032093E00328E030E030932C
:100AD000E3032093E20325E532E03093E50320931E
:100AE000E4032FE131E03093E7032093E603909392
:100AF000E9038093E8031092EA0388E591E090937C
:100B0000EC038093EB03DF91CF910895CF93DF93B4
:100B1000CDB7DEB769970FB6F894DEBF0FBECDBF75
:100B2000789484B5826084BD84B5816084BD85B5C8
:100B3000826085BD85B5816085BD80916E008160D4
:100B400080936E001092810080918100826080937A
:100B5000810080918100816080938100809180007C
:100B60008160809380008091B10084608093B100A7
:100B70008091B00081608093B00080917A008460A1
:100B800080937A0080917A00826080937A008091CD
:100B90007A00816080937A0080917A0080688093E7
:100BA0007A001092C100E091E202F091E30282E04B
:100BB0008083E091DE02F091DF021082E091E0029A
:100BC000F091E10280E180831092EA02E091E60276
:100BD000F091E70286E08083E091E402F091E50283
:100BE000808180618083E091E402F091E502808160
:100BF00088608083E091E402F091E5028081806862
:100C00008083E091E402F091E50280818F7D808312
:100C100002E010E083E691E00E94D202C8010E9447
:100C20002E03802F0E948C0088E691E00E94D20261
:100C300061E0802F0E94FD0064E670E080E090E0BB
:100C40000E9468010F5F1F4F0A30110519F78CE0F1
:100C50000E948C0060E08CE00E94FD008FEF93E02A
:100C6000EFE6F3E013AA72968E179F07D9F78BE78A
:100C700091E00E94C402CE0101967C018091C802DD
:100C80008111FFC00FE613E01D8AF80140807180DA
:100C9000F481F88FF801A580B68057806084C18404
:100CA000D284838594859F8B8E8B2584368497850B
:100CB000998F808891888AE891E00E94D20288E921
:100CC00091E00E94D20280EA91E00E94D20288EA7A
:100CD00091E00E94D202C4010E94D20283EB91E013
:100CE0000E94D202688D82ED92E00E94390283E96F
:100CF00092E00E94D20288EB91E00E94D202852D00
:100D0000962D0E942E0382EC91E00E94D202842D47
:100D1000972D0E942E038DEC91E00E94D202842D2B
:100D20000E942C010E942E038EED91E00E94D202BF
:100D3000C5010E942E038BEE91E00E94D202C101F8
:100D40000E942E0388EF91E00E94D202C6010E9409
:100D50002E0386E092E00E94D2028E899F890E9433
:100D60002E0361E070E080E090E00E946801842D35
:100D70000E942C013601DD0C88089908092E000C10
:100D8000AA0BBB0B9C01AD0126193709480959096B
:100D9000A4E6B0E00E949D07EE89FF899F01FF0F46
:100DA000440B550B26193709480959090E947E073B
:100DB00039014A0184E192E00E94D202C3010E94FB
:100DC0002E03621473040CF08BC060E0852D0E942A
:100DD000FD008EE192E00E94D202A614B7041CF03E
:100DE000F1E0FD8B0AC091E09D8B61E0852D0E94B2
:100DF000FD0085E392E00E94D202852D0E94D4007E
:100E0000811103C08FE392E002C088E492E00E9467
:100E1000D2028CE00E94D400811103C081E592E0EF
:100E200002C089E592E00E94C4026AE070E080E0BE
:100E300090E00E9468010E5E1F4FEDEEF3E0E017B8
:100E4000F10709F022CFFD89FF2359F061E08CE022
:100E50000E94FD0064E670E080E090E00E9468017E
:100E600010C060E08CE00E94FD0009E512E0015036
:100E7000110939F068EE73E080E090E00E946801AB
:100E8000F6CF82ED92E00E940102892B31F1F70149
:100E900084E111928A95E9F70E94D402898381E660
:100EA00092E00E94D202C7010E94D20285E992E03C
:100EB0000E94D202C7010E94C4029AEBE91692E096
:100EC000F90619F481E08093C802E0ECEE16E2E046
:100ED000FE0619F481E08093C8020E94A802CECEDB
:100EE000A614B7040CF481CF898D811104C061E090
:100EF000852D0E94FD008BE292E07DCF052E97FBB1
:100F00001EF400940E94950757FD07D00E94A80781
:100F100007FC03D04EF40C949507509540953095FE
:100F200021953F4F4F4F5F4F089590958095709555
:100F300061957F4F8F4F9F4F08950E94CA07A59FCD
:100F4000900DB49F900DA49F800D911D11240895C4
:100F5000A1E21A2EAA1BBB1BFD010DC0AA1FBB1FBD
:100F6000EE1FFF1FA217B307E407F50720F0A21B2F
:100F7000B30BE40BF50B661F771F881F991F1A949C
:100F800069F760957095809590959B01AC01BD01C6
:100F9000CF010895A29FB001B39FC001A39F700D20
:100FA000811D1124911DB29F700D811D1124911D71
:100FB0000895EE0FFF1F0590F491E02D099481E054
:0C0FC00090E0F8940C94E407F894FFCF44
:100FCC00000000003902A201D00186020102DF01FB
:100FDC00F3010D0A00496E207265636965766564DC
:100FEC002063686172732077697468207468652067
:100FFC00206D65737361676520007363696E64614E
:10100C0070737573007472617900626F6E736169CD
:10101C00006361637475730070656163655F6C690F
:10102C006C790050696E2000206973207365742000
:10103C00746F204F55545055540A0046696E6973AD
:10104C00686564207365747570003C706C616E74B7
:10105C005F73797374656D002C7468696E673D00FD
:10106C006E616E6F2D3031002C706C6E745F747904
:10107C00703D002C69643D00736572765F70696E1B
:10108C003D002C726561645F70696E3D002C736568
:10109C006E736F725F72656164696E673D002C6D73
:1010AC006F695F7365745F68693D002C6D6F695F74
:1010BC007365745F6C6F3D002C73656E735F6C6F42
:1010CC005F76616C3D002C73656E735F68695F764B
:1010DC00616C3D002C6D6F695F6C766C3D002C640F
:1010EC006561645F7A6F6E653D30002C6465645F8A
:1010FC007A6E3D31002C6465645F7A6E3D30002C55
:10110C00736572766F3D31002C736572766F3D306E
:10111C00002C706D703D303E002C706D703D313E7A
:10112C0000546865206D6573736167652066726F26
:10113C006D207468652066756E6374696F6E2069C6
:10114C006E20746865206C6F6F7020726574757298
:10115C006E65642000496E2068616E646C65206D5C
:10116C00657373616765207769746820746865209E
:10117C00206D6573736167652000534C45455000C5
:06118C0057414B45000035
:00000001FF
