:100000000C9462000C948A000C948A000C948A0070
:100010000C948A000C948A000C948A000C948A0038
:100020000C948A000C948A000C948A000C948A0028
:100030000C948A000C948A000C948A000C948A0018
:100040000C944B030C948A000C94BB030C94950302
:100050000C948A000C948A000C948A000C948A00F8
:100060000C948A000C948A000000000023002600F3
:10007000290000000008000201000003040700003E
:1000800000000000000000000000250028002B00F8
:1000900000000000240027002A00040404040404D3
:1000A0000404020202020202030303030303010227
:1000B00004081020408001020408102001020408F6
:1000C0001020ED0311241FBECFEFD8E0DEBFCDBF5F
:1000D00012E0A0E0B1E0E6EAFEE002C005900D9279
:1000E000A438B107D9F723E0A4E8B2E001C01D921B
:1000F000A83AB207E1F710E0C2E6D0E004C02197C9
:10010000FE010E944607C136D107C9F70E942C059F
:100110000C9451070C94000090E0FC01E255FF4F55
:100120002491FC01E656FF4F8491882399F090E0DA
:10013000880F991FFC01E057FF4FA591B491FC0176
:10014000EA57FF4F859194918FB7F894EC91E22B89
:10015000EC938FBF0895833081F028F4813099F0BB
:100160008230A1F008958730A9F08830B9F084304A
:10017000D1F4809180008F7D03C0809180008F77C3
:1001800080938000089584B58F7702C084B58F7DF9
:1001900084BD08958091B0008F7703C08091B00036
:1001A0008F7D8093B0000895CF93DF93282F30E0A8
:1001B000F901EE58FF4F8491F901E255FF4FD491B8
:1001C000F901E656FF4FC491CC2391F081110E94B2
:1001D000AB00EC2FF0E0EE0FFF1FE859FF4FA591A9
:1001E000B491EC91ED2381E090E021F480E002C035
:1001F00080E090E0DF91CF9108951F93CF93DF933C
:10020000282F30E0F901EE58FF4F8491F901E255B3
:10021000FF4FD491F901E656FF4FC491CC23C1F0B2
:10022000162F81110E94AB00EC2FF0E0EE0FFF1FA4
:10023000EA57FF4FA591B4919FB7F894111104C0EC
:100240008C91D095D82302C0EC91DE2BDC939FBF1C
:10025000DF91CF911F9108958E3008F08E508770F6
:10026000806480937C0080917A00806480937A001F
:1002700080917A0086FDFCCF8091780020917900F2
:1002800090E0922B08953FB7F89480918902909165
:100290008A02A0918B02B0918C0226B5A89B05C062
:1002A0002F3F19F00196A11DB11D3FBFBA2FA92FF5
:1002B000982F8827820F911DA11DB11DBC01CD0172
:1002C00042E0660F771F881F991F4A95D1F708955E
:1002D0008F929F92AF92BF92CF92DF92EF92FF9256
:1002E0006B017C010E9443014B015C01C114D104EC
:1002F000E104F104F1F00E944301DC01CB01881913
:100300009909AA09BB09883E9340A105B10570F37C
:1003100021E0C21AD108E108F10888EE880E83E0D6
:10032000981EA11CB11CC114D104E104F10419F7F9
:10033000DDCFFF90EF90DF90CF90BF90AF909F9078
:100340008F900895CF92DF92EF92FF920F931F93B9
:10035000CF93DF936C017A018B01C0E0D0E0CE1522
:10036000DF0581F0D8016D918D01D601ED91FC91F1
:100370000190F081E02DC6010995892B11F021969D
:10038000EECF7E01C701DF91CF911F910F91FF90BA
:10039000EF90DF90CF900895089580E090E0089569
:1003A000FC01538D448D252F30E0842F90E0821B7B
:1003B000930B541710F0CF96089501970895FC0100
:1003C000918D828D981761F0828DDF01A80FB11D8C
:1003D0005D968C91928D9F5F9F73928F90E00895B0
:1003E0008FEF9FEF0895FC01918D828D981731F06A
:1003F000828DE80FF11D858D90E008958FEF9FEFBE
:100400000895FC01918D228D892F90E0805C9F4F93
:10041000821B91098F73992708958DE892E00E94BD
:10042000010221E0892B09F420E0822F0895FC01CC
:10043000848DDF01A80FB11DA35ABF4F2C91848D6D
:1004400090E001968F739927848FA689B7892C93A2
:10045000A089B1898C91837080648C93938D848DF5
:10046000981306C00288F389E02D80818F7D8083F8
:100470000895EF92FF920F931F93CF93DF93EC01B8
:1004800081E0888F9B8D8C8D981305C0E889F98950
:10049000808185FD26C0F62E0B8D10E00F5F1F4F6B
:1004A0000F731127E02E8C8DE8120CC00FB607FCDD
:1004B000FACFE889F989808185FFF5CFCE010E94C6
:1004C0001702F1CF8B8DFE01E80FF11DE35AFF4FAC
:1004D000F0829FB7F8940B8FEA89FB898081806254
:1004E0000AC09FB7F894EE89FF896083E889F9898B
:1004F00080818370806480839FBF81E090E0DF9182
:10050000CF911F910F91FF90EF900895CF93DF93BC
:10051000EC01888D8823C9F0EA89FB89808185FDFB
:1005200005C0A889B9898C9186FD0FC00FB607FC5C
:10053000F5CF808185FFF2CFA889B9898C9185FF9D
:10054000EDCFCE010E941702E7CFDF91CF91089542
:1005500080E090E0892B29F00E940D0281110C941B
:1005600000000895009769F0FC0101900020E9F770
:100570003197AF01481B590BBC018DE892E00C94F8
:10058000A20180E090E00895CF93DF930E94B20231
:10059000EC0182E191E00E94B2028C0F9D1FDF917D
:1005A000CF9108950C94B2028F929F92AF92BF9216
:1005B000CF92DF92EF92FF920F931F93CF93DF932F
:1005C000CDB7DEB7A1970FB6F894DEBF0FBECDBF93
:1005D0006C01990FEE08FF08F7FE2BC06DE28DE865
:1005E00092E00E9439028C0122273327A9012C199D
:1005F0003D094E095F0919A2CE0181967C019AE05E
:10060000892E912CA12CB12CCA01B901A50194010C
:100610000E941507605DF70162937F012115310586
:100620004105510589F7CF010E94B202800F911F49
:100630001DC0A701960119A28E010F5D1F4F8AE010
:10064000C82ED12CE12CF12CCA01B901A7019601C9
:100650000E941507605DF80162938F012115310535
:100660004105510589F7CF010E94B202A1960FB64C
:10067000F894DEBF0FBECDBFDF91CF911F910F91D8
:10068000FF90EF90DF90CF90BF90AF909F908F90B2
:1006900008950E944C071F920F920FB60F921124DB
:1006A0002F933F938F939F93AF93BF938091850236
:1006B00090918602A0918702B091880230918402C5
:1006C00023E0230F2D3720F40196A11DB11D05C095
:1006D00026E8230F0296A11DB11D2093840280936A
:1006E000850290938602A0938702B093880280913E
:1006F000890290918A02A0918B02B0918C0201969E
:10070000A11DB11D8093890290938A02A0938B0250
:10071000B0938C02BF91AF919F918F913F912F9198
:100720000F900FBE0F901F9018951F920F920FB64B
:100730000F9211242F933F934F935F936F937F9367
:100740008F939F93AF93BF93EF93FF938DE892E0C6
:100750000E941702FF91EF91BF91AF919F918F91EE
:100760007F916F915F914F913F912F910F900FBEAD
:100770000F901F9018951F920F920FB60F92112491
:100780002F938F939F93EF93FF93E0919D02F091AE
:100790009E028081E091A302F091A40282FD12C02A
:1007A00090818091A6028F5F8F732091A70282179C
:1007B00051F0E091A602F0E0E357FD4F958F809352
:1007C000A60201C08081FF91EF919F918F912F919F
:1007D0000F900FBE0F901F901895CF93DF93EDE809
:1007E000F2E01382128288EE93E0A0E0B0E084830E
:1007F0009583A683B78384E091E09183808385EC21
:1008000090E09587848784EC90E09787868780ECDA
:1008100090E0918B808B81EC90E0938B828B82ECCB
:1008200090E0958B848B86EC90E0978B868B118E75
:10083000128E138E148EEAE2F3E08EE090E0918344
:1008400080831382128281E3848326E430E036833E
:10085000258382E090E0908787836EE672E072875E
:100860006187A3E4B1E0B487A38788E290E096872C
:100870008587178645E151E0518B408BCFE0D0E072
:10088000D38BC28B158A148AC2E3C68B308F278B19
:10089000C3E0D0E0D28FC18FC0E8D2E0D48FC38F45
:1008A000B68FA58F90A3878F11A253A342A3A0E177
:1008B000B0E0B5A3A4A317A216A2A3E3A0A732A7F2
:1008C00021A7A4E0B0E0B4A7A3A776A765A76EE32D
:1008D00071E070AB67A792AB81AB13AA55AB44AB89
:1008E00041E150E057AB46AB11AE10AE44E342AF2E
:1008F0004AE550E054AF43AF45E050E056AF45AF56
:1009000048E952E050936A034093690343E551E09C
:1009100050936C0340936B034CE350E050936E0391
:1009200040936D0310926F036DE171E0709371035A
:100930006093700362E170E07093730360937203DD
:10094000109275031092740365E3609376033093FD
:1009500078032093770366E070E070937A036093E6
:10096000790360EA72E070937C0360937B0364E335
:1009700071E070937E0360937D0390938003809376
:100980007F031092810365E271E0709383036093AB
:10099000820363E170E07093850360938403109297
:1009A00087031092860366E36093880350938A035B
:1009B0004093890347E050E050938C0340938B03AE
:1009C0004CEB52E050938E0340938D0344E751E08B
:1009D0005093900340938F034EE150E05093920365
:1009E00040939103109293034CE251E0509395038E
:1009F0004093940344E150E050939703409396034F
:100A0000109299031092980347E340939A0330930E
:100A10009C0320939B0328E030E030939E032093B7
:100A20009D0325E532E03093A00320939F032FE13F
:100A300031E03093A2032093A1039093A403809309
:100A4000A3031092A50383E391E09093A7038093FF
:100A5000A603DF91CF910895CF93DF93CDB7DEB793
:100A600063970FB6F894DEBF0FBECDBF789484B500
:100A7000826084BD84B5816084BD85B5826085BD9A
:100A800085B5816085BD80916E00816080936E0028
:100A9000109281008091810082608093810080911A
:100AA00081008160809381008091800081608093CB
:100AB00080008091B10084608093B1008091B0008B
:100AC00081608093B00080917A00846080937A0086
:100AD00080917A00826080937A0080917A008160B0
:100AE00080937A0080917A00806880937A001092D7
:100AF000C100E0919D02F0919E0282E08083E0912E
:100B00009902F0919A021082E0919B02F0919C026E
:100B100080E180831092A502E091A102F091A202EF
:100B200086E08083E0919F02F091A0028081806145
:100B30008083E0919F02F091A00280818860808391
:100B4000E0919F02F091A002808180688083E09113
:100B50009F02F091A00280818F7D808302E010E0EF
:100B60008EE391E00E94D202C8010E94D402802F3D
:100B70000E948C0083E491E00E94D20261E0802F09
:100B80000E94FD0064E670E080E090E00E94680151
:100B90000F5F1F4F0A30110519F78CE00E948C007F
:100BA00060E08CE00E94FD008AEB93E0EAE2F3E073
:100BB00013AA72968E179F07D9F786E591E00E94D7
:100BC000C4020AE213E0C12C82E1F801DE011196B1
:100BD00001900D928A95E1F7F801508041802480C0
:100BE000A580B680D7803084E384F48465847684DD
:100BF000F785FB8BF8018088918885E691E00E945B
:100C0000D20283E791E00E94D20280E891E00E9444
:100C1000D20286E991E00E94D20284EA91E00E9429
:100C2000D202C4010E94D20281EB91E00E94D20262
:100C3000622D8DE892E00E94390281E491E00E94E9
:100C4000D2028CEB91E00E94D2028D2D932D0E9456
:100C5000D40287EC91E00E94D202852D942D0E944F
:100C6000D40282ED91E00E94D202852D0E942C01D7
:100C70000E94D40283EE91E00E94D202C5010E943C
:100C8000D40286EF91E00E94D202C3010E94D402F6
:100C900088E092E00E94D202C7010E94D40261E083
:100CA00070E080E090E00E946801852D0E942C0198
:100CB0002A843B84032C000C44085508092E000CA0
:100CC000AA0BBB0B9C01AD0122193309440955093C
:100CD000A4E6B0E00E940A079701FF0C440B550BF5
:100CE00022193309440955090E94EB0619012A010A
:100CF0008BE192E00E94D202C1010E94D40226142C
:100D0000370474F460E08D2D0E94FD008CE292E0C7
:100D10000E94D202CC24C394A214B3046CF404C085
:100D2000A214B3040CF04DC061E08D2D0E94FD00B3
:100D30008CE292E00E94D2028D2D0E94D40081119B
:100D400003C08CE492E002C08AE592E00E94D202E5
:100D50008CE00E94D400811103C088E692E002C0BA
:100D600086E792E00E94C4026AE070E080E090E0D2
:100D70000E9468010E5E1F4F83E0083A180709F0D1
:100D800023CFCC2059F061E08CE00E94FD0064E6A6
:100D900070E080E090E00E94680110C060E08CE0AC
:100DA0000E94FD0009E512E00150110939F068EEDA
:100DB00073E080E090E00E946801F6CF0E94A802F4
:100DC00000CFFB89F11104C061E08D2D0E94FD0070
:100DD0008CE392E0AFCF052E97FB1EF400940E94A7
:100DE000020757FD07D00E94150707FC03D04EF4F9
:100DF0000C94020750954095309521953F4F4F4FE9
:100E00005F4F089590958095709561957F4F8F4FB6
:100E10009F4F08950E943707A59F900DB49F900D96
:100E2000A49F800D911D11240895A1E21A2EAA1BE2
:100E3000BB1BFD010DC0AA1FBB1FEE1FFF1FA2178A
:100E4000B307E407F50720F0A21BB30BE40BF50B87
:100E5000661F771F881F991F1A9469F76095709510
:100E6000809590959B01AC01BD01CF010895A29F93
:100E7000B001B39FC001A39F700D811D1124911D6E
:100E8000B29F700D811D1124911D0895EE0FFF1F5B
:100E90000590F491E02D099481E090E0F8940C9491
:060EA0005107F894FFCF9A
:100EA600000000003902A201D00186020102DF0122
:100EB600F3010D0A00756E6B6E6F776E00766172C8
:100EC600696F757300626F6E736169006361637445
:100ED60075730070656163655F6C696C7900506954
:100EE6006E20002069732073657420746F204F553F
:100EF600545055540A0046696E69736865642073D8
:100F060065747570003C706C616E745F7379737490
:100F1600656D002C636974793D4265726C696E007B
:100F26002C6C6F636174696F6E3D6F646572737468
:100F36007261737365002C726F6F6D3D616E6472C2
:100F4600657773002C706C616E745F747970653DA3
:100F5600002C706C616E745F69643D007365727617
:100F66006F5F70696E3D002C726561645F70696EBB
:100F76003D002C73656E736F725F72656164696E96
:100F8600673D002C6D6F695F73657474696E675F8A
:100F9600686967683D002C6D6F695F736574746975
:100FA6006E675F6C6F773D002C73656E736F725F53
:100FB6006C6F775F76616C75653D002C6D6F69733C
:100FC600747572655F6C6576656C3D002C696E5F45
:100FD600646561645F7A6F6E653D30002C696E5F93
:100FE600646561645F7A6F6E653D31002C7365726E
:100FF600766F5F6F70656E3D31002C736572766F2C
:101006005F6F70656E3D30002C70756D705F6F7030
:10101600656E3D303E002C70756D705F6F70656E4D
:041026003D313E001A
:00000001FF
