:100000000C9462000C948A000C948A000C948A0070
:100010000C948A000C948A000C948A000C948A0038
:100020000C948A000C948A000C948A000C948A0028
:100030000C948A000C948A000C948A000C948A0018
:100040000C9434030C948A000C94A4030C947E0347
:100050000C948A000C948A000C948A000C948A00F8
:100060000C948A000C948A000000000023002600F3
:10007000290000000008000201000003040700003E
:1000800000000000000000000000250028002B00F8
:1000900000000000240027002A00040404040404D3
:1000A0000404020202020202030303030303010227
:1000B00004081020408001020408102001020408F6
:1000C0001020D60311241FBECFEFD8E0DEBFCDBF76
:1000D00012E0A0E0B1E0E8EAFEE002C005900D9277
:1000E000A237B107D9F723E0A2E7B2E001C01D9221
:1000F000A639B207E1F710E0C2E6D0E004C02197CC
:10010000FE010E944707C136D107C9F70E941305B7
:100110000C9452070C94000090E0FC01E255FF4F54
:100120002491FC01E656FF4F8491882399F090E0DA
:10013000880F991FFC01E057FF4FA591B491FC0176
:10014000EA57FF4F859194918FB7F894EC91E22B89
:10015000EC938FBF0895833081F028F4813099F0BB
:100160008230A1F008958730A9F08830B9F084304A
:10017000D1F4809180008F7D03C0809180008F77C3
:1001800080938000089584B58F7702C084B58F7DF9
:1001900084BD08958091B0008F7703C08091B00036
:1001A0008F7D8093B0000895CF93DF93282F30E0A8
:1001B000F901EE58FF4F8491F901E255FF4FD491B8
:1001C000F901E656FF4FC491CC2391F081110E94B2
:1001D000AB00EC2FF0E0EE0FFF1FE859FF4FA591A9
:1001E000B491EC91ED2381E090E021F480E002C035
:1001F00080E090E0DF91CF9108951F93CF93DF933C
:10020000282F30E0F901EE58FF4F8491F901E255B3
:10021000FF4FD491F901E656FF4FC491CC23C1F0B2
:10022000162F81110E94AB00EC2FF0E0EE0FFF1FA4
:10023000EA57FF4FA591B4919FB7F894111104C0EC
:100240008C91D095D82302C0EC91DE2BDC939FBF1C
:10025000DF91CF911F9108953FB7F8948091770275
:1002600090917802A0917902B0917A0226B5A89B6C
:1002700005C02F3F19F00196A11DB11D3FBFBA2F38
:10028000A92F982F8827820F911DA11DB11DBC0198
:10029000CD0142E0660F771F881F991F4A95D1F75D
:1002A00008958F929F92AF92BF92CF92DF92EF927A
:1002B000FF926B017C010E942C014B015C01C11477
:1002C000D104E104F104F1F00E942C01DC01CB0126
:1002D00088199909AA09BB09883E9340A105B1056F
:1002E00070F321E0C21AD108E108F10888EE880E07
:1002F00083E0981EA11CB11CC114D104E104F104D7
:1003000019F7DDCFFF90EF90DF90CF90BF90AF90C7
:100310009F908F900895CF92DF92EF92FF920F936C
:100320001F93CF93DF936C017A018B01C0E0D0E083
:10033000CE15DF0581F0D8016D918D01D601ED91CB
:10034000FC910190F081E02DC6010995892B11F0F7
:100350002196EECF7E01C701DF91CF911F910F91C2
:10036000FF90EF90DF90CF900895089580E090E0A7
:100370000895FC01538D448D252F30E0842F90E0AB
:10038000821B930B541710F0CF9608950197089590
:10039000FC01918D828D981761F0828DDF01A80F8D
:1003A000B11D5D968C91928D9F5F9F73928F90E0AF
:1003B00008958FEF9FEF0895FC01918D828D98171E
:1003C00031F0828DE80FF11D858D90E008958FEF5B
:1003D0009FEF0895FC01918D228D892F90E0805C24
:1003E0009F4F821B91098F73992708958BE792E0A5
:1003F0000E94EA0121E0892B09F420E0822F089570
:10040000FC01848DDF01A80FB11DA35ABF4F2C91B1
:10041000848D90E001968F739927848FA689B78980
:100420002C93A089B1898C91837080648C93938D77
:10043000848D981306C00288F389E02D80818F7D1A
:1004400080830895EF92FF920F931F93CF93DF93D2
:10045000EC0181E0888F9B8D8C8D981305C0E88915
:10046000F989808185FD26C0F62E0B8D10E00F5F87
:100470001F4F0F731127E02E8C8DE8120CC00FB6A2
:1004800007FCFACFE889F989808185FFF5CFCE0195
:100490000E940002F1CF8B8DFE01E80FF11DE35A9F
:1004A000FF4FF0829FB7F8940B8FEA89FB89808118
:1004B00080620AC09FB7F894EE89FF896083E8895B
:1004C000F98980818370806480839FBF81E090E0A0
:1004D000DF91CF911F910F91FF90EF900895CF93EF
:1004E000DF93EC01888D8823C9F0EA89FB8980813C
:1004F00085FD05C0A889B9898C9186FD0FC00FB60E
:1005000007FCF5CF808185FFF2CFA889B9898C914E
:1005100085FFEDCFCE010E940002E7CFDF91CF91A2
:10052000089580E090E0892B29F00E94F601811166
:100530000C9400000895009769F0FC0101900020E0
:10054000E9F73197AF01481B590BBC018BE792E0EB
:100550000C948B0180E090E00895CF93DF930E948C
:100560009B02EC0184E191E00E949B028C0F9D1F95
:10057000DF91CF9108950C949B028F929F92AF923E
:10058000BF92CF92DF92EF92FF920F931F93CF9380
:10059000DF93CDB7DEB7A1970FB6F894DEBF0FBEDD
:1005A000CDBF6C01990FEE08FF08F7FE2BC06DE27E
:1005B0008BE792E00E9422028C0122273327A901B7
:1005C0002C193D094E095F0919A2CE0181967C01C3
:1005D0009AE0892E912CA12CB12CCA01B901A50158
:1005E00094010E941607605DF70162937F01211557
:1005F00031054105510589F7CF010E949B02800F0B
:10060000911F1DC0A701960119A28E010F5D1F4FFA
:100610008AE0C82ED12CE12CF12CCA01B901A70126
:1006200096010E941607605DF80162938F01211503
:1006300031054105510589F7CF010E949B02A19622
:100640000FB6F894DEBF0FBECDBFDF91CF911F91E3
:100650000F91FF90EF90DF90CF90BF90AF909F9061
:100660008F9008950E944D071F920F920FB60F9220
:1006700011242F933F938F939F93AF93BF938091B8
:10068000730290917402A0917502B091760230913C
:10069000720223E0230F2D3720F40196A11DB11D16
:1006A00005C026E8230F0296A11DB11D20937202FA
:1006B0008093730290937402A0937502B0937602B4
:1006C0008091770290917802A0917902B0917A029C
:1006D0000196A11DB11D8093770290937802A0939B
:1006E0007902B0937A02BF91AF919F918F913F9120
:1006F0002F910F900FBE0F901F9018951F920F9281
:100700000FB60F9211242F933F934F935F936F93E4
:100710007F938F939F93AF93BF93EF93FF938BE759
:1007200092E00E940002FF91EF91BF91AF919F91E3
:100730008F917F916F915F914F913F912F910F908A
:100740000FBE0F901F9018951F920F920FB60F9229
:1007500011242F938F939F93EF93FF93E0918B023C
:10076000F0918C028081E0919102F091920282FDE1
:1007700012C09081809194028F5F8F7320919502B7
:10078000821751F0E0919402F0E0E558FD4F958F0B
:100790008093940201C08081FF91EF919F918F918E
:1007A0002F910F900FBE0F901F901895CF93DF934E
:1007B000EBE7F2E01382128288EE93E0A0E0B0E073
:1007C00084839583A683B78386E091E091838083B9
:1007D00085EC90E09587848784EC90E09787868706
:1007E00080EC90E0918B808B81EC90E0938B828BFE
:1007F00082EC90E0958B848B86EC90E0978B868BD7
:10080000118E128E138E148EE8E1F3E08EE090E0EC
:10081000918380831382128281E3848326E430E013
:100820003683258382E090E090878783AEE6B2E04E
:10083000B287A18763E471E07487638788E290E000
:1008400096878587178647E151E0518B408BCFE033
:10085000D0E0D38BC28B158A148AC2E3C68B308F4B
:10086000278BC3E0D0E0D28FC18FC0E8D2E0D48F15
:10087000C38F768F658F90A3878F11A253A342A356
:10088000C0E1D0E0D5A3C4A317A216A2C3E3C0A7BA
:1008900032A721A7C4E0D0E0D4A7C3A7B6A7A5A7D5
:1008A00070AB67A792AB81AB13AA55AB44AB41E1E8
:1008B00050E057AB46AB11AE10AE44E342AF4AE551
:1008C00050E054AF43AF45E050E056AF45AF48E984
:1008D00052E0509358034093570343E551E050933F
:1008E0005A03409359034CE350E050935C03409308
:1008F0005B0310925D036FE171E070935F0360939F
:100900005E0362E170E07093610360936003109294
:1009100063031092620365E360936403309366039C
:100920002093650366E070E070936803609367034B
:1009300060EA72E070936A036093690366E571E0B0
:1009400070936C0360936B0390936E0380936D03BD
:1009500010926F0367E271E070937103609370030C
:1009600063E170E0709373036093720310927503F8
:100970001092740366E36093760350937803409378
:10098000770347E050E050937A03409379034CEBB0
:1009900052E050937C0340937B0344E751E0509333
:1009A0007E0340937D034EE150E0509380034093DB
:1009B0007F03109281034EE251E0509383034093F2
:1009C000820344E150E050938503409384031092E6
:1009D00087031092860347E34093880330938A038A
:1009E0002093890328E030E030938C0320938B031D
:1009F00025E532E030938E0320938D032FE131E023
:100A00003093900320938F039093920380939103EC
:100A10001092930385E391E0909395038093940360
:100A2000DF91CF910895CF93DF93CDB7DEB7639772
:100A30000FB6F894DEBF0FBECDBF789484B5826048
:100A400084BD84B5816084BD85B5826085BD85B572
:100A5000816085BD80916E00816080936E001092F0
:100A6000810080918100826080938100809181006B
:100A700081608093810080918000816080938000FC
:100A80008091B10084608093B1008091B00081605A
:100A90008093B00080917A00846080937A00809186
:100AA0007A00826080937A0080917A0081608093DE
:100AB0007A0080917A00806880937A001092C10059
:100AC000E0918B02F0918C0282E08083E0918702BA
:100AD000F09188021082E0918902F0918A0280E10F
:100AE000808310929302E0918F02F091900286E051
:100AF0008083E0918D02F0918E02808180618083FD
:100B0000E0918D02F0918E02808188608083E09177
:100B10008D02F0918E02808180688083E0918D0249
:100B2000F0918E0280818F7D808302E010E080E46E
:100B300091E00E94BB02C8010E94BD02802F0E946A
:100B40008C0085E491E00E94BB0264E670E080E0E6
:100B500090E00E9451010F5F1F4F0A30110539F7D5
:100B60008CE00E948C0088EA93E0E8E1F3E013AAAD
:100B700072968E179F07D9F788E591E00E94AD0223
:100B800008E113E0C12C82E1F801DE011196019029
:100B90000D928A95E1F7F801308051802480A5807C
:100BA000B680D7804084E384F48465847684F785B6
:100BB000FB8BF8018088918887E691E00E94BB0258
:100BC00084E791E00E94BB0281E891E00E94BB02B1
:100BD00087E991E00E94BB0285EA91E00E94BB0296
:100BE000C4010E94BB0282EB91E00E94BB02622D15
:100BF0008BE792E00E94220283E491E00E94BB0214
:100C00006AE070E080E090E00E9451018DEB91E09D
:100C10000E94BB028D2D942D0E94BD0288EC91E0B4
:100C20000E94BB02832D952D0E94BD0283ED91E0B1
:100C30000E94BB02C5010E94BD0286EE91E00E94A7
:100C4000BB02C3010E94BD0288EF91E00E94BB027B
:100C5000C7010E94BD02832D8E3008F08E50877030
:100C6000806480937C0080917A00806480937A0015
:100C700080917A0086FDFCCF2091780080917900E8
:100C80002A843B84032C000C4408550830E0382BA0
:100C9000C901330FAA0BBB0B9C01AD01221933090B
:100CA00044095509A4E6B0E00E940B079701FF0C28
:100CB000440B550B22193309440955090E94EC06CF
:100CC00019012A018BE092E00E94BB02C1010E943F
:100CD000BD026AE070E080E090E00E9451012614BD
:100CE000370474F460E08D2D0E94FD008CE192E0E9
:100CF0000E94BB02CC24C394A214B3046CF404C0BD
:100D0000A214B3040CF05EC061E08D2D0E94FD00C2
:100D10008CE192E00E94BB026AE070E080E090E02B
:100D20000E9451018D2D0E94D400811103C08CE3DB
:100D300092E002C08AE492E00E94BB026AE070E0A6
:100D400080E090E00E9451018CE00E94D40081116B
:100D500003C088E592E002C085E692E00E94AD0201
:100D600064E670E080E090E00E9451010E5E1F4F4B
:100D700086E993E08017910709F005CFCC2059F060
:100D800061E08CE00E94FD00E4E6F0E0F0930101F8
:100D9000E09300010AC060E08CE00E94FD0080E664
:100DA0009AEE90930101809300016091000170918F
:100DB0000101072E000C880B990B0E9451010E9423
:100DC0009102DECEFB89F11104C061E08D2D0E94FD
:100DD000FD008CE292E09ECF052E97FB1EF400945E
:100DE0000E94030757FD07D00E94160707FC03D097
:100DF0004EF40C94030750954095309521953F4F44
:100E00004F4F5F4F089590958095709561957F4FF6
:100E10008F4F9F4F08950E943807A59F900DB49F54
:100E2000900DA49F800D911D11240895A1E21A2E0A
:100E3000AA1BBB1BFD010DC0AA1FBB1FEE1FFF1F7E
:100E4000A217B307E407F50720F0A21BB30BE40BCE
:100E5000F50B661F771F881F991F1A9469F7609515
:100E60007095809590959B01AC01BD01CF010895CF
:100E7000A29FB001B39FC001A39F700D811D1124DB
:100E8000911DB29F700D811D1124911D0895EE0FCB
:100E9000FF1F0590F491E02D099481E090E0F89413
:080EA0000C945207F894FFCFF7
:100EA80060EA0000000022028B01B9016F02EA012A
:100EB800C801DC010D0A00756E6B6E6F776E0076E7
:100EC8006172696F757300626F6E73616900636147
:100ED800637475730070656163655F6C696C790034
:100EE80050696E20002069732073657420746F2028
:100EF8004F55545055540A0046696E6973686564C5
:100F080020736574757000706C616E745F737973AB
:100F180074656D002C636974793D4265726C696E05
:100F2800002C6C6F636174696F6E3D6F64657273DA
:100F3800747261737365002C726F6F6D3D616E64BE
:100F480072657773002C706C616E745F747970656C
:100F58003D002C706C616E745F69643D007365724E
:100F6800766F5F70696E3D002C726561645F7069B1
:100F78006E3D002C6D6F695F73657474696E675F91
:100F8800686967683D002C6D6F695F736574746983
:100F98006E675F6C6F773D002C73656E736F725F61
:100FA8006C6F775F76616C75653D002C6D6F69734A
:100FB800747572655F6C6576656C3D002C696E5F53
:100FC800646561645F7A6F6E653D66002C696E5F6B
:100FD800646561645F7A6F6E653D74002C73657239
:100FE800766F5F6F70656E3D74002C736572766FF7
:100FF8005F6F70656E3D66002C70756D705F6F7009
:10100800656E3D66002C70756D705F6F70656E3D26
:02101800740062
:107800000C94343C0C94513C0C94513C0C94513CE1
:107810000C94513C0C94513C0C94513C0C94513CB4
:107820000C94513C0C94513C0C94513C0C94513CA4
:107830000C94513C0C94513C0C94513C0C94513C94
:107840000C94513C0C94513C0C94513C0C94513C84
:107850000C94513C0C94513C0C94513C0C94513C74
:107860000C94513C0C94513C11241FBECFEFD8E036
:10787000DEBFCDBF11E0A0E0B1E0ECE9FFE702C060
:1078800005900D92A230B107D9F712E0A2E0B1E065
:1078900001C01D92AD30B107E1F70E942D3D0C945F
:1078A000CC3F0C94003C982F959595959595959582
:1078B000905D8F708A307CF0282F295A8091C0000B
:1078C00085FFFCCF9093C6008091C00085FFFCCF60
:1078D0002093C6000895282F205DF0CF982F809127
:1078E000C00085FFFCCF9093C6000895EF92FF92F1
:1078F0000F931F93EE24FF2487018091C00087FD22
:1079000017C00894E11CF11C011D111D81E4E8164B
:1079100082E4F8068FE0080780E0180770F3E09132
:107920000401F091050109958091C00087FFE9CF1E
:107930008091C6001F910F91FF90EF9008950E94D3
:10794000763C982F8091C00085FFFCCF9093C600B5
:1079500091362CF490330CF09053892F089597555D
:10796000892F08951F930E949F3C182F0E949F3CCF
:107970001295107F810F1F9108951F93182F882350
:1079800021F00E94763C1150E1F71F9108951F935A
:10799000182F0E94763C803249F0809103018F5F5E
:1079A000809303018530C1F01F9108958091C0003C
:1079B00085FFFCCF84E18093C6008091C00085FFE5
:1079C000FCCF1093C6008091C00085FFFCCF80E102
:1079D0008093C6001F910895E0910401F091050184
:1079E00009951F9108950E94763C803241F0809164
:1079F00003018F5F80930301853081F008958091AA
:107A0000C00085FFFCCF84E18093C6008091C00058
:107A100085FFFCCF80E18093C6000895E0910401CA
:107A2000F09105010995089540E951E08823A1F0FE
:107A30002D9A28EE33E0FA013197F1F721503040CA
:107A4000D1F72D9828EE33E0FA013197F1F7215064
:107A50003040D1F7815061F708953F924F925F9285
:107A60006F927F928F929F92AF92BF92CF92DF924E
:107A7000EF92FF920F931F93CF93DF93000080E16B
:107A80008093C4001092C50088E18093C10086E015
:107A90008093C2005098589A259A81E00E94143D24
:107AA00024E1F22E9EE1E92E85E9D82E0FE0C02ECA
:107AB00010E1B12EAA24A394B1E49B2EA6E58A2E50
:107AC000F2E57F2EE0E26E2E79E4572E63E5462E36
:107AD00050E5352E0E94763C8033B1F18133B9F107
:107AE000803409F46FC0813409F476C0823409F41B
:107AF00085C0853409F488C0803531F1823521F1A3
:107B0000813511F1853509F485C0863509F48DC0BC
:107B1000843609F496C0843709F403C1853709F423
:107B200072C1863709F466C0809103018F5F80932C
:107B30000301853079F6E0910401F0910501099582
:107B40000E94763C803351F60E94F33CC3CF0E94E2
:107B5000763C803249F78091C00085FFFCCFF092DF
:107B6000C6008091C00085FFFCCF9092C600809136
:107B7000C00085FFFCCF8092C6008091C00085FFC9
:107B8000FCCF7092C6008091C00085FFFCCF609250
:107B9000C6008091C00085FFFCCF5092C600809146
:107BA000C00085FFFCCF4092C6008091C00085FFD9
:107BB000FCCF3092C6008091C00085FFFCCFB09210
:107BC000C60088CF0E94763C863808F4BDCF0E945C
:107BD000763C0E94F33C7ECF0E94763C803809F4CC
:107BE0009CC0813809F40BC1823809F43CC1883942
:107BF00009F48FC080E00E94C73C6CCF84E10E94F2
:107C0000BD3C0E94F33C66CF85E00E94BD3C0E94D3
:107C1000F33C60CF0E94763C809306010E94763C44
:107C2000809307010E94F33C55CF0E94763C80333D
:107C300009F41DC183E00E94BD3C80E00E94C73C66
:107C400049CF0E94763C809309020E94763C809343
:107C5000080280910C028E7F80930C020E94763C79
:107C6000853409F415C18091080290910902892B8D
:107C700089F000E010E00E94763CF801E85FFE4FDA
:107C800080830F5F1F4F80910802909109020817AF
:107C9000190788F30E94763C803209F045CF809125
:107CA0000C0280FF01C16091060170910701660F0F
:107CB000771F7093070160930601A0910802B091AD
:107CC00009021097C9F0E8E0F1E09B01AD014E0F09
:107CD0005F1FF999FECF32BD21BD819180BDFA9A17
:107CE000F99A2F5F3F4FE417F50799F76A0F7B1F4B
:107CF00070930701609306018091C00085FFFCCF5F
:107D0000F092C6008091C00085FFFCCFB092C60003
:107D1000E1CE83E00E94C73CDDCE82E00E94C73CFA
:107D2000D9CE0E94763C809309020E94763C8093D3
:107D300008028091060190910701880F991F909386
:107D40000701809306010E94763C853409F4A6C0A1
:107D500080910C028E7F80930C020E94763C8032D0
:107D600009F0B8CE8091C00085FFFCCFF092C6002C
:107D7000609108027091090261157105B9F140E046
:107D800050E080910C02A82FA170B82FB27011C0E2
:107D9000BB2309F45CC0E0910601F0910701319624
:107DA000F0930701E09306014F5F5F4F46175707B7
:107DB000E8F4AA2369F3F999FECF209106013091E6
:107DC000070132BD21BDF89A90B58091C00085FFB2
:107DD000FCCF9093C6002F5F3F4F30930701209355
:107DE00006014F5F5F4F4617570718F38091C00099
:107DF00085FDE5CE8091C00085FFF8CFE0CE81E023
:107E00000E94C73C67CE0E94763C803209F08CCE3F
:107E10008091C00085FFFCCFF092C6008091C00029
:107E200085FFFCCFE092C6008091C00085FFFCCFAB
:107E3000D092C6008091C00085FFFCCFC092C600E2
:107E40008091C00085FFFCCFB092C60043CEE09188
:107E50000601F091070194918091C00085FFFCCF4D
:107E60009093C6009CCF80E10E94C73C33CE0E9415
:107E7000763C0E94763C182F0E94763C112309F430
:107E800083C0113009F484C08FE00E94C73C22CE29
:107E900080910C02816080930C02E5CE80910C02EF
:107EA000816080930C0259CF809107018823880F4D
:107EB000880B8A2180930B02809106019091070123
:107EC000880F991F90930701809306018091080203
:107ED00080FF09C080910802909109020196909359
:107EE000090280930802F894F999FECF1127E091D6
:107EF0000601F0910701C8E0D1E08091080290915D
:107F00000902103091F40091570001700130D9F34B
:107F100003E000935700E89500915700017001308D
:107F2000D9F301E100935700E89509901990009169
:107F3000570001700130D9F301E000935700E89534
:107F40001395103498F011270091570001700130FB
:107F5000D9F305E000935700E895009157000170B0
:107F60000130D9F301E100935700E895329602976A
:107F700009F0C7CF103011F00296E5CF112480919F
:107F8000C00085FFB9CEBCCE8EE10E94C73CA2CD19
:0C7F900085E90E94C73C9ECDF894FFCF0D
:027F9C00800063
:040000030000780081
:00000001FF
