:100000000C9463000C948B000C948B000C948B006C
:100010000C948B000C948B000C948B000C948B0034
:100020000C948B000C948B000C948B000C948B0024
:100030000C948B000C948B000C948B000C948B0014
:100040000C9465040C948B000C94D5040C94AF04B0
:100050000C948B000C948B000C948B000C948B00F4
:100060000C948B000C948B000000000023002600F1
:10007000290000000008000201000003040700003E
:1000800000000000000000000000250028002B00F8
:1000900000000000240027002A00040404040404D3
:1000A0000404020202020202030303030303010227
:1000B00004081020408001020408102001020408F6
:1000C00010200705D30811241FBECFEFD8E0DEBFF4
:1000D000CDBF11E0A0E0B1E0E8E7F7E102C0059094
:1000E0000D92A63CB107D9F723E0A6ECB1E001C020
:1000F0001D92A930B207E1F710E0C2E6D0E004C0DB
:100100002197FE010E94AD09C136D107C9F70E94AF
:10011000D0050C94AF0B0C94000090E0FC01E2556C
:10012000FF4F2491FC01E656FF4F8491882399F0FC
:1001300090E0880F991FFC01E057FF4FA591B49103
:10014000FC01EA57FF4F859194918FB7F894EC9199
:10015000E22BEC938FBF0895833081F028F4813037
:1001600099F08230A1F008958730A9F08830B9F075
:100170008430D1F4809180008F7D03C08091800015
:100180008F7780938000089584B58F7702C084B5FF
:100190008F7D84BD08958091B0008F7703C08091DA
:1001A000B0008F7D8093B00008951F93CF93DF93AD
:1001B000282F30E0F901EE58FF4F8491F901E25504
:1001C000FF4FD491F901E656FF4FC491CC23C1F003
:1001D000162F81110E94AC00EC2FF0E0EE0FFF1FF4
:1001E000EA57FF4FA591B4919FB7F894111104C03D
:1001F0008C91D095D82302C0EC91DE2BDC939FBF6D
:10020000DF91CF911F9108953FB7F8948091CB0172
:100210009091CC01A091CD01B091CE0126B5A89BC3
:1002200005C02F3F19F00196A11DB11D3FBFBA2F88
:10023000A92F982F8827820F911DA11DB11DBC01E8
:10024000CD0142E0660F771F881F991F4A95D1F7AD
:1002500008958F929F92AF92BF92CF92DF92EF92CA
:10026000FF926B017C010E9404014B015C01C114EF
:10027000D104E104F104F1F00E940401DC01CB019E
:1002800088199909AA09BB09883E9340A105B105BF
:1002900070F321E0C21AD108E108F10888EE880E57
:1002A00083E0981EA11CB11CC114D104E104F10427
:1002B00019F7DDCFFF90EF90DF90CF90BF90AF9018
:1002C0009F908F9008950895CF92DF92EF92FF92C2
:1002D0000F931F93CF93DF936C017A018B01C0E0E2
:1002E000D0E0CE15DF0581F0D8016D918D01D601EA
:1002F000ED91FC910190F081E02DC6010995892BCB
:1003000011F02196EECF7E01C701DF91CF911F91B1
:100310000F91FF90EF90DF90CF90089580E090E0F4
:100320000895FC01538D448D252F30E0842F90E0FB
:10033000821B930B541710F0CF96089501970895E0
:10034000FC01918D828D981761F0828DDF01A80FDD
:10035000B11D5D968C91928D9F5F9F73928F90E0FF
:1003600008958FEF9FEF0895FC01918D828D98176E
:1003700031F0828DE80FF11D858D90E008958FEFAB
:100380009FEF0895FC01918D228D892F90E0805C74
:100390009F4F821B91098F73992708958FEC91E0ED
:1003A0000E94C20121E0892B09F420E0822F0895E8
:1003B000FC01848DDF01A80FB11DA35ABF4F2C9102
:1003C000848D90E001968F739927848FA689B789D1
:1003D0002C93A089B1898C91837080648C93938DC8
:1003E000848D981306C00288F389E02D80818F7D6B
:1003F00080830895EF92FF920F931F93CF93DF9323
:10040000EC0181E0888F9B8D8C8D981305C0E88965
:10041000F989808185FD26C0F62E0B8D10E00F5FD7
:100420001F4F0F731127E02E8C8DE8120CC00FB6F2
:1004300007FCFACFE889F989808185FFF5CFCE01E5
:100440000E94D801F1CF8B8DFE01E80FF11DE35A18
:10045000FF4FF0829FB7F8940B8FEA89FB89808168
:1004600080620AC09FB7F894EE89FF896083E889AB
:10047000F98980818370806480839FBF81E090E0F0
:10048000DF91CF911F910F91FF90EF900895CF933F
:10049000DF93EC01888D8823C9F0EA89FB8980818C
:1004A00085FD05C0A889B9898C9186FD0FC00FB65E
:1004B00007FCF5CF808185FFF2CFA889B9898C919F
:1004C00085FFEDCFCE010E94D801E7CFDF91CF911C
:1004D000089580E090E0892B29F00E94CE018111DF
:1004E0000C9400000895009769F0FC010190002031
:1004F000E9F73197AF01481B590BBC018FEC91E034
:100500000C94640180E090E008958F929F92AF92E6
:10051000BF920F931F93CF93DF93CDB7DEB7A19711
:100520000FB6F894DEBF0FBECDBF19A2423008F45B
:100530004AE08E010F5D1F4F842E912CA12CB12C0F
:10054000A50194010E947C09E62FB901CA0101505E
:100550001109EA3014F4E05D01C0E95CD801EC93C4
:10056000232B242B252B61F7C8010E947302A1962F
:100570000FB6F894DEBF0FBECDBFDF91CF911F91B4
:100580000F91BF90AF909F908F900895CF92DF9280
:10059000EF92FF92CF93DF936B017C016DE28FECC2
:1005A00091E00E94FA01EC0166277727CB016C19D4
:1005B0007D098E099F094AE00E9485028C0F9D1FCC
:1005C000DF91CF91FF90EF90DF90CF900895CF9380
:1005D000DF93EC0188819981009711F00E944B0A0A
:1005E000198218821D821C821B821A82DF91CF9190
:1005F0000895FC01808191810C944B0A0E949A0B12
:100600000F931F93CF93DF93EC018881998100971B
:1006100029F02A813B812617370788F48B016F5F09
:100620007F4F0E94D40A009761F0998388831B83CF
:100630000A832C813D81232B11F4FC01108281E07F
:1006400001C080E0DF91CF911F910F910895EF924B
:10065000FF920F931F93CF93DF936115710511F4F0
:1006600080E01CC041155105C1F07B01EC018C817B
:100670009D818A01080F191FB801CE010E94000355
:10068000882371F3288139818C819D81B701820F84
:10069000931F0E94A80B1D830C8381E0DF91CF91F3
:1006A0001F910F91FF90EF900895FB0144815581B8
:1006B000608171810C942703CF93DF93EC01FB01E0
:1006C00044815581608171810E942703811103C09B
:1006D000CE010E94E702CE01DF91CF910895EF9203
:1006E000FF920F931F93CF93DF93EC017B018A015D
:1006F000BA010E940003811104C0CE010E94E702EA
:1007000007C01D830C83B701888199810E94A80BC3
:10071000CE01DF91CF911F910F91FF90EF9008953F
:10072000CF93DF93EC01FB018617970761F060819F
:1007300071816115710529F0448155810E946F0313
:1007400002C00E94E702CE01DF91CF910895FC0123
:100750001182108213821282158214820C949003EB
:10076000FC0111821082138212821582148261159B
:10077000710551F0FB0101900020E9F73197AF01BD
:10078000461B570B0C946F0308952F923F924F9284
:100790005F926F927F928F929F92AF92BF92CF9211
:1007A000DF92EF92FF920F931F93CF93DF93CDB71A
:1007B000DEB729970FB6F894DEBF0FBECDBF4C0150
:1007C0003B014987190128018C010C5F1F4F65EC23
:1007D00071E0C8010E94B003F4017182608213824B
:1007E00012821A8219821C821B821E821D82F98546
:1007F000FF831886BE01695F7F4FFB0101900020D7
:10080000E9F73197AF01461B570BCE0101963C012A
:100810000E946F0360167106F9F0F40184819581DE
:10082000009739F069817A8161157105E9F50E94B7
:100830004B0A89819A81F401958384838B819C8101
:10084000978386838D819E81918780871A82198202
:100850001C821B821E821D82C3010E94F902F401C8
:100860003386228655864486F786E686D18AC08AF4
:10087000B38AA28A148A29960FB6F894DEBF0FBEF7
:10088000CDBFDF91CF911F910F91FF90EF90DF903F
:10089000CF90BF90AF909F908F907F906F905F9020
:1008A0004F903F902F900895F401468157812D81FC
:1008B0003E814217530708F4BACF0E94A80B8D81DE
:1008C0009E81F40191878087C5CF1F920F920FB64A
:1008D0000F9211242F933F938F939F93AF93BF93C6
:1008E0008091C7019091C801A091C901B091CA013E
:1008F0003091C60123E0230F2D3720F40196A11D6E
:10090000B11D05C026E8230F0296A11DB11D20933D
:10091000C6018093C7019093C801A093C901B09309
:10092000CA018091CB019091CC01A091CD01B091F1
:10093000CE010196A11DB11D8093CB019093CC01F6
:10094000A093CD01B093CE01BF91AF919F918F91B4
:100950003F912F910F900FBE0F901F9018951F92EF
:100960000F920FB60F9211242F933F934F935F93E3
:100970006F937F938F939F93AF93BF93EF93FF9367
:100980008FEC91E00E94D801FF91EF91BF91AF9160
:100990009F918F917F916F915F914F913F912F9197
:1009A0000F900FBE0F901F9018951F920F920FB6C9
:1009B0000F9211242F938F939F93EF93FF93E091C6
:1009C000DF01F091E0018081E091E501F091E60125
:1009D00082FD12C090818091E8018F5F8F7320911A
:1009E000E901821751F0E091E801F0E0E153FE4F98
:1009F000958F8093E80101C08081FF91EF919F91D5
:100A00008F912F910F900FBE0F901F901895AF925E
:100A1000BF92CF92DF92EF92FF920F931F93EFEC72
:100A2000F1E01382128288EE93E0A0E0B0E08483CC
:100A30009583A683B7838CE091E09183808385ECD6
:100A400090E09587848784EC90E09787868780EC98
:100A500090E0918B808B81EC90E0938B828B82EC89
:100A600090E0958B848B86EC90E0978B868B118E33
:100A7000128E138E148E6AE171E08FEF92E00E9465
:100A8000B00388E2A82EB12C93E4C92EDD24D394C0
:100A90002EE6E22E22E0F22E02E010E026E430E024
:100AA00041E36EE070E08CE692E00E94C50330E81E
:100AB000E32E32E0F32E03E010E026E430E042E3E0
:100AC0006FE070E081E892E00E94C5034EE6E42EFC
:100AD00042E0F42E04E010E026E430E043E360E17D
:100AE00070E086E992E00E94C5035CE3A52EB12C7C
:100AF00063E5C62EDD24D39478E9E72E72E0F72E65
:100B000005E010E02AE530E044E361E170E08BEAC3
:100B100092E00E94C503E8E2AE2EB12CF6E5CF2E9E
:100B2000DD24D394A0EAEA2EA2E0FA2E06E010E03B
:100B300026E430E045E362E170E080EC92E00E9460
:100B4000C503B4E7CB2EDD24D3941CEBE12E12E0D9
:100B5000F12E07E010E026E430E046E363E170E0C8
:100B600085ED92E00E94C5030FE1C02EDD24D394F1
:100B700085E5E82E82E0F82E08E010E026E430E07B
:100B800047E364E170E08AEE92E00E94C5031F91A2
:100B90000F91FF90EF90DF90CF90BF90AF900895AE
:100BA000CF93DF93CDB7DEB7C854D1090FB6F89411
:100BB000DEBF0FBECDBF789484B5826084BD84B59E
:100BC000816084BD85B5826085BD85B5816085BD48
:100BD00080916E00816080936E0010928100809100
:100BE0008100826080938100809181008160809388
:100BF0008100809180008160809380008091B100AD
:100C000084608093B1008091B00081608093B000D7
:100C100080917A00846080937A0080917A0082606B
:100C200080937A0080917A00816080937A0080912D
:100C30007A00806880937A001092C100E091DF0111
:100C4000F091E00182E08083E091DB01F091DC0132
:100C50001082E091DD01F091DE018FEC8083109233
:100C6000E701E091E301F091E40186E08083E09107
:100C7000E101F091E201808180618083E091E101F6
:100C8000F091E201808188608083E091E101F09140
:100C9000E201808180688083E091E101F091E201CE
:100CA00080818F7D808352E0C52ED12CE12CF12CE8
:100CB0008CE291E00E9473024AE0C701B6010E94F3
:100CC00085028C2D0E948D0081E391E00E947302C9
:100CD00064EF71E080E090E00E9429018FEFC81A74
:100CE000D80AE80AF80AEAE0CE16D104E104F104D1
:100CF000F9F68CE00E948D0084E193E0ECE6F2E0EE
:100D000016AE75968E179F07D9F78E010F5F1F4F8E
:100D100065EC71E0CE018D5B9F4F0E94B0039FEFA9
:100D2000C92E92E0D92E2CE6E22E22E0F22E612C82
:100D300034E6A32EB12C40E1842E47E2942EF70135
:100D4000808191819F8B8E8B82819381998F888FF7
:100D5000B7016C5F7F4FCE014A960E94A703F7014F
:100D60008285938599A388A3848595859BA38AA36F
:100D7000868597859DA38CA3808991899FA38EA347
:100D80008289938999A788A784898AA765EC71E0ED
:100D9000CE01CD960E94B003BE01665E7F4FC801B2
:100DA0000E94A70341E050E064E471E0C8010E94A2
:100DB0002703882309F4F3C1B801CE01CD960E9420
:100DC0005503C8010E94F9028E899F899A838983FD
:100DD000888D998D9C838B83BE01665E7F4FCE018B
:100DE00005960E94A70388A199A19C878B878AA159
:100DF0009BA19E878D878CA19DA1988B8F878EA1AB
:100E00009FA19A8B898B88A599A59C8B8B8B8AA592
:100E10008D8B8E898E3008F08E5087708064809321
:100E20007C0080917A00806480937A0080917A00BF
:100E300086FDFCCF20917800809179004F855889FC
:100E40001A01550F4408550830E0382BC901330FFB
:100E5000AA0BBB0B9C01AD012219330944095509AA
:100E6000A4E6B0E00E943A0929893A89032E000CD1
:100E7000440B550B22193309440955090E941B09DB
:100E8000398F288FCE0105960E94F902288D398D61
:100E900088A599A52817390714F5F1E0FAA7B092AB
:100EA0000101A092000160E08AA10E94D5006AA120
:100EB0007BA1072E000C880B990B97FF03C00E94A3
:100EC000C60203C04AE00E94850242E150E066E4A7
:100ED00071E0CE01CD960E94270366246394888D2D
:100EE000998D28A539A582179307CCF028A139A19F
:100EF00028173907A4F08AA5811104C061E08AA1EE
:100F00000E94D50069E571E0C8010E94B003B801F4
:100F1000CE01CD960E945503C8010E94F902288D8A
:100F2000398D88A199A182179307B4F41AA69092DB
:100F300001018092000161E08AA10E94D50066E46F
:100F400071E0C8010E94B003B801CE01CD960E94A5
:100F50005503C8010E94F902888D998D1CA61BA615
:100F60001EA61DA618AA1FA64AE0B8010E94E60800
:100F7000F80101900020E9F73197AF01401B510BB8
:100F8000B801CE018B960E946F036BE671E0C80139
:100F90000E94B00364E471E0CE01C7960E94B003E2
:100FA000BE01695C7F4FCE01C1960E94A703B801C4
:100FB000CE01C1960E945C03BE01655D7F4F0E9419
:100FC0005C03BC01CE01CD960E949003CE01C19678
:100FD0000E94F902CE01C7960E94F902C8010E9440
:100FE000F902CE018B960E94F9022AA13BA1332778
:100FF000F901EE58FF4F8491F901E255FF4F7490CB
:10100000F901E656FF4F44904420A1F081110E945F
:10101000AC00E42DF0E0EE0FFF1FE859FF4FA59163
:10102000B491EC917E2281E090E011F480E090E0B8
:10103000892B19F46BE771E002C06CE871E0C8011C
:101040000E94B003B801CE01CD960E945503C8019D
:101050000E94F9026EE971E0C8010E94B003B80174
:10106000CE01CD960E945503C8010E94F902BE012F
:10107000635C7F4FC8010E94A703B801CE018D5B5E
:101080009F4F0E945503C8010E94F902CE01CD96E0
:101090000E94F902CE014A960E94F90285E1E80E0B
:1010A000F11CCE14DF0409F04ACE662051F160EA4B
:1010B00071E0C8010E94B00364E471E0CE018B9638
:1010C0000E94B003BE01655D7F4FCE0146960E942F
:1010D000A703B801CE0146960E945C03BC01CE0175
:1010E0008D5B9F4F0E945503CE0146960E94F902E8
:1010F000CE018B960E94F902C8010E94F90261E0BC
:1011000029C061EB71E0C8010E94B00364E471E0A2
:10111000CE018B960E94B003BE01655D7F4FCE016C
:1011200046960E94A703B801CE0146960E945C0332
:10113000BC01CE018D5B9F4F0E945503CE014696A8
:101140000E94F902CE018B960E94F902C8010E940A
:10115000F90260E08CE00E94D50029964EAD5FADAB
:10116000299725966EAD7FAD25978FEC91E00E9473
:10117000640183EC91E00E94730260910001709120
:101180000101072E000C880B990B0E942901CE014A
:101190008D5B9F4F0E94F9020E946902B9CDC80180
:1011A0000E94E70209CECF93DF93CFEFD2E065979D
:1011B000CE0104960E94F90282E0CC36D807B9F736
:1011C0008FEF92E0DF91CF910C94F902BB274A3068
:1011D00031F4992322F4BDE2909581959F4F0C94B0
:1011E000F208BB27FB015527AA27880F991FAA1FC2
:1011F000A41710F0A41B83955051B9F7A05DAA3332
:1012000008F0A95DA193009779F7B111B1931192FC
:10121000CB010C940B09DC01FC01672F7191772342
:10122000E1F7329704C07C916D9370836291AE17A1
:10123000BF07C8F30895052E97FB1EF400940E9483
:10124000320957FD07D00E947C0907FC03D04EF4F9
:101250000C94320950954095309521953F4F4F4F52
:101260005F4F089590958095709561957F4F8F4F52
:101270009F4F08950E949E09A59F900DB49F900DC9
:10128000A49F800D911D112408952F923F924F929B
:101290005F926F927F928F929F92AF92BF92CF9206
:1012A000DF92EF92FF920F931F93CF93DF93CDB70F
:1012B000DEB7CA1BDB0B0FB6F894DEBF0FBECDBF87
:1012C00009942A88398848885F846E847D848C8458
:1012D0009B84AA84B984C884DF80EE80FD800C8161
:1012E0001B81AA81B981CE0FD11D0FB6F894DEBF44
:1012F0000FBECDBFED010895A1E21A2EAA1BBB1BA4
:10130000FD010DC0AA1FBB1FEE1FFF1FA217B307D1
:10131000E407F50720F0A21BB30BE40BF50B661FE7
:10132000771F881F991F1A9469F7609570958095AB
:1013300090959B01AC01BD01CF010895A29FB00122
:10134000B39FC001A39F700D811D1124911DB29FF9
:10135000700D811D1124911D0895EE0FFF1F059042
:10136000F491E02D09940F931F93CF93DF93823074
:10137000910510F482E090E0E0910703F0910803FA
:1013800020E030E0A0E0B0E0309719F140815181D9
:101390000281138148175907C8F08417950769F42B
:1013A000109731F012960C93129713961C9327C046
:1013B000009307031093080322C02115310519F08B
:1013C0004217530718F49A01BD01EF01DF01F8013C
:1013D000DBCF21153105F9F0281B390B24303105FD
:1013E00080F48A819B816115710521F0FB01938353
:1013F000828304C09093080380930703FE01329612
:1014000044C0FE01E20FF31F8193919322503109F2
:10141000398328833AC02091050330910603232B9A
:1014200041F420910401309105013093060320938B
:10143000050320910201309103012115310541F48A
:101440002DB73EB74091060150910701241B350B83
:10145000E0910503F0910603E217F307A0F42E1BB9
:101460003F0B2817390778F0AC014E5F5F4F241708
:10147000350748F04E0F5F1F509306034093050356
:101480008193919302C0E0E0F0E0CF01DF91CF9132
:101490001F910F910895CF93DF93009709F481C0B6
:1014A000FC01329713821282A0910703B0910803C6
:1014B000109781F420813181820F931F20910503C1
:1014C000309106032817390751F5F0930603E0938E
:1014D000050367C0ED0120E030E0CE17DF0740F4E0
:1014E0004A815B819E0141155105F1F0EA01F5CF7A
:1014F000D383C28340815181840F951FC817D907B8
:1015000059F488819981840F951F02969183808375
:101510008A819B81938382832115310529F4F0937D
:101520000803E09307033DC0E901FB83EA83499187
:101530005991C40FD51FEC17FD0761F4808191818B
:10154000840F951F0296E901998388838281938194
:101550009B838A83E0E0F0E012968D919C91139733
:10156000009719F0FD01DC01F7CF8D919C91119747
:101570009D012E5F3F4F820F931F209105033091F5
:1015800006032817390769F4309729F410920803E5
:101590001092070302C013821282B0930603A09335
:1015A0000503DF91CF910895A0E0B0E0EAEDFAE005
:1015B0000C944909EC01009721F4CB010E94B30976
:1015C000B4C0FC01E60FF71F9C0122503109E2175D
:1015D000F30708F4A8C0D9010D911C9111970617C3
:1015E0001707B0F00530110508F49BC0C801049737
:1015F0008617970708F495C002501109061B170BB0
:10160000019311936D937C93CF010E944B0A89C083
:101610005B01A01AB10A4C01800E911EA091070334
:10162000B0910803612C712CE12CF12C109709F476
:1016300046C08D919C911197A815B905B1F56C0123
:1016400042E0C40ED11CCA14DB0478F14C018A18A4
:101650009B08640142E0C40ED11C1296BC90129704
:101660001396AC91B5E0CB16D10440F0B282A383BF
:1016700091828082D9016D937C9309C00E5F1F4FC8
:10168000800F911FF90191838083EB2DFA2FE114D4
:10169000F10431F0D7011396FC93EE93129741C0F9
:1016A000F0930803E09307033CC06816790608F43A
:1016B0003C017D0112960D90BC91A02DB7CF809179
:1016C00005039091060388169906E1F466167706DD
:1016D000C8F48091020190910301009741F48DB705
:1016E0009EB74091060150910701841B950BE817A6
:1016F000F907C8F4F0930603E0930503F901718339
:1017000060830FC0CB010E94B3097C01009759F0A0
:10171000A801BE010E949F0BCE010E944B0AC70187
:1017200004C0CE0102C080E090E0CDB7DEB7EEE0AD
:101730000C94650981E090E0F8940C94AF0BFB01E8
:10174000DC0102C001900D9241505040D8F708953D
:10175000FB01DC0101900D920020E1F7089510E0FB
:10176000C2E6D0E004C0FE010E94AD092196C33656
:08177000D107C9F7F894FFCF7F
:10177800102700000903800000000000FA0164013E
:1017880091014702C201A001B401706C6E747379B3
:101798007334376F647374726265640050696E20C5
:1017A800002069732073657420746F204F5554505E
:1017B80055540A002C00696E5F646561645F7A6F36
:1017C8006E653D66616C736500696E5F6465616432
:1017D8005F7A6F6E653D74727565006D6F697374BD
:1017E8007572655F6C6576656C3D002C7365727605
:1017F8006F5F6F70656E3D74727565002C736572EE
:10180800766F5F6F70656E3D66616C7365007A0018
:1018180070756D705F7374617475733D74727565FE
:101828000070756D705F7374617475733D66616C7B
:061838007365000D0A00BB
:107800000C94343C0C94513C0C94513C0C94513CE1
:107810000C94513C0C94513C0C94513C0C94513CB4
:107820000C94513C0C94513C0C94513C0C94513CA4
:107830000C94513C0C94513C0C94513C0C94513C94
:107840000C94513C0C94513C0C94513C0C94513C84
:107850000C94513C0C94513C0C94513C0C94513C74
:107860000C94513C0C94513C11241FBECFEFD8E036
:10787000DEBFCDBF11E0A0E0B1E0ECE9FFE702C060
:1078800005900D92A230B107D9F712E0A2E0B1E065
:1078900001C01D92AD30B107E1F70E942D3D0C945F
:1078A000CC3F0C94003C982F959595959595959582
:1078B000905D8F708A307CF0282F295A8091C0000B
:1078C00085FFFCCF9093C6008091C00085FFFCCF60
:1078D0002093C6000895282F205DF0CF982F809127
:1078E000C00085FFFCCF9093C6000895EF92FF92F1
:1078F0000F931F93EE24FF2487018091C00087FD22
:1079000017C00894E11CF11C011D111D81E4E8164B
:1079100082E4F8068FE0080780E0180770F3E09132
:107920000401F091050109958091C00087FFE9CF1E
:107930008091C6001F910F91FF90EF9008950E94D3
:10794000763C982F8091C00085FFFCCF9093C600B5
:1079500091362CF490330CF09053892F089597555D
:10796000892F08951F930E949F3C182F0E949F3CCF
:107970001295107F810F1F9108951F93182F882350
:1079800021F00E94763C1150E1F71F9108951F935A
:10799000182F0E94763C803249F0809103018F5F5E
:1079A000809303018530C1F01F9108958091C0003C
:1079B00085FFFCCF84E18093C6008091C00085FFE5
:1079C000FCCF1093C6008091C00085FFFCCF80E102
:1079D0008093C6001F910895E0910401F091050184
:1079E00009951F9108950E94763C803241F0809164
:1079F00003018F5F80930301853081F008958091AA
:107A0000C00085FFFCCF84E18093C6008091C00058
:107A100085FFFCCF80E18093C6000895E0910401CA
:107A2000F09105010995089540E951E08823A1F0FE
:107A30002D9A28EE33E0FA013197F1F721503040CA
:107A4000D1F72D9828EE33E0FA013197F1F7215064
:107A50003040D1F7815061F708953F924F925F9285
:107A60006F927F928F929F92AF92BF92CF92DF924E
:107A7000EF92FF920F931F93CF93DF93000080E16B
:107A80008093C4001092C50088E18093C10086E015
:107A90008093C2005098589A259A81E00E94143D24
:107AA00024E1F22E9EE1E92E85E9D82E0FE0C02ECA
:107AB00010E1B12EAA24A394B1E49B2EA6E58A2E50
:107AC000F2E57F2EE0E26E2E79E4572E63E5462E36
:107AD00050E5352E0E94763C8033B1F18133B9F107
:107AE000803409F46FC0813409F476C0823409F41B
:107AF00085C0853409F488C0803531F1823521F1A3
:107B0000813511F1853509F485C0863509F48DC0BC
:107B1000843609F496C0843709F403C1853709F423
:107B200072C1863709F466C0809103018F5F80932C
:107B30000301853079F6E0910401F0910501099582
:107B40000E94763C803351F60E94F33CC3CF0E94E2
:107B5000763C803249F78091C00085FFFCCFF092DF
:107B6000C6008091C00085FFFCCF9092C600809136
:107B7000C00085FFFCCF8092C6008091C00085FFC9
:107B8000FCCF7092C6008091C00085FFFCCF609250
:107B9000C6008091C00085FFFCCF5092C600809146
:107BA000C00085FFFCCF4092C6008091C00085FFD9
:107BB000FCCF3092C6008091C00085FFFCCFB09210
:107BC000C60088CF0E94763C863808F4BDCF0E945C
:107BD000763C0E94F33C7ECF0E94763C803809F4CC
:107BE0009CC0813809F40BC1823809F43CC1883942
:107BF00009F48FC080E00E94C73C6CCF84E10E94F2
:107C0000BD3C0E94F33C66CF85E00E94BD3C0E94D3
:107C1000F33C60CF0E94763C809306010E94763C44
:107C2000809307010E94F33C55CF0E94763C80333D
:107C300009F41DC183E00E94BD3C80E00E94C73C66
:107C400049CF0E94763C809309020E94763C809343
:107C5000080280910C028E7F80930C020E94763C79
:107C6000853409F415C18091080290910902892B8D
:107C700089F000E010E00E94763CF801E85FFE4FDA
:107C800080830F5F1F4F80910802909109020817AF
:107C9000190788F30E94763C803209F045CF809125
:107CA0000C0280FF01C16091060170910701660F0F
:107CB000771F7093070160930601A0910802B091AD
:107CC00009021097C9F0E8E0F1E09B01AD014E0F09
:107CD0005F1FF999FECF32BD21BD819180BDFA9A17
:107CE000F99A2F5F3F4FE417F50799F76A0F7B1F4B
:107CF00070930701609306018091C00085FFFCCF5F
:107D0000F092C6008091C00085FFFCCFB092C60003
:107D1000E1CE83E00E94C73CDDCE82E00E94C73CFA
:107D2000D9CE0E94763C809309020E94763C8093D3
:107D300008028091060190910701880F991F909386
:107D40000701809306010E94763C853409F4A6C0A1
:107D500080910C028E7F80930C020E94763C8032D0
:107D600009F0B8CE8091C00085FFFCCFF092C6002C
:107D7000609108027091090261157105B9F140E046
:107D800050E080910C02A82FA170B82FB27011C0E2
:107D9000BB2309F45CC0E0910601F0910701319624
:107DA000F0930701E09306014F5F5F4F46175707B7
:107DB000E8F4AA2369F3F999FECF209106013091E6
:107DC000070132BD21BDF89A90B58091C00085FFB2
:107DD000FCCF9093C6002F5F3F4F30930701209355
:107DE00006014F5F5F4F4617570718F38091C00099
:107DF00085FDE5CE8091C00085FFF8CFE0CE81E023
:107E00000E94C73C67CE0E94763C803209F08CCE3F
:107E10008091C00085FFFCCFF092C6008091C00029
:107E200085FFFCCFE092C6008091C00085FFFCCFAB
:107E3000D092C6008091C00085FFFCCFC092C600E2
:107E40008091C00085FFFCCFB092C60043CEE09188
:107E50000601F091070194918091C00085FFFCCF4D
:107E60009093C6009CCF80E10E94C73C33CE0E9415
:107E7000763C0E94763C182F0E94763C112309F430
:107E800083C0113009F484C08FE00E94C73C22CE29
:107E900080910C02816080930C02E5CE80910C02EF
:107EA000816080930C0259CF809107018823880F4D
:107EB000880B8A2180930B02809106019091070123
:107EC000880F991F90930701809306018091080203
:107ED00080FF09C080910802909109020196909359
:107EE000090280930802F894F999FECF1127E091D6
:107EF0000601F0910701C8E0D1E08091080290915D
:107F00000902103091F40091570001700130D9F34B
:107F100003E000935700E89500915700017001308D
:107F2000D9F301E100935700E89509901990009169
:107F3000570001700130D9F301E000935700E89534
:107F40001395103498F011270091570001700130FB
:107F5000D9F305E000935700E895009157000170B0
:107F60000130D9F301E100935700E895329602976A
:107F700009F0C7CF103011F00296E5CF112480919F
:107F8000C00085FFB9CEBCCE8EE10E94C73CA2CD19
:0C7F900085E90E94C73C9ECDF894FFCF0D
:027F9C00800063
:040000030000780081
:00000001FF
