:100000000C945E000C9486000C9486000C94860080
:100010000C9486000C9486000C9486000C94860048
:100020000C9486000C9486000C9486000C94860038
:100030000C9486000C9486000C9486000C94860028
:100040000C9470030C9486000C94E0030C94BA0397
:100050000C9486000C9486000C9486000C94860008
:100060000C9486000C9486000000000024002700F9
:100070002A0000000000250028002B0004040404CE
:100080000404040402020202020203030303030342
:10009000010204081020408001020408102001021F
:1000A00004081020000000080002010000030407FB
:1000B00000000000000000001204520611241FBEC0
:1000C000CFEFD8E0DEBFCDBF11E0A0E0B1E0E6E0C9
:1000D000F2E102C005900D92A638B107D9F722E0EF
:1000E000A6E8B1E001C01D92AE3AB207E1F710E018
:1000F000CDE5D0E004C02197FE010E94F406CC3586
:10010000D107C9F70E949E040C94F6080C940000D5
:1001100090E0FC01EC55FF4F2491FC01E057FF4FAC
:100120003491FC01E458FF4FE491EE2309F43CC004
:10013000222339F1233091F038F42130A9F0223014
:1001400001F584B58F7D12C0273091F02830A1F0E1
:100150002430B9F4809180008F7D03C080918000AD
:100160008F77809380000DC084B58F7784BD09C0E0
:100170008091B0008F7703C08091B0008F7D809315
:10018000B000F0E0EE0FFF1FEE58FF4FA591B491C5
:100190009FB7F894611104C08C913095382302C048
:1001A000EC913E2B3C939FBF08953FB7F89480910C
:1001B0008B0190918C01A0918D01B0918E0126B59B
:1001C000A89B05C02F3F19F00196A11DB11D3FBF8F
:1001D000BA2FA92F982F8827820F911DA11DB11D1D
:1001E000BC01CD0142E0660F771F881F991F4A9519
:1001F000D1F708950895CF92DF92EF92FF920F9377
:100200001F93CF93DF936C017A018B01C0E0D0E0A4
:10021000CE15DF0581F0D8016D918D01D601ED91EC
:10022000FC910190F081E02DC6010995892B11F018
:100230002196EECF7E01C701DF91CF911F910F91E3
:10024000FF90EF90DF90CF90089580E090E00895C8
:10025000FC01538D448D252F30E0842F90E0821BCC
:10026000930B541710F0CF96089501970895FC0151
:10027000918D828D981761F0828DDF01A80FB11DDD
:100280005D968C91928D9F5F9F73928F90E0089501
:100290008FEF9FEF0895FC01918D828D981731F0BB
:1002A000828DE80FF11D858D90E008958FEF9FEF0F
:1002B0000895FC01918D228D892F90E0805C9F4FE5
:1002C000821B91098F73992708958FE891E00E940E
:1002D000590121E0892B09F420E0822F0895FC01C7
:1002E000848DDF01A80FB11DA35ABF4F2C91848DBF
:1002F00090E001968F739927848FA689B7892C93F4
:10030000A089B1898C91837080648C93938D848D46
:10031000981306C00288F389E02D80818F7D808349
:100320000895EF92FF920F931F93CF93DF93EC0109
:1003300081E0888F9B8D8C8D981305C0E889F989A1
:10034000808185FD26C0F62E0B8D10E00F5F1F4FBC
:100350000F731127E02E8C8DE8120CC00FB607FC2E
:10036000FACFE889F989808185FFF5CFCE010E9417
:100370006F01F1CF8B8DFE01E80FF11DE35AFF4FA6
:10038000F0829FB7F8940B8FEA89FB8980818062A5
:100390000AC09FB7F894EE89FF896083E889F989DC
:1003A00080818370806480839FBF81E090E0DF91D3
:1003B000CF911F910F91FF90EF900895CF93DF930E
:1003C000EC01888D8823C9F0EA89FB89808185FD4D
:1003D00005C0A889B9898C9186FD0FC00FB607FCAE
:1003E000F5CF808185FFF2CFA889B9898C9185FFEF
:1003F000EDCFCE010E946F01E7CFDF91CF9108953D
:1004000080E090E0892B29F00E94650181110C9415
:1004100000000895009769F0FC0101900020E9F7C1
:100420003197AF01481B590BBC018FE891E00C9448
:10043000FB0080E090E008958F929F92AF92BF9270
:10044000CF92DF92EF92FF920F931F93CF93DF93A0
:10045000CDB7DEB7A1970FB6F894DEBF0FBECDBF04
:100460006C01990FEE08FF08F7FE2BC06DE28FE8D4
:1004700091E00E9491018C0122273327A9012C19B8
:100480003D094E095F0919A2CE0181967C019AE0CF
:10049000892E912CA12CB12CCA01B901A50194017E
:1004A0000E94C306605DF70162937F01211531054B
:1004B0004105510589F7CF010E940A02800F911F63
:1004C0001DC0A701960119A28E010F5D1F4F8AE082
:1004D000C82ED12CE12CF12CCA01B901A70196013B
:1004E0000E94C306605DF80162938F0121153105FA
:1004F0004105510589F7CF010E940A02A1960FB666
:10050000F894DEBF0FBECDBFDF91CF911F910F9149
:10051000FF90EF90DF90CF90BF90AF909F908F9023
:1005200008950E94E108EF92FF920F931F93CF93DB
:10053000DF93EC017B018A0188819981009729F082
:100540002A813B8124173507F8F4B8016F5F7F4F8C
:100550000E941B08009759F0998388831B830A83A4
:100560002C813D81232B81F4FC0110820DC08881F8
:100570009981009711F00E949207198218821D82BA
:100580001C821B821A8207C01D830C83B7018881DD
:1005900099810E94EF08CE01DF91CF911F910F91B9
:1005A000FF90EF9008954F925F927F928F929F926B
:1005B000AF92BF92CF92DF92EF92FF920F931F9371
:1005C000CF93DF93CDB7DEB728970FB6F894DEBF91
:1005D0000FBECDBF6C014B01742E29015C0184E07C
:1005E000A80EB11CF601158214821782168211869C
:1005F000108640E050E064E271E0C5010E94930281
:10060000F60191828082138212821A8219821C82E0
:100610001B821E821D827F821886BE01695F7F4F0A
:10062000FB0101900020E9F73197AF01461B570B02
:10063000CE0101964C010E9493028A149B04D9F0CA
:10064000F60184819581009739F069817A8161157D
:100650007105B1F50E94920789819A81F60195830F
:1006600084838B819C81978386838D819E819187F2
:1006700080871A82198289819A810E94920782E377
:1006800090E0F60193878287558644861787068710
:10069000F18AE08A28960FB6F894DEBF0FBECDBF70
:1006A000DF91CF911F910F91FF90EF90DF90CF904E
:1006B000BF90AF909F908F907F905F904F900895E4
:1006C000F601468157812D813E814217530710F272
:1006D0000E94EF088D819E81F60191878087CBCFA4
:1006E0001F920F920FB60F9211242F933F938F9367
:1006F0009F93AF93BF938091870190918801A091C0
:100700008901B0918A013091860123E0230F2D37B2
:1007100020F40196A11DB11D05C026E8230F029605
:10072000A11DB11D209386018093870190938801BC
:10073000A0938901B0938A0180918B0190918C01E3
:10074000A0918D01B0918E010196A11DB11D8093E4
:100750008B0190938C01A0938D01B0938E01BF917A
:10076000AF919F918F913F912F910F900FBE0F905E
:100770001F9018951F920F920FB60F9211242F936E
:100780003F934F935F936F937F938F939F93AF9319
:10079000BF93EF93FF938FE891E00E946F01FF9169
:1007A000EF91BF91AF919F918F917F916F915F91E9
:1007B0004F913F912F910F900FBE0F901F90189562
:1007C0001F920F920FB60F9211242F938F939F9326
:1007D000EF93FF93E0919F01F091A0018081E09160
:1007E000A501F091A60182FD12C090818091A8011F
:1007F0008F5F8F732091A901821751F0E091A801BA
:10080000F0E0E157FE4F958F8093A80101C08081F1
:10081000FF91EF919F918F912F910F900FBE0F90AD
:100820001F901895EF92FF920F931F93EFE8F1E05E
:100830001382128288EE93E0A0E0B0E08483958377
:10084000A683B7838AE091E09183808385EC90E072
:100850009587848784EC90E09787868780EC90E08A
:10086000918B808B81EC90E0938B828B82EC90E07B
:10087000958B848B86EC90E0978B868B118E128EF5
:10088000138E148E83E4E82EFF24F3940EE612E018
:1008900022E030E041E36EE070E08CE292E00E9402
:1008A000D30223E030E042E36FE070E08EE392E0B9
:1008B0000E94D30224E030E043E360E170E080E591
:1008C00092E00E94D30225E030E044E361E170E071
:1008D00082E692E00E94D3029AE6E92EFF24F39486
:1008E0000FE912E026E030E045E362E170E084E7E2
:1008F00092E00E94D30220E4E22EFF24F39404E667
:1009000012E027E030E046E363E170E086E892E041
:100910000E94D3023EE3E32EFF24F3940CE512E0A1
:1009200029E030E048E365E170E088E992E00E9468
:10093000D3021F910F91FF90EF900895CF93DF9313
:10094000CDB7DEB768970FB6F894DEBF0FBECDBF48
:10095000789484B5826084BD84B5816084BD85B59A
:10096000826085BD85B5816085BD80916E008160A6
:1009700080936E001092810080918100826080934C
:10098000810080918100816080938100809180004E
:100990008160809380008091B10084608093B10079
:1009A0008091B00081608093B00080917A00846073
:1009B00080937A0080917A00826080937A0080919F
:1009C0007A00816080937A0080917A0080688093B9
:1009D0007A001092C100E0919F01F091A00182E0A5
:1009E0008083E0919B01F0919C011082E0919D0138
:1009F000F0919E018FEC80831092A701E091A301FA
:100A0000F091A40186E08083E091A101F091A20120
:100A1000808180618083E091A101F091A2018081B9
:100A200088608083E091A101F091A20180818068BB
:100A30008083E091A101F091A20180818F7D80836C
:100A4000ECE9F0E02491E8E8F0E08491882399F063
:100A500090E0880F991FFC01E859FF4FA591B491D0
:100A6000FC01EE58FF4F859194918FB7F894EC916B
:100A7000E22BEC938FBF95ED892E9EEF992EAA2441
:100A8000AA94BA2C0CE212E0F12C6AE08FE891E013
:100A90000E949101F801808191819A8389838281EA
:100AA00093819C838B831E821D8218861F821A86E7
:100AB0001986648175816115710531F04085518514
:100AC000CE0105960E949302F801828593859C874A
:100AD0008B87848595859E878D8786859785988B5E
:100AE0008F87808991899A8B898B1C8A1B8A1E8AA1
:100AF0001D8A188E1F8A6D817E816115710531F006
:100B000049855A85CE0143960E94930288E191E07F
:100B10000E940A024F89588D6B897C898FE891E089
:100B20000E94FB0082E291E00E940A028B899C896C
:100B30000E94920789818E3008F08E508770806401
:100B400080937C0080917A00806480937A00809109
:100B50007A0086FDFCCF209178008091790030E00A
:100B60006901D82A85E291E00E940A02C6010E942A
:100B70001C02C601DD0CAA0BBB0B9C01AD012E565D
:100B8000324041095109A4E6B0E00E948106A50166
:100B900094010E9462063C832B838AE491E00E94C8
:100BA0000A022B813C818B859C85281739077CF4B0
:100BB00060E08D850E9488008D859E850E941C02C4
:100BC00087E391E00E940A02FF24F3940CC08D8514
:100BD0009E850E941C028EE491E00E940A0261E060
:100BE0008D850E948800CB80DC8084E691E00E94A5
:100BF0000A02C6010E941C028AE791E00E940A02D2
:100C000082E291E00E940A02CB84DC848CE791E0CE
:100C10000E940A02C6010E941C028AE791E00E941B
:100C20000A0282E291E00E940A028D819E810E9466
:100C300092070E5E1F4FF2E00A3A1F0709F025CF18
:100C4000FF2011F061E001C060E08CE00E948800AC
:100C50000E94D5006B017C0188EE482E83E0582E5F
:100C6000612C712C0E94D500DC01CB018C199D09EF
:100C7000AE09BF09883E9340A105B10598F321E074
:100C8000421A51086108710888EEC80E83E0D81E28
:100C9000E11CF11C411451046104710419F70E9414
:100CA0000002F0CECF93DF93CAEAD2E062978C8144
:100CB0009D810E94920782E0CC32D807B9F7DF917C
:100CC000CF910895052E97FB1EF400940E9479069B
:100CD00057FD07D00E94C30607FC03D04EF40C94C6
:100CE000790650954095309521953F4F4F4F5F4F76
:100CF000089590958095709561957F4F8F4F9F4F88
:100D000008950E94E506A59F900DB49F900DA49FA5
:100D1000800D911D112408952F923F924F925F9262
:100D20006F927F928F929F92AF92BF92CF92DF92FB
:100D3000EF92FF920F931F93CF93DF93CDB7DEB760
:100D4000CA1BDB0B0FB6F894DEBF0FBECDBF0994F4
:100D50002A88398848885F846E847D848C849B844B
:100D6000AA84B984C884DF80EE80FD800C811B8159
:100D7000AA81B981CE0FD11D0FB6F894DEBF0FBE88
:100D8000CDBFED010895A1E21A2EAA1BBB1BFD01E8
:100D90000DC0AA1FBB1FEE1FFF1FA217B307E4075A
:100DA000F50720F0A21BB30BE40BF50B661F771FB2
:100DB000881F991F1A9469F7609570958095909592
:100DC0009B01AC01BD01CF010895A29FB001B39F6B
:100DD000C001A39F700D811D1124911DB29F700D44
:100DE000811D1124911D0895EE0FFF1F0590F491B0
:100DF000E02D09940F931F93CF93DF9382309105D9
:100E000010F482E090E0E091AC02F091AD0220E0BD
:100E100030E0A0E0B0E0309719F1408151810281CB
:100E2000138148175907C8F08417950769F410977C
:100E300031F012960C93129713961C9327C00093CF
:100E4000AC021093AD0222C02115310519F04217F2
:100E5000530718F49A01BD01EF01DF01F801DBCF60
:100E600021153105F9F0281B390B2430310580F4A8
:100E70008A819B816115710521F0FB019383828337
:100E800004C09093AD028093AC02FE01329644C040
:100E9000FE01E20FF31F81939193225031093983B0
:100EA00028833AC02091AA023091AB02232B41F44F
:100EB00020910201309103013093AB022093AA02EA
:100EC00020910001309101012115310541F42DB728
:100ED0003EB74091040150910501241B350BE09170
:100EE000AA02F091AB02E217F307A0F42E1B3F0B0E
:100EF0002817390778F0AC014E5F5F4F241735078C
:100F000048F04E0F5F1F5093AB024093AA028193AB
:100F1000919302C0E0E0F0E0CF01DF91CF911F910B
:100F20000F910895CF93DF93009709F481C0FC01DE
:100F3000329713821282A091AC02B091AD02109749
:100F400081F420813181820F931F2091AA02309178
:100F5000AB022817390751F5F093AB02E093AA02D0
:100F600067C0ED0120E030E0CE17DF0740F44A8192
:100F70005B819E0141155105F1F0EA01F5CFD38364
:100F8000C28340815181840F951FC817D90759F436
:100F900088819981840F951F0296918380838A812D
:100FA0009B81938382832115310529F4F093AD024F
:100FB000E093AC023DC0E901FB83EA83499159917A
:100FC000C40FD51FEC17FD0761F480819181840F58
:100FD000951F0296E90199838883828193819B837F
:100FE0008A83E0E0F0E012968D919C911397009730
:100FF00019F0FD01DC01F7CF8D919C9111979D01B6
:101000002E5F3F4F820F931F2091AA023091AB02B7
:101010002817390769F4309729F41092AD0210921D
:10102000AC0202C013821282B093AB02A093AA0258
:10103000DF91CF910895A0E0B0E0E1E2F8E00C94F8
:101040009006EC01009721F4CB010E94FA06B4C08F
:10105000FC01E60FF71F9C0122503109E217F3074C
:1010600008F4A8C0D9010D911C9111970617170714
:10107000B0F00530110508F49BC0C801049786172D
:10108000970708F495C002501109061B170B01932E
:1010900011936D937C93CF010E94920789C05B01ED
:1010A000A01AB10A4C01800E911EA091AC02B09121
:1010B000AD02612C712CE12CF12C109709F446C083
:1010C0008D919C911197A815B905B1F56C0142E07D
:1010D000C40ED11CCA14DB0478F14C018A189B0899
:1010E000640142E0C40ED11C1296BC901297139674
:1010F000AC91B5E0CB16D10440F0B282A3839182CB
:101100008082D9016D937C9309C00E5F1F4F800FC1
:10111000911FF90191838083EB2DFA2FE114F104E3
:1011200031F0D7011396FC93EE93129741C0F093E0
:10113000AD02E093AC023CC06816790608F43C01AD
:101140007D0112960D90BC91A02DB7CF8091AA027F
:101150009091AB0288169906E1F466167706C8F4FA
:101160008091000190910101009741F48DB79EB7E5
:101170004091040150910501841B950BE817F90774
:10118000C8F4F093AB02E093AA02F9017183608383
:101190000FC0CB010E94FA067C01009759F0A8010C
:1011A000BE010E94E608CE010E949207C70104C05A
:1011B000CE0102C080E090E0CDB7DEB7EEE00C9447
:1011C000AC0681E090E0F8940C94F608FB01DC0199
:1011D00002C001900D9241505040D8F70895FB0194
:1011E000DC0101900D920020E1F7089510E0CDE5BB
:1011F000D0E004C0FE010E94F4062196CE35D1074E
:06120000C9F7F894FFCFCE
:101206000000AE028000000000009101FB002801F2
:10121600DE01590137014B01202D20506C616E749F
:1012260020000D0A002D2053656E736F72207661C3
:101236006C7565203D20002070696E20697320570B
:1012460061746572696E672E2E2E202D2000207027
:10125600696E2069732057657420656E6F756768BF
:10126600202D2000202D204D6F6973747572652026
:1012760050657263656E743A200025005365747478
:06128600696E673A2000CA
:107800000C94343C0C94513C0C94513C0C94513CE1
:107810000C94513C0C94513C0C94513C0C94513CB4
:107820000C94513C0C94513C0C94513C0C94513CA4
:107830000C94513C0C94513C0C94513C0C94513C94
:107840000C94513C0C94513C0C94513C0C94513C84
:107850000C94513C0C94513C0C94513C0C94513C74
:107860000C94513C0C94513C11241FBECFEFD8E036
:10787000DEBFCDBF11E0A0E0B1E0ECE9FFE702C060
:1078800005900D92A230B107D9F712E0A2E0B1E065
:1078900001C01D92AD30B107E1F70E942D3D0C945F
:1078A000CC3F0C94003C982F959595959595959582
:1078B000905D8F708A307CF0282F295A8091C0000B
:1078C00085FFFCCF9093C6008091C00085FFFCCF60
:1078D0002093C6000895282F205DF0CF982F809127
:1078E000C00085FFFCCF9093C6000895EF92FF92F1
:1078F0000F931F93EE24FF2487018091C00087FD22
:1079000017C00894E11CF11C011D111D81E4E8164B
:1079100082E4F8068FE0080780E0180770F3E09132
:107920000401F091050109958091C00087FFE9CF1E
:107930008091C6001F910F91FF90EF9008950E94D3
:10794000763C982F8091C00085FFFCCF9093C600B5
:1079500091362CF490330CF09053892F089597555D
:10796000892F08951F930E949F3C182F0E949F3CCF
:107970001295107F810F1F9108951F93182F882350
:1079800021F00E94763C1150E1F71F9108951F935A
:10799000182F0E94763C803249F0809103018F5F5E
:1079A000809303018530C1F01F9108958091C0003C
:1079B00085FFFCCF84E18093C6008091C00085FFE5
:1079C000FCCF1093C6008091C00085FFFCCF80E102
:1079D0008093C6001F910895E0910401F091050184
:1079E00009951F9108950E94763C803241F0809164
:1079F00003018F5F80930301853081F008958091AA
:107A0000C00085FFFCCF84E18093C6008091C00058
:107A100085FFFCCF80E18093C6000895E0910401CA
:107A2000F09105010995089540E951E08823A1F0FE
:107A30002D9A28EE33E0FA013197F1F721503040CA
:107A4000D1F72D9828EE33E0FA013197F1F7215064
:107A50003040D1F7815061F708953F924F925F9285
:107A60006F927F928F929F92AF92BF92CF92DF924E
:107A7000EF92FF920F931F93CF93DF93000080E16B
:107A80008093C4001092C50088E18093C10086E015
:107A90008093C2005098589A259A81E00E94143D24
:107AA00024E1F22E9EE1E92E85E9D82E0FE0C02ECA
:107AB00010E1B12EAA24A394B1E49B2EA6E58A2E50
:107AC000F2E57F2EE0E26E2E79E4572E63E5462E36
:107AD00050E5352E0E94763C8033B1F18133B9F107
:107AE000803409F46FC0813409F476C0823409F41B
:107AF00085C0853409F488C0803531F1823521F1A3
:107B0000813511F1853509F485C0863509F48DC0BC
:107B1000843609F496C0843709F403C1853709F423
:107B200072C1863709F466C0809103018F5F80932C
:107B30000301853079F6E0910401F0910501099582
:107B40000E94763C803351F60E94F33CC3CF0E94E2
:107B5000763C803249F78091C00085FFFCCFF092DF
:107B6000C6008091C00085FFFCCF9092C600809136
:107B7000C00085FFFCCF8092C6008091C00085FFC9
:107B8000FCCF7092C6008091C00085FFFCCF609250
:107B9000C6008091C00085FFFCCF5092C600809146
:107BA000C00085FFFCCF4092C6008091C00085FFD9
:107BB000FCCF3092C6008091C00085FFFCCFB09210
:107BC000C60088CF0E94763C863808F4BDCF0E945C
:107BD000763C0E94F33C7ECF0E94763C803809F4CC
:107BE0009CC0813809F40BC1823809F43CC1883942
:107BF00009F48FC080E00E94C73C6CCF84E10E94F2
:107C0000BD3C0E94F33C66CF85E00E94BD3C0E94D3
:107C1000F33C60CF0E94763C809306010E94763C44
:107C2000809307010E94F33C55CF0E94763C80333D
:107C300009F41DC183E00E94BD3C80E00E94C73C66
:107C400049CF0E94763C809309020E94763C809343
:107C5000080280910C028E7F80930C020E94763C79
:107C6000853409F415C18091080290910902892B8D
:107C700089F000E010E00E94763CF801E85FFE4FDA
:107C800080830F5F1F4F80910802909109020817AF
:107C9000190788F30E94763C803209F045CF809125
:107CA0000C0280FF01C16091060170910701660F0F
:107CB000771F7093070160930601A0910802B091AD
:107CC00009021097C9F0E8E0F1E09B01AD014E0F09
:107CD0005F1FF999FECF32BD21BD819180BDFA9A17
:107CE000F99A2F5F3F4FE417F50799F76A0F7B1F4B
:107CF00070930701609306018091C00085FFFCCF5F
:107D0000F092C6008091C00085FFFCCFB092C60003
:107D1000E1CE83E00E94C73CDDCE82E00E94C73CFA
:107D2000D9CE0E94763C809309020E94763C8093D3
:107D300008028091060190910701880F991F909386
:107D40000701809306010E94763C853409F4A6C0A1
:107D500080910C028E7F80930C020E94763C8032D0
:107D600009F0B8CE8091C00085FFFCCFF092C6002C
:107D7000609108027091090261157105B9F140E046
:107D800050E080910C02A82FA170B82FB27011C0E2
:107D9000BB2309F45CC0E0910601F0910701319624
:107DA000F0930701E09306014F5F5F4F46175707B7
:107DB000E8F4AA2369F3F999FECF209106013091E6
:107DC000070132BD21BDF89A90B58091C00085FFB2
:107DD000FCCF9093C6002F5F3F4F30930701209355
:107DE00006014F5F5F4F4617570718F38091C00099
:107DF00085FDE5CE8091C00085FFF8CFE0CE81E023
:107E00000E94C73C67CE0E94763C803209F08CCE3F
:107E10008091C00085FFFCCFF092C6008091C00029
:107E200085FFFCCFE092C6008091C00085FFFCCFAB
:107E3000D092C6008091C00085FFFCCFC092C600E2
:107E40008091C00085FFFCCFB092C60043CEE09188
:107E50000601F091070194918091C00085FFFCCF4D
:107E60009093C6009CCF80E10E94C73C33CE0E9415
:107E7000763C0E94763C182F0E94763C112309F430
:107E800083C0113009F484C08FE00E94C73C22CE29
:107E900080910C02816080930C02E5CE80910C02EF
:107EA000816080930C0259CF809107018823880F4D
:107EB000880B8A2180930B02809106019091070123
:107EC000880F991F90930701809306018091080203
:107ED00080FF09C080910802909109020196909359
:107EE000090280930802F894F999FECF1127E091D6
:107EF0000601F0910701C8E0D1E08091080290915D
:107F00000902103091F40091570001700130D9F34B
:107F100003E000935700E89500915700017001308D
:107F2000D9F301E100935700E89509901990009169
:107F3000570001700130D9F301E000935700E89534
:107F40001395103498F011270091570001700130FB
:107F5000D9F305E000935700E895009157000170B0
:107F60000130D9F301E100935700E895329602976A
:107F700009F0C7CF103011F00296E5CF112480919F
:107F8000C00085FFB9CEBCCE8EE10E94C73CA2CD19
:0C7F900085E90E94C73C9ECDF894FFCF0D
:027F9C00800063
:040000030000780081
:00000001FF
