:100000000C945E000C9486000C9486000C94860080
:100010000C9486000C9486000C9486000C94860048
:100020000C9486000C9486000C9486000C94860038
:100030000C9486000C9486000C9486000C94860028
:100040000C9443040C9486000C9411040C94EB0360
:100050000C9486000C9486000C9486000C94860008
:100060000C9486000C948600000000080002010039
:100070000003040700000000000000000000000072
:10008000250028002B0000000000240027002A0083
:10009000040404040404040402020202020203032E
:1000A0000303030301020408102040800102040836
:1000B00010200102040810208D04140711241FBE13
:1000C000CFEFD8E0DEBFCDBF11E0A0E0B1E0EAEABB
:1000D000F3E102C005900D92AE39B107D9F722E0E5
:1000E000AEE9B1E001C01D92A63CB207E1F710E015
:1000F000CDE5D0E004C02197FE010E94B607CC35C3
:10010000D107C9F70E9448050C94C8090C94000057
:1001100090E0FC01EC55FF4F2491FC01E057FF4FAC
:100120008491882399F090E0880F991FFC01EA5789
:10013000FF4FA591B491FC01E458FF4F8591949134
:100140008FB7F894EC91E22BEC938FBF089508954C
:10015000CF92DF92EF92FF920F931F93CF93DF9393
:100160006C017A018B01C0E0D0E0CE15DF0589F08B
:10017000D8016D918D01D601ED91FC910190F08136
:10018000E02DC6010995892B11F47E0102C021964C
:10019000ECCFC701DF91CF911F910F91FF90EF90AE
:1001A000DF90CF900895089580E090E00895FC01DD
:1001B000538D448D252F30E0842F90E0821B930BCC
:1001C000541710F0CF96089501970895FC01918D72
:1001D000828D981761F0828DDF01A80FB11D5D96A9
:1001E0008C91928D9F5F9F73928F90E008958FEF17
:1001F0009FEF0895FC01918D828D981731F0828DCB
:10020000E80FF11D858D90E008958FEF9FEF089521
:10021000FC01918D228D892F90E0805C9F4F821B85
:1002200091098F739927089587EA91E00E94080148
:1002300021E0892B09F420E0822F0895FC01848DB0
:10024000DF01A80FB11DA35ABF4F2C91848D90E000
:1002500001968F739927848FA689B7892C93A089DB
:10026000B1898C9180648C93938D848D981306C092
:100270000288F389E02D80818F7D80830895EF923D
:10028000FF920F931F93CF93DF93EC0181E0888F50
:100290009B8D8C8D981305C0E889F989808185FD37
:1002A00024C0F62E0B8D10E00F5F1F4F0F73112728
:1002B000E02E8C8DE8120CC00FB607FCFACFE8894F
:1002C000F989808185FFF5CFCE010E941E01F1CF13
:1002D0008B8DFE01E80FF11DE35AFF4FF0820B8F6B
:1002E000EA89FB898081806207C0EE89FF8960838B
:1002F000E889F98980818064808381E090E0DF91E2
:10030000CF911F910F91FF90EF900895CF93DF93BE
:10031000EC01888D8823C9F0EA89FB89808185FDFD
:1003200005C0A889B9898C9186FD0FC00FB607FC5E
:10033000F5CF808185FFF2CFA889B9898C9185FF9F
:10034000EDCFCE010E941E01E7CFDF91CF9108953E
:1003500080E090E0892B29F00E94140181110C9417
:100360000000089590E0FC01E859FF4F3491FC0132
:10037000EC55FF4F2491FC01E057FF4FE491EE2331
:1003800009F43BC0332339F1333091F038F4313084
:10039000A9F0323001F584B58F7D12C0373091F06D
:1003A0003830A1F03430B9F4809180008F7D03C0E3
:1003B000809180008F77809380000DC084B58F7707
:1003C00084BD09C08091B0008F7703C08091B000D8
:1003D0008F7D8093B000F0E0EE0FFF1FE458FF4FD9
:1003E000A591B4918FB7F894EC91611103C0209559
:1003F0002E2301C02E2B2C938FBF08953FB7F89466
:100400008091A3019091A401A091A501B091A601B2
:1004100026B5A89B05C02F3F19F00196A11DB11D5F
:100420003FBFBA2FA92F982F8827820F911DA11D9A
:10043000B11DBC01CD0142E0660F771F881F991FD7
:100440004A95D1F708958F929F92AF92BF92CF9223
:10045000DF92EF92FF926B017C010E94FE014B0143
:100460005C01C114D104E104F104F1F00E94FE0129
:10047000DC01CB0188199909AA09BB09883E934080
:10048000A105B10570F321E0C21AD108E108F10815
:1004900088EE880E83E0981EA11CB11CC114D10403
:1004A000E104F10419F7DDCFFF90EF90DF90CF90DA
:1004B000BF90AF909F908F900895009769F0FC01D6
:1004C00001900020E9F73197AF01481B590BBC019F
:1004D00087EA91E00C94A80080E090E008950C94E5
:1004E0005D028F929F92AF92BF92CF92DF92EF9276
:1004F000FF920F931F93CF93DF93CDB7DEB7A197F2
:100500000FB6F894DEBF0FBECDBF6B017C0197FF25
:1005100031C0E091A701F091A8010190F081E02D98
:100520006DE287EA91E009958C0122273327A90122
:100530002C193D094E095F0919A2CE0181967C0153
:100540009AE0892E912CA12CB12CCA01B901A501E8
:1005500094010E948507605DF70162937F01211578
:1005600031054105510589F7CF010E945D02800FD9
:10057000911F1DC09B01AC0119A28E010F5D1F4F81
:100580008AE0C82ED12CE12CF12CCA01B901A701B7
:1005900096010E948507605DF80162938F01211525
:1005A00031054105510589F7CF010E945D02A196F1
:1005B0000FB6F894DEBF0FBECDBFDF91CF911F9174
:1005C0000F91FF90EF90DF90CF90BF90AF909F90F2
:1005D0008F9008950E94B309EF92FF920F931F939B
:1005E000CF93DF93EC017B018A0188819981009789
:1005F00029F02A813B8124173507F8F4B8016F5F91
:100600007F4F0E94E908009759F0998388831B83E4
:100610000A832C813D81232B81F4FC0110820DC0C3
:1006200088819981009711F00E94510819821882DF
:100630001D821C821B821A8207C01D830C83B70196
:10064000888199810E94C109CE01DF91CF911F91CC
:100650000F91FF90EF900895FB01DC0111961C9221
:100660001E9213961C921E92129715961C921E9221
:1006700014978617970749F060817181611571059C
:1006800021F0448155810C94EC0208952F923F9201
:100690004F925F926F927F928F929F92AF92BF9292
:1006A000CF92DF92EF92FF920F931F93CF93DF933E
:1006B000CDB7DEB729970FB6F894DEBF0FBECDBF1A
:1006C0004C012B013A0118018C010C5F1F4FFC01FA
:1006D00015821482178216821186108640E050E03F
:1006E0006CE371E0C80129870E94EC02F401518299
:1006F0004082738262821A8219821C821B821E824D
:100700001D8229852F831886BE01695F7F4FFB01FB
:1007100001900020E9F73197AF01461B570BCE013E
:1007200001963C010E94EC020615170571F1F401D7
:10073000848195810097B1F069817A816115710595
:1007400079F0468157812D813E814217530740F051
:100750000E94C1098D819E81F4019187808713C019
:100760000E94510889819A81F401958384838B8149
:100770009C81978386838D819E81918780871A8251
:1007800019821C821B821E821D8289819A810E948D
:100790005108F40133862286F586E486D786C6861C
:1007A000B18AA08A29960FB6F894DEBF0FBECDBFDE
:1007B000DF91CF911F910F91FF90EF90DF90CF903D
:1007C000BF90AF909F908F907F906F905F904F9071
:1007D0003F902F9008951F920F920FB60F92112401
:1007E0002F933F934F935F936F937F938F939F9339
:1007F000AF93BF93EF93FF9387EA91E00E941E01AE
:10080000FF91EF91BF91AF919F918F917F916F91E8
:100810005F914F913F912F910F900FBE0F901F90BE
:1008200018951F920F920FB60F9211242F938F934A
:100830009F93EF93FF93E091B701F091B80180810E
:10084000E091BD01F091BE0182FD12C090818091C6
:10085000C0018F5F8F732091C101821751F0E09129
:10086000C001F0E0E955FE4F958F8093C00101C0B3
:100870008081FF91EF919F918F912F910F900FBEEB
:100880000F901F9018951F920F920FB60F92112480
:100890002F933F938F939F93AF93BF9380919F012B
:1008A0009091A001A091A101B091A20130919E016F
:1008B00023E0230F2D3720F40196A11DB11D05C0A3
:1008C00026E8230F0296A11DB11D20939E0180935F
:1008D0009F019093A001A093A101B093A2018091E8
:1008E000A3019091A401A091A501B091A601019648
:1008F000A11DB11D8093A3019093A401A093A50114
:10090000B093A601BF91AF919F918F913F912F918D
:100910000F900FBE0F901F901895AF92BF92CF927D
:10092000DF92EF92FF920F931F93E7EAF1E01382B9
:10093000128288EE93E0A0E0B0E084839583A683E2
:10094000B7838AE091E09183808385EC90E095877E
:10095000848784EC90E09787868780EC90E0918B89
:10096000808B81EC90E0938B828B82EC90E0958B76
:10097000848B86EC90E0978B868B118E128E138E73
:10098000148E83E4A82EBB24B3949EE6C92E92E075
:10099000D92E22E0E22EF12C02E310E021E340E028
:1009A00050E06EE070E084E492E00E94460333E0A1
:1009B000E32EF12C22E340E050E06FE070E086E5AA
:1009C00092E00E94460344E0E42EF12C23E340E051
:1009D00050E060E170E088E692E00E94460353E553
:1009E000A52EBB24B39468E9C62E62E0D62E75E02E
:1009F000E72EF12C24E340E050E061E170E08AE76B
:100A000092E00E944603E6E5AE2EBB24B394F0EAE2
:100A1000CF2EF2E0DF2EA6E0EA2EF12C25E340E017
:100A200050E062E170E08CE892E00E944603B0E49E
:100A3000AB2EBB24B39484E6C82E82E0D82E97E078
:100A4000E92EF12C26E340E050E063E170E08EE90E
:100A500092E00E9446032FE1A22EBB24B39435E519
:100A6000C32E32E0D32E48E0E42EF12C27E340E001
:100A700050E064E170E080EB92E00E9446031F9139
:100A80000F91FF90EF90DF90CF90BF90AF900895BF
:100A9000CF93DF93CDB7DEB7A4970FB6F894DEBF40
:100AA0000FBECDBF789484B5826084BD84B581606B
:100AB00084BD85B5826085BD85B5816085BD809129
:100AC0006E00816080936E001092810080918100A1
:100AD0008260809381008091810081608093810099
:100AE000809180008160809380008091B10084605B
:100AF0008093B1008091B00081608093B0008091BC
:100B00007A00846080937A0080917A00826080937A
:100B10007A0080917A00816080937A0080917A00D7
:100B2000806880937A001092C100E091B701F09143
:100B3000B80182E08083E091B301F091B4011082AA
:100B4000E091B501F091B6018FEC80831092BF0166
:100B5000E091BB01F091BC0186E08083E091B90196
:100B6000F091BA01808180618083E091B901F091B8
:100B7000BA01808188608083E091B901F091BA0167
:100B8000808180688083E091B901F091BA01808111
:100B90008F7D808382E0C82ED12CE12CF12C88E15E
:100BA00091E00E946F02C701B6010E9471028C2D74
:100BB0000E9488008DE191E00E946F0264EF71E075
:100BC00080E090E00E9423028FEFC81AD80AE80A5A
:100BD000F80AEAE0CE16D104E104F10401F78CE052
:100BE0000E94880004E412E0B12CE091A701F0918A
:100BF000A8010190F081E02D6AE087EA91E0099573
:100C0000F801808191819C8B8B8B828193819E8B5B
:100C10008D8BB8016C5F7F4FCE0147960E942C03ED
:100C2000F801828593859E8F8D8F8485958598A305
:100C30008F8F868597859AA389A3808991899CA3A4
:100C40008BA3BE01695E7F4FCE0101960E942C03EB
:100C500080E391E00E946F024D815E8169817A811B
:100C600087EA91E00E94A8008AE391E00E945D0279
:100C700089819A810E9451088B899C899A838983F2
:100C80008D899E899C838B83BE01695E7F4FCE01D7
:100C900005960E942C038D8D9E8D9C878B878F8D52
:100CA00098A19E878D8789A19AA1988B8F878BA108
:100CB0009CA19A8B898B8B898E3008F08E5087701F
:100CC000806480937C0080917A00806480937A00B5
:100CD00080917A0086FDFCCFC090780080917900E9
:100CE000D12CD82A8DE391E00E946F020D2C000CCC
:100CF000EE08FF08C701B6010E9471024F845888B0
:100D0000052C000C66087708A701960124193509FF
:100D100046095709A4E6B0E00E94430729893A89A9
:100D20006901330FEE08FF08A70196012419350960
:100D3000460957090E9424073E8B2D8B8D819E8189
:100D40000E94510882E691E00E946F022D893E893F
:100D50008D8D9E8D281739079CF460E08F8D0E9441
:100D6000B2016F8D78A1072E000C880B990B0E94A1
:100D700071028FE491E00E946F02BB24B39410C013
:100D80006F8D78A1072E000C880B990B0E947102C1
:100D900086E691E00E946F0261E08F8D0E94B201B1
:100DA000ED88FE888CE791E00E946F02B701FF0C8E
:100DB000880B990B0E94710282E991E00E945D020A
:100DC0008AE391E00E945D02ED8CFE8C84E991E063
:100DD0000E946F02B701FF0C880B990B0E947102F1
:100DE00082E991E00E945D028AE391E00E945D0247
:100DF0008F89988D0E9451080E5E1F4FF2E0023CD1
:100E00001F0709F0F2CEBB2011F061E001C060E0E5
:100E10008CE00E94B20168EE73E080E090E00E94F6
:100E200023020E94A801DECECF93DF93C2ECD2E072
:100E300062978C819D810E94510882E0C434D8075A
:100E4000B9F7DF91CF910895052E97FB1EF400941A
:100E50000E943B0757FD07D00E94850707FC03D07F
:100E60004EF40C943B0750954095309521953F4F9B
:100E70004F4F5F4F089590958095709561957F4F86
:100E80008F4F9F4F08950E94A707A59F900DB49F75
:100E9000900DA49F800D911D112408952F923F92D3
:100EA0004F925F926F927F928F929F92AF92BF927A
:100EB000CF92DF92EF92FF920F931F93CF93DF9326
:100EC000CDB7DEB7CA1BDB0B0FB6F894DEBF0FBE83
:100ED000CDBF09942A88398848885F846E847D84D0
:100EE0008C849B84AA84B984C884DF80EE80FD80D2
:100EF0000C811B81AA81B981CE0FD11D0FB6F89448
:100F0000DEBF0FBECDBFED010895A1E21A2EAA1BD0
:100F1000BB1BFD010DC0AA1FBB1FEE1FFF1FA217A9
:100F2000B307E407F50720F0A21BB30BE40BF50BA6
:100F3000661F771F881F991F1A9469F7609570952F
:100F4000809590959B01AC01BD01CF010895A29FB2
:100F5000B001B39FC001A39F700D811D1124911D8D
:100F6000B29F700D811D1124911D0895EE0FFF1F7A
:100F70000590F491E02D0994CF93DF938230910591
:100F800010F482E090E0E091C402F091C50220E00C
:100F900030E0C0E0D0E0309711F140815181481736
:100FA0005907C0F04817590761F48281938120974F
:100FB00019F09B838A832BC09093C5028093C4024F
:100FC00026C02115310519F04217530718F49A016C
:100FD000BE01DF01EF010280F381E02DDCCF21159E
:100FE000310509F1281B390B2430310590F4129694
:100FF0008D919C9113976115710521F0FB019383ED
:10100000828304C09093C5028093C402FD0132968E
:1010100044C0FD01E20FF31F8193919322503109E7
:101020002D933C933AC02091C2023091C302232BEE
:1010300041F420910201309103013093C3022093C7
:10104000C20220910001309101012115310541F4C6
:101050002DB73EB74091040150910501241B350B7B
:10106000E091C202F091C302E217F307A0F42E1B35
:101070003F0B2817390778F0AC014E5F5F4F2417FC
:10108000350748F04E0F5F1F5093C3024093C202D2
:101090008193919302C0E0E0F0E0CF01DF91CF9126
:1010A00008950F931F93CF93DF93009709F48CC09B
:1010B000FC013297138212820091C4021091C50282
:1010C0000115110581F420813181820F931F209138
:1010D000C2023091C3022817390779F5F093C30291
:1010E000E093C20271C0D80140E050E0AE17BF07E4
:1010F00050F412962D913C911397AD0121153105B5
:1011000009F1D901F3CF9D01DA0133832283608194
:101110007181860F971F8217930769F4EC0128816C
:101120003981260F371F2E5F3F4F318320838A81FD
:101130009B8193838283452B29F4F093C502E0932E
:10114000C40242C01396FC93EE931297ED014991AD
:1011500059919E01240F351FE217F30771F4808126
:101160009181840F951F029611969C938E93828194
:10117000938113969C938E931297E0E0F0E0D80150
:1011800012968D919C911397009719F0F8018C019C
:10119000F6CF8D919C9198012E5F3F4F820F931F48
:1011A0002091C2023091C3022817390769F43097A1
:1011B00029F41092C5021092C40202C01382128256
:1011C0001093C3020093C202DF91CF911F910F9140
:1011D0000895A0E0B0E0EFEEF8E00C945207EC01C7
:1011E000009721F4CB010E94BC07B8C0FC01E60FB8
:1011F000F71F9C0122503109E217F30708F4ACC035
:10120000D9010D911C91119706171707B0F0053001
:10121000110508F49FC0C80104978617970708F4C2
:1012200099C002501109061B170B019311936D937E
:101230007C93CF010E9451088DC05B01A01AB10AB6
:101240004C01800E911EA091C402B091C50240E0F5
:1012500050E0E12CF12C109709F44AC0A815B9050B
:10126000D1F56D907C901197630182E0C80ED11C7E
:10127000CA14DB0480F1A3014A195B096A0182E008
:10128000C80ED11C1296BC9012971396AC91B5E083
:10129000CB16D10440F0B282A38351834083D9019D
:1012A0006D937C930AC00E5F1F4FC301800F911F87
:1012B000F90191838083EB2DFA2FE114F10431F0D1
:1012C000D7011396FC93EE93129744C0F093C50296
:1012D000E093C4023FC08D919C9111974817590724
:1012E00008F4AC017D0112960D90BC91A02DB3CFF6
:1012F0008091C2029091C30288159905E1F44617C6
:101300005707C8F48091000190910101009741F4C2
:101310008DB79EB74091040150910501841B950B38
:10132000E817F907C8F4F093C302E093C202F90189
:10133000718360830FC0CB010E94BC077C010097C2
:1013400059F0A801BE010E94B809CE010E945108BF
:10135000C70104C0CE0102C080E090E0CDB7DEB787
:10136000EEE00C946E0781E090E0F8940C94C809CC
:10137000FB01DC0102C001900D9241505040D8F7B2
:101380000895FB01DC0101900D920020E1F7089522
:1013900010E0CDE5D0E004C0FE010E94B607219622
:0A13A000CE35D107C9F7F894FFCF4E
:1013AA000000C6028000000000003F01A800D7002C
:1013BA0086010801E600FA0050696E200020697370
:1013CA002073657420746F204F55545055540A0089
:1013DA00202D20506C616E7420000D0A002D2053C0
:1013EA00656E736F722076616C7565203D200020F2
:1013FA0070696E206973205761746572696E672E11
:10140A002E2E202D20002070696E206973205765CA
:10141A007420656E6F756768202D2000202D204D81
:10142A006F6973747572652050657263656E743A7C
:0E143A002000250053657474696E673A200027
:00000001FF
