:100000000C9463000C948B000C948B000C94E20312
:100010000C94E2030C94E2030C948B000C948B0080
:100020000C948B000C948B000C948B000C948B0024
:100030000C948B000C948B000C948B000C948B0014
:100040000C9440030C948B000C94B0030C948A0322
:100050000C948B000C948B000C948B000C948B00F4
:100060000C948B000C948B0000000008000201002F
:100070000003040700000000000000000000000072
:1000800023002600290000000000240027002A0089
:1000900000000000250028002B00040404040404D0
:1000A0000404020202020202030303030303010227
:1000B00004081020408001020408102001020408F6
:1000C0001020A904CF0711241FBECFEFD8E0DEBF58
:1000D000CDBF22E0A0EBB1E001C01D92A53CB2076C
:1000E000E1F711E0A0E0B1E0ECE6F5E102C0059037
:1000F0000D92A03BB107D9F710E0C2E6D0E004C0F2
:100100002197FE010E94A708C136D107C9F70E94B6
:100110009E050C94A90A0C9400003FB7F8948091B6
:10012000FB019091FC01A091FD01B091FE0126B56B
:10013000A89B05C02F3F19F00196A11DB11D3FBF1F
:10014000BA2FA92F982F8827820F911DA11DB11DAD
:10015000BC01CD0142E0660F771F881F991F4A95A9
:10016000D1F708950895CF92DF92EF92FF920F9307
:100170001F93CF93DF936C017A018B01C0E0D0E035
:10018000CE15DF0581F0D8016D918D01D601ED917D
:10019000FC910190F081E02DC6010995892B11F0A9
:1001A0002196EECF7E01C701DF91CF911F910F9174
:1001B000FF90EF90DF90CF900895FC01538D448D18
:1001C000252F30E0842F90E0821B930B541710F002
:1001D000CF96089501970895FC01918D828D98170F
:1001E00061F0828DDF01A80FB11D5D968C91928D1B
:1001F0009F5F9F73928F90E008958FEF9FEF089518
:10020000FC01918D828D981731F0828DE80FF11DE0
:10021000858D90E008958FEF9FEF0895FC01918DFB
:10022000228D892F90E0805C9F4F821B91098F73F4
:10023000992708958FEF91E00E940E0121E0892B0C
:1002400009F420E0822F0895FC01848DDF01A80FBE
:10025000B11DA35ABF4F2C91848D90E001968F73EE
:100260009927848FA689B7892C93A089B1898C910D
:10027000837080648C93938D848D981306C002885C
:10028000F389E02D80818F7D80830895EF92FF9226
:100290000F931F93CF93DF93EC0181E0888F9B8DA9
:1002A0008C8D981305C0E889F989808185FD26C069
:1002B000F62E0B8D10E00F5F1F4F0F731127E02EEE
:1002C0008C8DE8120CC00FB607FCFACFE889F989CB
:1002D000808185FFF5CFCE010E942401F1CF8B8D67
:1002E000FE01E80FF11DE35AFF4FF0829FB7F8942B
:1002F0000B8FEA89FB89808180620AC09FB7F894DE
:10030000EE89FF896083E889F98980818370806440
:1003100080839FBF81E090E0DF91CF911F910F918B
:10032000FF90EF900895CF93DF93EC01888D8823A1
:10033000C9F0EA89FB89808185FD05C0A889B98952
:100340008C9186FD0FC00FB607FCF5CF808185FF2D
:10035000F2CFA889B9898C9185FFEDCFCE010E949B
:100360002401E7CFDF91CF91089580E090E0892BC1
:1003700029F00E941A0181110C9400000895209127
:10038000F2013091F3012817390771F49091F001CF
:100390008091F101981741F0E091F001F0E0E05513
:1003A000FE4F808190E008958FEF9FEF08950895AC
:1003B0001F93CF93DF93DC015C968D919C915D97A9
:1003C000009739F421E030E013963C932E93129776
:1003D0003BC05196ED91FC91529750962C915097BD
:1003E000322F30951FB75E964C915E97742F7270C6
:1003F00041FD6095F8944081772311F0422B01C0B4
:1004000043234083EC012197F1F748E0508160FFDE
:1004100002C0522B01C053235083EC012197F1F706
:100420006695415099F78081772319F08323808363
:1004300002C0282B20831FBF5C968D919C915D97F5
:100440000197F1F781E090E0DF91CF911F9108953E
:100450002091F2013091F3012817390771F480914E
:10046000F1012091F00190E0805C9F4F821B910987
:1004700060E470E00E945D08089580E090E00895D7
:100480002091F2013091F30128173907B9F49091C6
:10049000F0018091F101981789F0E091F001F0E00E
:1004A000E055FE4F80812091F00130E02F5F3F4FFB
:1004B0002F7333272093F00190E008958FEF9FEF83
:1004C000089580E090E008956115710579F0FB01D1
:1004D00001900020E9F73197AF01461B570BDC0173
:1004E000ED91FC910280F381E02D099480E090E091
:1004F00008958F929F92AF92BF920F931F93CF93C5
:10050000DF93CDB7DEB7A1970FB6F894DEBF0FBE6D
:10051000CDBF19A2423008F44AE08E010F5D1F4F93
:10052000842E912CA12CB12CA50194010E9471085C
:10053000E62FB901CA0101501109EA3014F4E05D57
:1005400001C0E95CD801EC93232B242B252B61F708
:10055000B8018FEF91E00E946402A1960FB6F89463
:10056000DEBF0FBECDBFDF91CF911F910F91BF9026
:10057000AF909F908F900895CF92DF92EF92FF926D
:10058000CF93DF936115710531F4682F8FEF91E000
:100590000E94460123C06C01990FEE08FF086A30E3
:1005A0007105B9F4F7FE13C06DE28FEF91E00E9480
:1005B0004601EC0166277727CB016C197D098E096E
:1005C0009F094AE00E947902C80FD91F08C04AE07B
:1005D00001C0462FC701B6010E947902EC016AE210
:1005E00071E08FEF91E00E9464028C0F9D1FDF91FC
:1005F000CF91FF90EF90DF90CF9008950E94940AE2
:10060000EF92FF920F931F93CF93DF93EC017B0147
:100610008A0188819981009729F02A813B812417DA
:100620003507F8F4B8016F5F7F4F0E94CE0900973D
:1006300059F0998388831B830A832C813D81232B66
:1006400081F4FC0110820DC088819981009711F01E
:100650000E944509198218821D821C821B821A82FF
:1006600007C01D830C83B701888199810E94A20A6B
:10067000CE01DF91CF911F910F91FF90EF900895E0
:100680001F920F920FB60F9211242F933F938F93C7
:100690009F93AF93BF938091F7019091F801A09140
:1006A000F901B091FA013091F60123E0230F2D37C3
:1006B00020F40196A11DB11D05C026E8230F029666
:1006C000A11DB11D2093F6018093F7019093F801CD
:1006D000A093F901B093FA018091FB019091FC0184
:1006E000A091FD01B091FE010196A11DB11D809365
:1006F000FB019093FC01A093FD01B093FE01BF911B
:10070000AF919F918F913F912F910F900FBE0F90BE
:100710001F9018951F920F920FB60F9211242F93CE
:100720003F934F935F936F937F938F939F93AF9379
:10073000BF93EF93FF938FEF91E00E942401FF910D
:10074000EF91BF91AF919F918F917F916F915F9149
:100750004F913F912F910F900FBE0F901F901895C2
:100760001F920F920FB60F9211242F938F939F9386
:10077000EF93FF93E0910F02F09110028081E091DE
:100780001502F091160282FD12C09081809118022C
:100790008F5F8F7320911902821751F0E091180238
:1007A000F0E0E150FE4F958F8093180201C08081E8
:1007B000FF91EF919F918F912F910F900FBE0F900E
:1007C0001F9018951F920F920FB60F9211242F931E
:1007D0003F934F935F936F937F938F939F93AF93C9
:1007E000BF93EF93FF93E091F201F091F301309703
:1007F00009F451C0968DA685B785858591FF04C003
:100800009C91892329F447C09C91892309F043C016
:10081000A389B4899C918589809589238C93868945
:1008200097890197F1F7608D718DA685B7855585FC
:1008300038E020E0CB010197F1F7822F90E0959509
:100840008795282F4C91452309F02068315091F766
:10085000868D81FD20958091F10190E001968F7346
:1008600099273091F001381749F0A091F101B0E0DB
:10087000A055BE4F2C938093F10103C0868D8160FB
:10088000868F828D938D0197F1F7A389B4899C910E
:100890008589892B8C93FF91EF91BF91AF919F91A7
:1008A0008F917F916F915F914F913F912F910F9019
:1008B0000FBE0F901F90189590E0FC01E859FF4F74
:1008C0002491FC01E255FF4F3491FC01E656FF4FA5
:1008D000E491EE2309F43CC0222339F1233091F056
:1008E00038F42130A9F0223001F584B58F7D12C093
:1008F000273091F02830A1F02430B9F480918000A5
:100900008F7D03C0809180008F77809380000DC021
:1009100084B58F7784BD09C08091B0008F7703C004
:100920008091B0008F7D8093B000F0E0EE0FFF1F4C
:10093000E057FF4FA591B4919FB7F894611104C09F
:100940008C913095382302C0EC913E2B3C939FBF95
:100950000895CF93DF93109202021092010288EE65
:1009600093E0A0E0B0E08093030290930402A09390
:100970000502B09306022AE031E030930002209392
:10098000FF0125EC30E030930C0220930B0224ECA5
:1009900030E030930E0220930D0220EC30E03093D3
:1009A000100220930F0221EC30E0309312022093CA
:1009B000110222EC30E0309314022093130226EC53
:1009C00030E0309316022093150210921802109214
:1009D000190210921A0210921B021092A502109294
:1009E000A4028093A6029093A702A093A802B093BA
:1009F000A9028CE191E09093A3028093A20210924D
:100A0000B9021092B8021092BB021092BA02109270
:100A1000BD021092BC021092BF021092BE02609101
:100A2000C0026E7F6D7F6093C0026695617081E049
:100A300068278BE00E945C04E9EBF0E02491E5EA92
:100A4000F0E08491882399F090E0880F991FFC01D1
:100A5000EA57FF4FA591B491FC01E057FF4F8591F4
:100A600094918FB7F894EC91E22BEC938FBFE9EB64
:100A7000F0E0E491E093B202E5EAF0E0E491F0E026
:100A8000EE0FFF1FE057FF4F859194919093B402B2
:100A90008093B302E8EBF0E02491E4EAF0E0849183
:100AA0008823C1F090E0880F991FFC01EA57FF4F9F
:100AB000C591D491FC01E057FF4FA591B4919FB728
:100AC000F8948881E22FE0958E2388838C91E82327
:100AD000EC939FBF8091C00281FD04C061E08AE079
:100AE0000E945C048AE08093AE02E8EBF0E0E491BF
:100AF000E093AF02E4EAF0E0E491F0E0EE0FFF1FD4
:100B0000E458FF4F859194919093B1028093B00285
:100B100010929D0210929C0210929F0210929E02CF
:100B20001092A1021092A00240E050E06CE271E04D
:100B30008CE992E0DF91CF910C940003CF93DF9387
:100B4000CDB7DEB768970FB6F894DEBF0FBECDBF46
:100B5000789484B5826084BD84B5816084BD85B598
:100B6000826085BD85B5816085BD80916E008160A4
:100B700080936E001092810080918100826080934A
:100B8000810080918100816080938100809180004C
:100B90008160809380008091B10084608093B10077
:100BA0008091B00081608093B00080917A00846071
:100BB00080937A0080917A00826080937A0080919D
:100BC0007A00816080937A0080917A0080688093B7
:100BD0007A001092C100E0910F02F091100282E0C1
:100BE0008083E0910B02F0910C021082E0910D02E3
:100BF000F0910E028FEC808310921702E0911302A5
:100C0000F091140286E08083E0911102F0911202CB
:100C1000808180618083E0911102F09112028081D5
:100C200088608083E0911102F091120280818068D7
:100C30008083E0911102F091120280818F7D808388
:100C40006DE271E08FEF91E00E9464026AE271E070
:100C50008FEF91E00E9464021092BD021092BC02DC
:100C60001092BB021092BA021092B9021092B8020E
:100C70008DE991E09093BF028093BE029091AE0205
:100C8000963108F058C02DEB30E03093B902209334
:100C9000B8022BE931E03093BB022093BA022CE278
:100CA00031E03093BD022093BC024091680098303F
:100CB00058F031E09E3008F430E021E0822F01C08E
:100CC000880F3A95EAF701C084E0842B809368008E
:100CD000983038F09E3040F0963148F42CE630E001
:100CE00008C02DE630E005C02BE630E002C020E071
:100CF00030E03093B6022093B502983030F481E0B2
:100D000001C0880F9A95EAF70EC0292F30E09E3077
:100D100018F42850310902C02E50310981E001C079
:100D2000880F2A95EAF78093B7028091BE029091CE
:100D3000BF020197F1F78091BC029091BD02892B0F
:100D400049F1E091F201F091F30122E0E23AF20779
:100D500009F1309739F0A389B4899C9185898095F0
:100D600089238C938091C0028E7F8093C002109261
:100D7000F1011092F00182EA92E09093F3018093E6
:100D8000F201E091B502F091B60290818091B70234
:100D9000892B80836DE371E082EA92E00E94640215
:100DA0006AE271E082EA92E00E9464028E010F5FC3
:100DB0001F4F82EA92E00E942802892BD9F082EA32
:100DC00092E00E944002682F8FEF91E00E9446015E
:100DD0000E948D006B017C010E948D00DC01CB0123
:100DE0008C199D09AE09BF09883E9340A105B10544
:100DF00000F7F2CF82EA92E00E9440029093F50160
:100E00008093F4016BE471E08FEF91E00E94640243
:100E10006AE070E08091F4019091F5010E94BC02BB
:100E20006FE571E08FEF91E00E9464026AE070E08C
:100E30008091F4019091F5010E94BC0263E771E09A
:100E40008FEF91E00E94640260E170E08091F40114
:100E50009091F5010E94BC0267E871E08FEF91E08C
:100E60000E94640268E070E08091F4019091F501C5
:100E70000E94BC026BE971E08FEF91E00E94640276
:100E800062E070E08091F4019091F5010E94BC0253
:100E90008091F4019091F5011C8A1B8A1E8A1D8A9B
:100EA000188E1F8A4AE0B8010E94F107F8010190EC
:100EB0000020E9F73197AF01401B510BB801CE017B
:100EC00043960E94000380919C0290919D0200979E
:100ED00041F06B897C896115710509F04DC00E9454
:100EE00045098B899C8990939D0280939C028D89F2
:100EF0009E8990939F0280939E028F89988D9093F4
:100F0000A1028093A0021C8A1B8A8B899C890E9463
:100F100045094091A0025091A10260919C027091FC
:100F20009D028FEF91E00E94B3006AE271E08FEFC3
:100F300091E00E94640282EA92E00E942802892BDA
:100F400049F082EA92E00E944002682F8FEF91E020
:100F50000E9446018FEF91E00E940E01892B49F01B
:100F60008FEF91E00E94EC00682F82EA92E00E94ED
:100F7000D8010E94B5011DCF40919E0250919F0261
:100F80002F89388D4217530708F4A9CF0E94A20A6F
:100F90008F89988D9093A1028093A002B6CF809103
:100FA0009C0290919D020E9445098CE191E09093F2
:100FB000A3028093A2028091F2019091F301825AE0
:100FC000924071F4E091B502F091B6029081809167
:100FD000B7028095892380831092F3011092F20169
:100FE0000895BB274A3031F4992322F4BDE290954D
:100FF00081959F4F0C94FD07BB27FB015527AA271E
:10100000880F991FAA1FA41710F0A41B8395505195
:10101000B9F7A05DAA3308F0A95DA193009779F70D
:10102000B111B1931192CB010C941608DC01FC01B3
:10103000672F71917723E1F7329704C07C916D930C
:1010400070836291AE17BF07C8F308952F923F9245
:101050004F925F926F927F928F929F92AF92BF92C8
:10106000CF92DF92EF92FF920F931F93CF93DF9374
:10107000CDB7DEB7CA1BDB0B0FB6F894DEBF0FBED1
:10108000CDBF09942A88398848885F846E847D841E
:101090008C849B84AA84B984C884DF80EE80FD8020
:1010A0000C811B81AA81B981CE0FD11D0FB6F89496
:1010B000DEBF0FBECDBFED01089597FB072E16F4DE
:1010C000009407D077FD09D00E94930807FC05D053
:1010D0003EF4909581959F4F0895709561957F4F4F
:1010E0000895A1E21A2EAA1BBB1BFD010DC0AA1F69
:1010F000BB1FEE1FFF1FA217B307E407F50720F081
:10110000A21BB30BE40BF50B661F771F881F991FFB
:101110001A9469F760957095809590959B01AC0144
:10112000BD01CF010895AA1BBB1B51E107C0AA1F37
:10113000BB1FA617B70710F0A61BB70B881F991F78
:101140005A95A9F780959095BC01CD010895EE0FB1
:10115000FF1F0590F491E02D09940F931F93CF93F7
:10116000DF938230910510F482E090E0E091C302B9
:10117000F091C40220E030E0A0E0B0E0309719F137
:10118000408151810281138148175907C8F08417A3
:10119000950769F4109731F012960C9312971396F5
:1011A0001C9327C00093C3021093C40222C02115D0
:1011B000310519F04217530718F49A01BD01EF01E8
:1011C000DF01F801DBCF21153105F9F0281B390BC0
:1011D0002430310580F48A819B816115710521F0ED
:1011E000FB019383828304C09093C4028093C30263
:1011F000FE01329644C0FE01E20FF31F81939193EA
:1012000022503109398328833AC02091C10230919C
:10121000C202232B41F4209102013091030130934B
:10122000C2022093C10220910001309101012115D9
:10123000310541F42DB73EB74091040150910501AD
:10124000241B350BE091C102F091C202E217F307B3
:10125000A0F42E1B3F0B2817390778F0AC014E5F26
:101260005F4F2417350748F04E0F5F1F5093C2029F
:101270004093C1028193919302C0E0E0F0E0CF017E
:10128000DF91CF911F910F910895CF93DF93009736
:1012900009F481C0FC01329713821282A091C3022B
:1012A000B091C402109781F420813181820F931F85
:1012B0002091C1023091C2022817390751F5F093ED
:1012C000C202E093C10267C0ED0120E030E0CE171A
:1012D000DF0740F44A815B819E0141155105F1F021
:1012E000EA01F5CFD383C28340815181840F951FDA
:1012F000C817D90759F488819981840F951F0296E0
:10130000918380838A819B81938382832115310518
:1013100029F4F093C402E093C3023DC0E901FB83CA
:10132000EA8349915991C40FD51FEC17FD0761F469
:1013300080819181840F951F0296E90199838883AA
:10134000828193819B838A83E0E0F0E012968D9105
:101350009C911397009719F0FD01DC01F7CF8D9157
:101360009C9111979D012E5F3F4F820F931F2091FB
:10137000C1023091C2022817390769F4309729F465
:101380001092C4021092C30202C013821282B09360
:10139000C202A093C102DF91CF910895A0E0B0E016
:1013A000E4EDF9E00C942A08EC01009721F4CB015C
:1013B0000E94AD08B4C0FC01E60FF71F9C0122504B
:1013C0003109E217F30708F4A8C0D9010D911C9167
:1013D000119706171707B0F00530110508F49BC0E8
:1013E000C80104978617970708F495C002501109A1
:1013F000061B170B019311936D937C93CF010E94F1
:10140000450989C05B01A01AB10A4C01800E911EEA
:10141000A091C302B091C402612C712CE12CF12C7B
:10142000109709F446C08D919C911197A815B905A4
:10143000B1F56C0142E0C40ED11CCA14DB0478F192
:101440004C018A189B08640142E0C40ED11C12961C
:10145000BC9012971396AC91B5E0CB16D10440F036
:10146000B282A38391828082D9016D937C9309C05B
:101470000E5F1F4F800F911FF90191838083EB2D29
:10148000FA2FE114F10431F0D7011396FC93EE9397
:10149000129741C0F093C402E093C3023CC06816A7
:1014A000790608F43C017D0112960D90BC91A02DA7
:1014B000B7CF8091C1029091C20288169906E1F4DB
:1014C00066167706C8F4809100019091010100979B
:1014D00041F48DB79EB74091040150910501841BE2
:1014E000950BE817F907C8F4F093C202E093C10224
:1014F000F901718360830FC0CB010E94AD087C01AC
:10150000009759F0A801BE010E94990ACE010E94DD
:101510004509C70104C0CE0102C080E090E0CDB70C
:10152000DEB7EEE00C94460881E090E0F8940C946D
:10153000A90AFB01DC0102C001900D92415050400C
:10154000D8F70895FB01DC0101900D920020E1F72E
:10155000089510E0C2E6D0E004C0FE010E94A70892
:0C1560002196C336D107C9F7F894FFCFDD
:10156C000000C5028000000000004601B300DD0051
:10157C0093010E01EC00000100000000D801B30043
:10158C006102D70128024002BF010D0A00476F6FAC
:10159C00646E69676874206D6F6F6E210048656CAE
:1015AC006C6F2C20776F726C643F004920726563FE
:1015BC00656976656420696E207261773A2000490E
:1015CC0020726563656976656420617320444543C8
:1015DC003A20004920726563656976656420617301
:1015EC00204845583A200049207265636569766544
:1015FC0064206173204F43543A2000492072656384
:10160C0065697665642061732042494E3A2000007A
:00000001FF
