:100000000C9463000C948B000C948B000C947E0376
:100010000C947E030C947E030C948B000C948B0048
:100020000C948B000C948B000C948B000C948B0024
:100030000C948B000C948B000C948B000C948B0014
:100040000C94DC020C948B000C944C030C9426034F
:100050000C948B000C948B000C948B000C948B00F4
:100060000C948B000C948B0000000008000201002F
:100070000003040700000000000000000000000072
:1000800023002600290000000000240027002A0089
:1000900000000000250028002B00040404040404D0
:1000A0000404020202020202030303030303010227
:1000B00004081020408001020408102001020408F6
:1000C00010204504EC0611241FBECFEFD8E0DEBFA0
:1000D000CDBF22E0AEE4B1E001C01D92AB35B20766
:1000E000E1F711E0A0E0B1E0ECEEF2E102C0059032
:1000F0000D92AE34B107D9F710E0C2E6D0E004C0EB
:100100002197FE010E946707C136D107C9F70E94F7
:1001100027050C9469090C9400003FB7F89480916E
:10012000970190919801A0919901B0919A0126B5FB
:10013000A89B05C02F3F19F00196A11DB11D3FBF1F
:10014000BA2FA92F982F8827820F911DA11DB11DAD
:10015000BC01CD0142E0660F771F881F991F4A95A9
:10016000D1F708958F929F92AF92BF92CF92DF9274
:10017000EF92FF926B017C010E948D004B015C01AC
:10018000C114D104E104F104F1F00E948D00DC01FE
:10019000CB0188199909AA09BB09883E9340A1059A
:1001A000B10570F321E0C21AD108E108F10888EE28
:1001B000880E83E0981EA11CB11CC114D104E10477
:1001C000F10419F7DDCFFF90EF90DF90CF90BF9053
:1001D000AF909F908F900895CF92DF92EF92FF9211
:1001E0000F931F93CF93DF936C017A018B01C0E0D3
:1001F000D0E0CE15DF0581F0D8016D918D01D601DB
:10020000ED91FC910190F081E02DC6010995892BBB
:1002100011F02196EECF7E01C701DF91CF911F91A2
:100220000F91FF90EF90DF90CF900895FC01538DD8
:10023000448D252F30E0842F90E0821B930B5417C0
:1002400010F0CF96089501970895FC01918D828D4D
:10025000981761F0828DDF01A80FB11D5D968C911A
:10026000928D9F5F9F73928F90E008958FEF9FEF25
:100270000895FC01918D828D981731F0828DE80FE1
:10028000F11D858D90E008958FEF9FEF0895FC019B
:10029000918D228D892F90E0805C9F4F821B910968
:1002A0008F73992708958BE991E00E94470121E01F
:1002B000892B09F420E0822F0895FC01848DDF0151
:1002C000A80FB11DA35ABF4F2C91848D90E00196C9
:1002D0008F739927848FA689B7892C93A089B189B8
:1002E0008C91837080648C93938D848D981306C059
:1002F0000288F389E02D80818F7D80830895EF92BD
:10030000FF920F931F93CF93DF93EC0181E0888FCF
:100310009B8D8C8D981305C0E889F989808185FDB6
:1003200026C0F62E0B8D10E00F5F1F4F0F731127A5
:10033000E02E8C8DE8120CC00FB607FCFACFE889CE
:10034000F989808185FFF5CFCE010E945D01F1CF53
:100350008B8DFE01E80FF11DE35AFF4FF0829FB72E
:10036000F8940B8FEA89FB89808180620AC09FB76D
:10037000F894EE89FF896083E889F9898081837028
:10038000806480839FBF81E090E0DF91CF911F91D7
:100390000F91FF90EF900895CF93DF93EC01888D3C
:1003A0008823C9F0EA89FB89808185FD05C0A88979
:1003B000B9898C9186FD0FC00FB607FCF5CF8081FF
:1003C00085FFF2CFA889B9898C9185FFEDCFCE0149
:1003D0000E945D01E7CFDF91CF91089580E090E02A
:1003E000892B29F00E94530181110C94000008957B
:1003F00020919001309191012817390771F4909163
:100400008E0180918F01981741F0E0918E01F0E00C
:10041000E25BFE4F808190E008958FEF9FEF08959B
:1004200008951F93CF93DF93DC015C968D919C918F
:100430005D97009739F421E030E013963C932E93BA
:1004400012973BC05196ED91FC91529750962C918A
:100450005097322F30951FB75E964C915E97742F50
:10046000727041FD6095F8944081772311F0422B22
:1004700001C043234083EC012197F1F748E050810C
:1004800060FF02C0522B01C053235083EC0121971F
:10049000F1F76695415099F78081772319F083230E
:1004A000808302C0282B20831FBF5C968D919C9176
:1004B0005D970197F1F781E090E0DF91CF911F9177
:1004C000089520919001309191012817390771F416
:1004D00080918F0120918E0190E0805C9F4F821B64
:1004E000910960E470E00E943F07089580E090E089
:1004F0000895209190013091910128173907B9F49E
:1005000090918E0180918F01981789F0E0918E0172
:10051000F0E0E25BFE4F808120918E0130E02F5FA2
:100520003F4F2F73332720938E0190E008958FEF74
:100530009FEF0895089580E090E00895611571059A
:1005400079F0FB0101900020E9F73197AF01461BDC
:10055000570BDC01ED91FC910280F381E02D0994B1
:1005600080E090E008950E9454090F931F93CF9369
:10057000DF93EC0188819981009729F02A813B81E2
:100580002617370788F48B016F5F7F4F0E948E0814
:10059000009761F0998388831B830A832C813D81B6
:1005A000232B11F4FC01108281E001C080E0DF9177
:1005B000CF911F910F9108951F920F920FB60F9236
:1005C00011242F933F938F939F93AF93BF93809169
:1005D000930190919401A0919501B0919601309171
:1005E000920123E0230F2D3720F40196A11DB11DA8
:1005F00005C026E8230F0296A11DB11D209392018C
:100600008093930190939401A0939501B0939601E8
:100610008091970190919801A0919901B0919A01D0
:100620000196A11DB11D8093970190939801A0930D
:100630009901B0939A01BF91AF919F918F913F9192
:100640002F910F900FBE0F901F9018951F920F9231
:100650000FB60F9211242F933F934F935F936F9395
:100660007F938F939F93AF93BF93EF93FF938BE908
:1006700091E00E945D01FF91EF91BF91AF919F9139
:100680008F917F916F915F914F913F912F910F903B
:100690000FBE0F901F9018951F920F920FB60F92DA
:1006A00011242F938F939F93EF93FF93E091AB01CE
:1006B000F091AC018081E091B101F091B20182FD35
:1006C00012C090818091B4018F5F8F732091B5012A
:1006D000821751F0E091B401F0E0E556FE4F958F9E
:1006E0008093B40101C08081FF91EF919F918F9120
:1006F0002F910F900FBE0F901F9018951F920F9281
:100700000FB60F9211242F933F934F935F936F93E4
:100710007F938F939F93AF93BF93EF93FF93E0915A
:100720009001F0919101309709F451C0968DA68502
:10073000B785858591FF04C09C91892329F447C022
:100740009C91892309F043C0A389B4899C91858930
:10075000809589238C93868997890197F1F7608D1D
:10076000718DA685B785558538E020E0CB010197CE
:10077000F1F7822F90E095958795282F4C9145238E
:1007800009F02068315091F7868D81FD2095809188
:100790008F0190E001968F73992730918E01381761
:1007A00049F0A0918F01B0E0A25BBE4F2C938093E3
:1007B0008F0103C0868D8160868F828D938D019716
:1007C000F1F7A389B4899C918589892B8C93FF913A
:1007D000EF91BF91AF919F918F917F916F915F91B9
:1007E0004F913F912F910F900FBE0F901F90189532
:1007F00090E0FC01E859FF4F2491FC01E255FF4FC6
:100800003491FC01E656FF4FE491EE2309F43CC01D
:10081000222339F1233091F038F42130A9F022302D
:1008200001F584B58F7D12C0273091F02830A1F0FA
:100830002430B9F4809180008F7D03C080918000C6
:100840008F77809380000DC084B58F7784BD09C0F9
:100850008091B0008F7703C08091B0008F7D80932E
:10086000B000F0E0EE0FFF1FE057FF4FA591B491ED
:100870009FB7F894611104C08C913095382302C061
:10088000EC913E2B3C939FBF0895CF93DF93109242
:100890009E0110929D0188EE93E0A0E0B0E080936D
:1008A0009F019093A001A093A101B093A2012AE01F
:1008B00031E030939C0120939B0125EC30E0309394
:1008C000A8012093A70124EC30E03093AA012093E3
:1008D000A90120EC30E03093AC012093AB0121EC76
:1008E00030E03093AE012093AD0122EC30E0309344
:1008F000B0012093AF0126EC30E03093B201209399
:10090000B1011092B4011092B5011092B60110928B
:10091000B70110923B0210923A0280933C029093EE
:100920003D02A0933E02B0933F028CE191E0909390
:1009300039028093380210924F0210924E021092A8
:1009400051021092500210925302109252021092D1
:10095000550210925402609156026E7F6D7F609333
:1009600056026695617081E068278BE00E94F8036B
:10097000E9EBF0E02491E5EAF0E08491882399F036
:1009800090E0880F991FFC01EA57FF4FA591B491A1
:10099000FC01E057FF4F859194918FB7F894EC914B
:1009A000E22BEC938FBFE9EBF0E0E491E093480297
:1009B000E5EAF0E0E491F0E0EE0FFF1FE057FF4FB3
:1009C0008591949190934A0280934902E8EBF0E07C
:1009D0002491E4EAF0E084918823C1F090E0880F4C
:1009E000991FFC01EA57FF4FC591D491FC01E057D4
:1009F000FF4FA591B4919FB7F8948881E22FE095BD
:100A00008E2388838C91E823EC939FBF80915602BC
:100A100081FD04C061E08AE00E94F8038AE08093CF
:100A20004402E8EBF0E0E491E0934502E4EAF0E010
:100A3000E491F0E0EE0FFF1FE458FF4F8591949191
:100A40009093470280934602DF91CF910895CF9310
:100A5000DF93CDB7DEB728970FB6F894DEBF0FBE91
:100A6000CDBF789484B5826084BD84B5816084BD37
:100A700085B5826085BD85B5816085BD80916E003C
:100A8000816080936E00109281008091810082606D
:100A900080938100809181008160809381008091AA
:100AA00080008160809380008091B1008460809399
:100AB000B1008091B00081608093B00080917A0095
:100AC000846080937A0080917A00826080937A00BB
:100AD00080917A00816080937A0080917A008068AA
:100AE00080937A001092C100E091AB01F091AC01CB
:100AF00082E08083E091A701F091A8011082E0914B
:100B0000A901F091AA0180E180831092B301E091E4
:100B1000AF01F091B00186E08083E091AD01F091EA
:100B2000AE01808180618083E091AD01F091AE01E2
:100B3000808188608083E091AD01F091AE01808179
:100B400080688083E091AD01F091AE0180818F7D5E
:100B5000808360ED77E080E090E00E94B200109228
:100B600053021092520210925102109250021092AF
:100B70004F0210924E028FE190E0909355028093C5
:100B8000540290914402963108F058C021E030E0C0
:100B900030934F0220934E022DE130E0309351020A
:100BA000209350022DE030E0309353022093520204
:100BB00040916800983058F031E09E3008F430E001
:100BC00021E0822F01C0880F3A95EAF701C084E046
:100BD000842B80936800983038F09E3040F0963136
:100BE00048F020E030E008C02DE630E005C02BE6FC
:100BF00030E002C02CE630E030934C0220934B02F0
:100C0000983030F481E001C0880F9A95EAF70EC061
:100C1000292F30E09E3018F42850310902C02E50A0
:100C2000310981E001C0880F2A95EAF780934D02CF
:100C300080915402909155020197F1F780915202F0
:100C400090915302892B49F1E0919001F09191012B
:100C500082E0E833F80709F1309739F0A389B489C5
:100C60009C918589809589238C93809156028E7FF3
:100C70008093560210928F0110928E0188E392E0C9
:100C80009093910180939001E0914B02F0914C027E
:100C9000908180914D02892B808360ED77E080E028
:100CA00090E00E94B2006AE271E08BE991E00E945C
:100CB0009E0264E471E08BE991E00E949E0267E489
:100CC00071E088E392E00E949E0264E471E088E3B0
:100CD00092E00E949E0288E392E00E946102892BCA
:100CE00081F088E392E00E946102892B51F088E351
:100CF00092E00E947902682F8BE991E00E947F01C7
:100D0000F0CF8BE991E00E944701892B09F461C083
:100D100068EE73E080E090E00E94B2001A821982CF
:100D20001C821B821E821D8260E070E0CE01019653
:100D30000E94B50229813A8181110DC0211531052A
:100D400019F0C9010E9405081A8219821E821D82AB
:100D50001C821B8207C01E821D8266E471E0C901ED
:100D60000E9462098BE991E00E944701892BF9F00A
:100D70008BE991E00E9425018F8318860D811E81E9
:100D80000F5F1F4FB801CE0101960E94B502882364
:100D900049F329813A818D819E81BE01695F7F4F30
:100DA000820F931F0E9462091E830D83DBCF4D814A
:100DB0005E8169817A8188E392E00E94EC0064E4BC
:100DC00071E088E392E00E949E0289819A810E94EC
:100DD00005080E94EE017FCF8CE191E090933902EB
:100DE00080933802809190019091910188539240B4
:100DF00071F4E0914B02F0914C02908180914D0290
:100E0000809589238083109291011092900108951A
:100E10002F923F924F925F926F927F928F929F920A
:100E2000AF92BF92CF92DF92EF92FF920F931F93F8
:100E3000CF93DF93CDB7DEB7CA1BDB0B0FB6F894A9
:100E4000DEBF0FBECDBF09942A88398848885F84E9
:100E50006E847D848C849B84AA84B984C884DF805A
:100E6000EE80FD800C811B81AA81B981CE0FD11D3E
:100E70000FB6F894DEBF0FBECDBFED01089597FB0E
:100E8000072E16F4009407D077FD09D00E9453076F
:100E900007FC05D03EF4909581959F4F089570957D
:100EA00061957F4F0895AA1BBB1B51E107C0AA1F84
:100EB000BB1FA617B70710F0A61BB70B881F991FFB
:100EC0005A95A9F780959095BC01CD010895EE0F34
:100ED000FF1F0590F491E02D09940F931F93CF937A
:100EE000DF938230910510F482E090E0E0915902A6
:100EF000F0915A0220E030E0A0E0B0E0309719F124
:100F0000408151810281138148175907C8F0841725
:100F1000950769F4109731F012960C931297139677
:100F20001C9327C00093590210935A0222C0211526
:100F3000310519F04217530718F49A01BD01EF016A
:100F4000DF01F801DBCF21153105F9F0281B390B42
:100F50002430310580F48A819B816115710521F06F
:100F6000FB019383828304C090935A0280935902B9
:100F7000FE01329644C0FE01E20FF31F819391936C
:100F800022503109398328833AC020915702309189
:100F90005802232B41F42091020130910301309338
:100FA0005802209357022091000130910101211530
:100FB000310541F42DB73EB7409104015091050130
:100FC000241B350BE0915702F0915802E217F3070A
:100FD000A0F42E1B3F0B2817390778F0AC014E5FA9
:100FE0005F4F2417350748F04E0F5F1F509358028C
:100FF000409357028193919302C0E0E0F0E0CF016B
:10100000DF91CF911F910F910895CF93DF930097B8
:1010100009F481C0FC01329713821282A091590217
:10102000B0915A02109781F420813181820F931F71
:1010300020915702309158022817390751F5F09343
:101040005802E093570267C0ED0120E030E0CE1770
:10105000DF0740F44A815B819E0141155105F1F0A3
:10106000EA01F5CFD383C28340815181840F951F5C
:10107000C817D90759F488819981840F951F029662
:10108000918380838A819B8193838283211531059B
:1010900029F4F0935A02E09359023DC0E901FB8321
:1010A000EA8349915991C40FD51FEC17FD0761F4EC
:1010B00080819181840F951F0296E901998388832D
:1010C000828193819B838A83E0E0F0E012968D9188
:1010D0009C911397009719F0FD01DC01F7CF8D91DA
:1010E0009C9111979D012E5F3F4F820F931F20917E
:1010F0005702309158022817390769F4309729F4BC
:1011000010925A021092590202C013821282B093B6
:101110005802A0935702DF91CF910895A0E0B0E06C
:10112000E4E9F8E00C940C07EC01009721F4CB0102
:101130000E946D07B4C0FC01E60FF71F9C0122500E
:101140003109E217F30708F4A8C0D9010D911C91E9
:10115000119706171707B0F00530110508F49BC06A
:10116000C80104978617970708F495C00250110923
:10117000061B170B019311936D937C93CF010E9473
:10118000050889C05B01A01AB10A4C01800E911EAE
:10119000A0915902B0915A02612C712CE12CF12CD2
:1011A000109709F446C08D919C911197A815B90527
:1011B000B1F56C0142E0C40ED11CCA14DB0478F115
:1011C0004C018A189B08640142E0C40ED11C12969F
:1011D000BC9012971396AC91B5E0CB16D10440F0B9
:1011E000B282A38391828082D9016D937C9309C0DE
:1011F0000E5F1F4F800F911FF90191838083EB2DAC
:10120000FA2FE114F10431F0D7011396FC93EE9319
:10121000129741C0F0935A02E09359023CC06816FD
:10122000790608F43C017D0112960D90BC91A02D29
:10123000B7CF809157029091580288169906E1F431
:1012400066167706C8F4809100019091010100971D
:1012500041F48DB79EB74091040150910501841B64
:10126000950BE817F907C8F4F0935802E09357027A
:10127000F901718360830FC0CB010E946D077C016F
:10128000009759F0A801BE010E945909CE010E94A1
:101290000508C70104C0CE0102C080E090E0CDB7D0
:1012A000DEB7EEE00C94280781E090E0F8940C940F
:1012B0006909FB01DC0102C001900D9241505040D0
:1012C000D8F70895FB01DC0101900D920020E1F7B1
:1012D000089510E0C2E6D0E004C0FE010E94670756
:0C12E0002196C336D107C9F7F894FFCF60
:1012EC0000005B028000000000007F01EC00160192
:1012FC00CC01470125013901000000001102EC006E
:10130C009B02100261027902F801547279696E67CE
:10131C0020746F2073656E642041542B474D52200E
:0E132C002E2E2E000D0A0041542B474D52006C
:00000001FF
